
Unit_RTC.elf:     file format elf32-littlearm

Sections:
Idx Name          Size      VMA       LMA       File off  Algn
  0 .isr_vector   0000010c  08000000  08000000  00010000  2**0
                  CONTENTS, ALLOC, LOAD, READONLY, DATA
  1 .text         00005240  0800010c  0800010c  0001010c  2**2
                  CONTENTS, ALLOC, LOAD, READONLY, CODE
  2 .rodata       00000518  0800534c  0800534c  0001534c  2**2
                  CONTENTS, ALLOC, LOAD, READONLY, DATA
  3 .ARM.extab    00000000  08005864  08005864  00020074  2**0
                  CONTENTS
  4 .ARM          00000000  08005864  08005864  00020074  2**0
                  CONTENTS
  5 .preinit_array 00000000  08005864  08005864  00020074  2**0
                  CONTENTS, ALLOC, LOAD, DATA
  6 .init_array   00000004  08005864  08005864  00015864  2**2
                  CONTENTS, ALLOC, LOAD, DATA
  7 .fini_array   00000004  08005868  08005868  00015868  2**2
                  CONTENTS, ALLOC, LOAD, DATA
  8 .data         00000074  20000000  0800586c  00020000  2**2
                  CONTENTS, ALLOC, LOAD, DATA
  9 .bss          00000130  20000074  080058e0  00020074  2**2
                  ALLOC
 10 ._user_heap_stack 00000604  200001a4  080058e0  000201a4  2**0
                  ALLOC
 11 .ARM.attributes 00000029  00000000  00000000  00020074  2**0
                  CONTENTS, READONLY
 12 .debug_info   0000abaa  00000000  00000000  0002009d  2**0
                  CONTENTS, READONLY, DEBUGGING, OCTETS
 13 .debug_abbrev 000022b6  00000000  00000000  0002ac47  2**0
                  CONTENTS, READONLY, DEBUGGING, OCTETS
 14 .debug_aranges 000009e0  00000000  00000000  0002cf00  2**3
                  CONTENTS, READONLY, DEBUGGING, OCTETS
 15 .debug_ranges 00000908  00000000  00000000  0002d8e0  2**3
                  CONTENTS, READONLY, DEBUGGING, OCTETS
 16 .debug_macro  0001841e  00000000  00000000  0002e1e8  2**0
                  CONTENTS, READONLY, DEBUGGING, OCTETS
 17 .debug_line   0000ad69  00000000  00000000  00046606  2**0
                  CONTENTS, READONLY, DEBUGGING, OCTETS
 18 .debug_str    0008478d  00000000  00000000  0005136f  2**0
                  CONTENTS, READONLY, DEBUGGING, OCTETS
 19 .comment      00000053  00000000  00000000  000d5afc  2**0
                  CONTENTS, READONLY
 20 .debug_frame  000033cc  00000000  00000000  000d5b50  2**2
                  CONTENTS, READONLY, DEBUGGING, OCTETS

Disassembly of section .text:

0800010c <__do_global_dtors_aux>:
 800010c:	b510      	push	{r4, lr}
 800010e:	4c05      	ldr	r4, [pc, #20]	; (8000124 <__do_global_dtors_aux+0x18>)
 8000110:	7823      	ldrb	r3, [r4, #0]
 8000112:	b933      	cbnz	r3, 8000122 <__do_global_dtors_aux+0x16>
 8000114:	4b04      	ldr	r3, [pc, #16]	; (8000128 <__do_global_dtors_aux+0x1c>)
 8000116:	b113      	cbz	r3, 800011e <__do_global_dtors_aux+0x12>
 8000118:	4804      	ldr	r0, [pc, #16]	; (800012c <__do_global_dtors_aux+0x20>)
 800011a:	f3af 8000 	nop.w
 800011e:	2301      	movs	r3, #1
 8000120:	7023      	strb	r3, [r4, #0]
 8000122:	bd10      	pop	{r4, pc}
 8000124:	20000074 	.word	0x20000074
 8000128:	00000000 	.word	0x00000000
 800012c:	08005334 	.word	0x08005334

08000130 <frame_dummy>:
 8000130:	b508      	push	{r3, lr}
 8000132:	4b03      	ldr	r3, [pc, #12]	; (8000140 <frame_dummy+0x10>)
 8000134:	b11b      	cbz	r3, 800013e <frame_dummy+0xe>
 8000136:	4903      	ldr	r1, [pc, #12]	; (8000144 <frame_dummy+0x14>)
 8000138:	4803      	ldr	r0, [pc, #12]	; (8000148 <frame_dummy+0x18>)
 800013a:	f3af 8000 	nop.w
 800013e:	bd08      	pop	{r3, pc}
 8000140:	00000000 	.word	0x00000000
 8000144:	20000078 	.word	0x20000078
 8000148:	08005334 	.word	0x08005334

0800014c <__aeabi_dmul>:
 800014c:	b570      	push	{r4, r5, r6, lr}
 800014e:	f04f 0cff 	mov.w	ip, #255	; 0xff
 8000152:	f44c 6ce0 	orr.w	ip, ip, #1792	; 0x700
 8000156:	ea1c 5411 	ands.w	r4, ip, r1, lsr #20
 800015a:	bf1d      	ittte	ne
 800015c:	ea1c 5513 	andsne.w	r5, ip, r3, lsr #20
 8000160:	ea94 0f0c 	teqne	r4, ip
 8000164:	ea95 0f0c 	teqne	r5, ip
 8000168:	f000 f8de 	bleq	8000328 <__aeabi_dmul+0x1dc>
 800016c:	442c      	add	r4, r5
 800016e:	ea81 0603 	eor.w	r6, r1, r3
 8000172:	ea21 514c 	bic.w	r1, r1, ip, lsl #21
 8000176:	ea23 534c 	bic.w	r3, r3, ip, lsl #21
 800017a:	ea50 3501 	orrs.w	r5, r0, r1, lsl #12
 800017e:	bf18      	it	ne
 8000180:	ea52 3503 	orrsne.w	r5, r2, r3, lsl #12
 8000184:	f441 1180 	orr.w	r1, r1, #1048576	; 0x100000
 8000188:	f443 1380 	orr.w	r3, r3, #1048576	; 0x100000
 800018c:	d038      	beq.n	8000200 <__aeabi_dmul+0xb4>
 800018e:	fba0 ce02 	umull	ip, lr, r0, r2
 8000192:	f04f 0500 	mov.w	r5, #0
 8000196:	fbe1 e502 	umlal	lr, r5, r1, r2
 800019a:	f006 4200 	and.w	r2, r6, #2147483648	; 0x80000000
 800019e:	fbe0 e503 	umlal	lr, r5, r0, r3
 80001a2:	f04f 0600 	mov.w	r6, #0
 80001a6:	fbe1 5603 	umlal	r5, r6, r1, r3
 80001aa:	f09c 0f00 	teq	ip, #0
 80001ae:	bf18      	it	ne
 80001b0:	f04e 0e01 	orrne.w	lr, lr, #1
 80001b4:	f1a4 04ff 	sub.w	r4, r4, #255	; 0xff
 80001b8:	f5b6 7f00 	cmp.w	r6, #512	; 0x200
 80001bc:	f564 7440 	sbc.w	r4, r4, #768	; 0x300
 80001c0:	d204      	bcs.n	80001cc <__aeabi_dmul+0x80>
 80001c2:	ea5f 0e4e 	movs.w	lr, lr, lsl #1
 80001c6:	416d      	adcs	r5, r5
 80001c8:	eb46 0606 	adc.w	r6, r6, r6
 80001cc:	ea42 21c6 	orr.w	r1, r2, r6, lsl #11
 80001d0:	ea41 5155 	orr.w	r1, r1, r5, lsr #21
 80001d4:	ea4f 20c5 	mov.w	r0, r5, lsl #11
 80001d8:	ea40 505e 	orr.w	r0, r0, lr, lsr #21
 80001dc:	ea4f 2ece 	mov.w	lr, lr, lsl #11
 80001e0:	f1b4 0cfd 	subs.w	ip, r4, #253	; 0xfd
 80001e4:	bf88      	it	hi
 80001e6:	f5bc 6fe0 	cmphi.w	ip, #1792	; 0x700
 80001ea:	d81e      	bhi.n	800022a <__aeabi_dmul+0xde>
 80001ec:	f1be 4f00 	cmp.w	lr, #2147483648	; 0x80000000
 80001f0:	bf08      	it	eq
 80001f2:	ea5f 0e50 	movseq.w	lr, r0, lsr #1
 80001f6:	f150 0000 	adcs.w	r0, r0, #0
 80001fa:	eb41 5104 	adc.w	r1, r1, r4, lsl #20
 80001fe:	bd70      	pop	{r4, r5, r6, pc}
 8000200:	f006 4600 	and.w	r6, r6, #2147483648	; 0x80000000
 8000204:	ea46 0101 	orr.w	r1, r6, r1
 8000208:	ea40 0002 	orr.w	r0, r0, r2
 800020c:	ea81 0103 	eor.w	r1, r1, r3
 8000210:	ebb4 045c 	subs.w	r4, r4, ip, lsr #1
 8000214:	bfc2      	ittt	gt
 8000216:	ebd4 050c 	rsbsgt	r5, r4, ip
 800021a:	ea41 5104 	orrgt.w	r1, r1, r4, lsl #20
 800021e:	bd70      	popgt	{r4, r5, r6, pc}
 8000220:	f441 1180 	orr.w	r1, r1, #1048576	; 0x100000
 8000224:	f04f 0e00 	mov.w	lr, #0
 8000228:	3c01      	subs	r4, #1
 800022a:	f300 80ab 	bgt.w	8000384 <__aeabi_dmul+0x238>
 800022e:	f114 0f36 	cmn.w	r4, #54	; 0x36
 8000232:	bfde      	ittt	le
 8000234:	2000      	movle	r0, #0
 8000236:	f001 4100 	andle.w	r1, r1, #2147483648	; 0x80000000
 800023a:	bd70      	pople	{r4, r5, r6, pc}
 800023c:	f1c4 0400 	rsb	r4, r4, #0
 8000240:	3c20      	subs	r4, #32
 8000242:	da35      	bge.n	80002b0 <__aeabi_dmul+0x164>
 8000244:	340c      	adds	r4, #12
 8000246:	dc1b      	bgt.n	8000280 <__aeabi_dmul+0x134>
 8000248:	f104 0414 	add.w	r4, r4, #20
 800024c:	f1c4 0520 	rsb	r5, r4, #32
 8000250:	fa00 f305 	lsl.w	r3, r0, r5
 8000254:	fa20 f004 	lsr.w	r0, r0, r4
 8000258:	fa01 f205 	lsl.w	r2, r1, r5
 800025c:	ea40 0002 	orr.w	r0, r0, r2
 8000260:	f001 4200 	and.w	r2, r1, #2147483648	; 0x80000000
 8000264:	f021 4100 	bic.w	r1, r1, #2147483648	; 0x80000000
 8000268:	eb10 70d3 	adds.w	r0, r0, r3, lsr #31
 800026c:	fa21 f604 	lsr.w	r6, r1, r4
 8000270:	eb42 0106 	adc.w	r1, r2, r6
 8000274:	ea5e 0e43 	orrs.w	lr, lr, r3, lsl #1
 8000278:	bf08      	it	eq
 800027a:	ea20 70d3 	biceq.w	r0, r0, r3, lsr #31
 800027e:	bd70      	pop	{r4, r5, r6, pc}
 8000280:	f1c4 040c 	rsb	r4, r4, #12
 8000284:	f1c4 0520 	rsb	r5, r4, #32
 8000288:	fa00 f304 	lsl.w	r3, r0, r4
 800028c:	fa20 f005 	lsr.w	r0, r0, r5
 8000290:	fa01 f204 	lsl.w	r2, r1, r4
 8000294:	ea40 0002 	orr.w	r0, r0, r2
 8000298:	f001 4100 	and.w	r1, r1, #2147483648	; 0x80000000
 800029c:	eb10 70d3 	adds.w	r0, r0, r3, lsr #31
 80002a0:	f141 0100 	adc.w	r1, r1, #0
 80002a4:	ea5e 0e43 	orrs.w	lr, lr, r3, lsl #1
 80002a8:	bf08      	it	eq
 80002aa:	ea20 70d3 	biceq.w	r0, r0, r3, lsr #31
 80002ae:	bd70      	pop	{r4, r5, r6, pc}
 80002b0:	f1c4 0520 	rsb	r5, r4, #32
 80002b4:	fa00 f205 	lsl.w	r2, r0, r5
 80002b8:	ea4e 0e02 	orr.w	lr, lr, r2
 80002bc:	fa20 f304 	lsr.w	r3, r0, r4
 80002c0:	fa01 f205 	lsl.w	r2, r1, r5
 80002c4:	ea43 0302 	orr.w	r3, r3, r2
 80002c8:	fa21 f004 	lsr.w	r0, r1, r4
 80002cc:	f001 4100 	and.w	r1, r1, #2147483648	; 0x80000000
 80002d0:	fa21 f204 	lsr.w	r2, r1, r4
 80002d4:	ea20 0002 	bic.w	r0, r0, r2
 80002d8:	eb00 70d3 	add.w	r0, r0, r3, lsr #31
 80002dc:	ea5e 0e43 	orrs.w	lr, lr, r3, lsl #1
 80002e0:	bf08      	it	eq
 80002e2:	ea20 70d3 	biceq.w	r0, r0, r3, lsr #31
 80002e6:	bd70      	pop	{r4, r5, r6, pc}
 80002e8:	f094 0f00 	teq	r4, #0
 80002ec:	d10f      	bne.n	800030e <__aeabi_dmul+0x1c2>
 80002ee:	f001 4600 	and.w	r6, r1, #2147483648	; 0x80000000
 80002f2:	0040      	lsls	r0, r0, #1
 80002f4:	eb41 0101 	adc.w	r1, r1, r1
 80002f8:	f411 1f80 	tst.w	r1, #1048576	; 0x100000
 80002fc:	bf08      	it	eq
 80002fe:	3c01      	subeq	r4, #1
 8000300:	d0f7      	beq.n	80002f2 <__aeabi_dmul+0x1a6>
 8000302:	ea41 0106 	orr.w	r1, r1, r6
 8000306:	f095 0f00 	teq	r5, #0
 800030a:	bf18      	it	ne
 800030c:	4770      	bxne	lr
 800030e:	f003 4600 	and.w	r6, r3, #2147483648	; 0x80000000
 8000312:	0052      	lsls	r2, r2, #1
 8000314:	eb43 0303 	adc.w	r3, r3, r3
 8000318:	f413 1f80 	tst.w	r3, #1048576	; 0x100000
 800031c:	bf08      	it	eq
 800031e:	3d01      	subeq	r5, #1
 8000320:	d0f7      	beq.n	8000312 <__aeabi_dmul+0x1c6>
 8000322:	ea43 0306 	orr.w	r3, r3, r6
 8000326:	4770      	bx	lr
 8000328:	ea94 0f0c 	teq	r4, ip
 800032c:	ea0c 5513 	and.w	r5, ip, r3, lsr #20
 8000330:	bf18      	it	ne
 8000332:	ea95 0f0c 	teqne	r5, ip
 8000336:	d00c      	beq.n	8000352 <__aeabi_dmul+0x206>
 8000338:	ea50 0641 	orrs.w	r6, r0, r1, lsl #1
 800033c:	bf18      	it	ne
 800033e:	ea52 0643 	orrsne.w	r6, r2, r3, lsl #1
 8000342:	d1d1      	bne.n	80002e8 <__aeabi_dmul+0x19c>
 8000344:	ea81 0103 	eor.w	r1, r1, r3
 8000348:	f001 4100 	and.w	r1, r1, #2147483648	; 0x80000000
 800034c:	f04f 0000 	mov.w	r0, #0
 8000350:	bd70      	pop	{r4, r5, r6, pc}
 8000352:	ea50 0641 	orrs.w	r6, r0, r1, lsl #1
 8000356:	bf06      	itte	eq
 8000358:	4610      	moveq	r0, r2
 800035a:	4619      	moveq	r1, r3
 800035c:	ea52 0643 	orrsne.w	r6, r2, r3, lsl #1
 8000360:	d019      	beq.n	8000396 <__aeabi_dmul+0x24a>
 8000362:	ea94 0f0c 	teq	r4, ip
 8000366:	d102      	bne.n	800036e <__aeabi_dmul+0x222>
 8000368:	ea50 3601 	orrs.w	r6, r0, r1, lsl #12
 800036c:	d113      	bne.n	8000396 <__aeabi_dmul+0x24a>
 800036e:	ea95 0f0c 	teq	r5, ip
 8000372:	d105      	bne.n	8000380 <__aeabi_dmul+0x234>
 8000374:	ea52 3603 	orrs.w	r6, r2, r3, lsl #12
 8000378:	bf1c      	itt	ne
 800037a:	4610      	movne	r0, r2
 800037c:	4619      	movne	r1, r3
 800037e:	d10a      	bne.n	8000396 <__aeabi_dmul+0x24a>
 8000380:	ea81 0103 	eor.w	r1, r1, r3
 8000384:	f001 4100 	and.w	r1, r1, #2147483648	; 0x80000000
 8000388:	f041 41fe 	orr.w	r1, r1, #2130706432	; 0x7f000000
 800038c:	f441 0170 	orr.w	r1, r1, #15728640	; 0xf00000
 8000390:	f04f 0000 	mov.w	r0, #0
 8000394:	bd70      	pop	{r4, r5, r6, pc}
 8000396:	f041 41fe 	orr.w	r1, r1, #2130706432	; 0x7f000000
 800039a:	f441 0178 	orr.w	r1, r1, #16252928	; 0xf80000
 800039e:	bd70      	pop	{r4, r5, r6, pc}

080003a0 <__aeabi_drsub>:
 80003a0:	f081 4100 	eor.w	r1, r1, #2147483648	; 0x80000000
 80003a4:	e002      	b.n	80003ac <__adddf3>
 80003a6:	bf00      	nop

080003a8 <__aeabi_dsub>:
 80003a8:	f083 4300 	eor.w	r3, r3, #2147483648	; 0x80000000

080003ac <__adddf3>:
 80003ac:	b530      	push	{r4, r5, lr}
 80003ae:	ea4f 0441 	mov.w	r4, r1, lsl #1
 80003b2:	ea4f 0543 	mov.w	r5, r3, lsl #1
 80003b6:	ea94 0f05 	teq	r4, r5
 80003ba:	bf08      	it	eq
 80003bc:	ea90 0f02 	teqeq	r0, r2
 80003c0:	bf1f      	itttt	ne
 80003c2:	ea54 0c00 	orrsne.w	ip, r4, r0
 80003c6:	ea55 0c02 	orrsne.w	ip, r5, r2
 80003ca:	ea7f 5c64 	mvnsne.w	ip, r4, asr #21
 80003ce:	ea7f 5c65 	mvnsne.w	ip, r5, asr #21
 80003d2:	f000 80e2 	beq.w	800059a <__adddf3+0x1ee>
 80003d6:	ea4f 5454 	mov.w	r4, r4, lsr #21
 80003da:	ebd4 5555 	rsbs	r5, r4, r5, lsr #21
 80003de:	bfb8      	it	lt
 80003e0:	426d      	neglt	r5, r5
 80003e2:	dd0c      	ble.n	80003fe <__adddf3+0x52>
 80003e4:	442c      	add	r4, r5
 80003e6:	ea80 0202 	eor.w	r2, r0, r2
 80003ea:	ea81 0303 	eor.w	r3, r1, r3
 80003ee:	ea82 0000 	eor.w	r0, r2, r0
 80003f2:	ea83 0101 	eor.w	r1, r3, r1
 80003f6:	ea80 0202 	eor.w	r2, r0, r2
 80003fa:	ea81 0303 	eor.w	r3, r1, r3
 80003fe:	2d36      	cmp	r5, #54	; 0x36
 8000400:	bf88      	it	hi
 8000402:	bd30      	pophi	{r4, r5, pc}
 8000404:	f011 4f00 	tst.w	r1, #2147483648	; 0x80000000
 8000408:	ea4f 3101 	mov.w	r1, r1, lsl #12
 800040c:	f44f 1c80 	mov.w	ip, #1048576	; 0x100000
 8000410:	ea4c 3111 	orr.w	r1, ip, r1, lsr #12
 8000414:	d002      	beq.n	800041c <__adddf3+0x70>
 8000416:	4240      	negs	r0, r0
 8000418:	eb61 0141 	sbc.w	r1, r1, r1, lsl #1
 800041c:	f013 4f00 	tst.w	r3, #2147483648	; 0x80000000
 8000420:	ea4f 3303 	mov.w	r3, r3, lsl #12
 8000424:	ea4c 3313 	orr.w	r3, ip, r3, lsr #12
 8000428:	d002      	beq.n	8000430 <__adddf3+0x84>
 800042a:	4252      	negs	r2, r2
 800042c:	eb63 0343 	sbc.w	r3, r3, r3, lsl #1
 8000430:	ea94 0f05 	teq	r4, r5
 8000434:	f000 80a7 	beq.w	8000586 <__adddf3+0x1da>
 8000438:	f1a4 0401 	sub.w	r4, r4, #1
 800043c:	f1d5 0e20 	rsbs	lr, r5, #32
 8000440:	db0d      	blt.n	800045e <__adddf3+0xb2>
 8000442:	fa02 fc0e 	lsl.w	ip, r2, lr
 8000446:	fa22 f205 	lsr.w	r2, r2, r5
 800044a:	1880      	adds	r0, r0, r2
 800044c:	f141 0100 	adc.w	r1, r1, #0
 8000450:	fa03 f20e 	lsl.w	r2, r3, lr
 8000454:	1880      	adds	r0, r0, r2
 8000456:	fa43 f305 	asr.w	r3, r3, r5
 800045a:	4159      	adcs	r1, r3
 800045c:	e00e      	b.n	800047c <__adddf3+0xd0>
 800045e:	f1a5 0520 	sub.w	r5, r5, #32
 8000462:	f10e 0e20 	add.w	lr, lr, #32
 8000466:	2a01      	cmp	r2, #1
 8000468:	fa03 fc0e 	lsl.w	ip, r3, lr
 800046c:	bf28      	it	cs
 800046e:	f04c 0c02 	orrcs.w	ip, ip, #2
 8000472:	fa43 f305 	asr.w	r3, r3, r5
 8000476:	18c0      	adds	r0, r0, r3
 8000478:	eb51 71e3 	adcs.w	r1, r1, r3, asr #31
 800047c:	f001 4500 	and.w	r5, r1, #2147483648	; 0x80000000
 8000480:	d507      	bpl.n	8000492 <__adddf3+0xe6>
 8000482:	f04f 0e00 	mov.w	lr, #0
 8000486:	f1dc 0c00 	rsbs	ip, ip, #0
 800048a:	eb7e 0000 	sbcs.w	r0, lr, r0
 800048e:	eb6e 0101 	sbc.w	r1, lr, r1
 8000492:	f5b1 1f80 	cmp.w	r1, #1048576	; 0x100000
 8000496:	d31b      	bcc.n	80004d0 <__adddf3+0x124>
 8000498:	f5b1 1f00 	cmp.w	r1, #2097152	; 0x200000
 800049c:	d30c      	bcc.n	80004b8 <__adddf3+0x10c>
 800049e:	0849      	lsrs	r1, r1, #1
 80004a0:	ea5f 0030 	movs.w	r0, r0, rrx
 80004a4:	ea4f 0c3c 	mov.w	ip, ip, rrx
 80004a8:	f104 0401 	add.w	r4, r4, #1
 80004ac:	ea4f 5244 	mov.w	r2, r4, lsl #21
 80004b0:	f512 0f80 	cmn.w	r2, #4194304	; 0x400000
 80004b4:	f080 809a 	bcs.w	80005ec <__adddf3+0x240>
 80004b8:	f1bc 4f00 	cmp.w	ip, #2147483648	; 0x80000000
 80004bc:	bf08      	it	eq
 80004be:	ea5f 0c50 	movseq.w	ip, r0, lsr #1
 80004c2:	f150 0000 	adcs.w	r0, r0, #0
 80004c6:	eb41 5104 	adc.w	r1, r1, r4, lsl #20
 80004ca:	ea41 0105 	orr.w	r1, r1, r5
 80004ce:	bd30      	pop	{r4, r5, pc}
 80004d0:	ea5f 0c4c 	movs.w	ip, ip, lsl #1
 80004d4:	4140      	adcs	r0, r0
 80004d6:	eb41 0101 	adc.w	r1, r1, r1
 80004da:	3c01      	subs	r4, #1
 80004dc:	bf28      	it	cs
 80004de:	f5b1 1f80 	cmpcs.w	r1, #1048576	; 0x100000
 80004e2:	d2e9      	bcs.n	80004b8 <__adddf3+0x10c>
 80004e4:	f091 0f00 	teq	r1, #0
 80004e8:	bf04      	itt	eq
 80004ea:	4601      	moveq	r1, r0
 80004ec:	2000      	moveq	r0, #0
 80004ee:	fab1 f381 	clz	r3, r1
 80004f2:	bf08      	it	eq
 80004f4:	3320      	addeq	r3, #32
 80004f6:	f1a3 030b 	sub.w	r3, r3, #11
 80004fa:	f1b3 0220 	subs.w	r2, r3, #32
 80004fe:	da0c      	bge.n	800051a <__adddf3+0x16e>
 8000500:	320c      	adds	r2, #12
 8000502:	dd08      	ble.n	8000516 <__adddf3+0x16a>
 8000504:	f102 0c14 	add.w	ip, r2, #20
 8000508:	f1c2 020c 	rsb	r2, r2, #12
 800050c:	fa01 f00c 	lsl.w	r0, r1, ip
 8000510:	fa21 f102 	lsr.w	r1, r1, r2
 8000514:	e00c      	b.n	8000530 <__adddf3+0x184>
 8000516:	f102 0214 	add.w	r2, r2, #20
 800051a:	bfd8      	it	le
 800051c:	f1c2 0c20 	rsble	ip, r2, #32
 8000520:	fa01 f102 	lsl.w	r1, r1, r2
 8000524:	fa20 fc0c 	lsr.w	ip, r0, ip
 8000528:	bfdc      	itt	le
 800052a:	ea41 010c 	orrle.w	r1, r1, ip
 800052e:	4090      	lslle	r0, r2
 8000530:	1ae4      	subs	r4, r4, r3
 8000532:	bfa2      	ittt	ge
 8000534:	eb01 5104 	addge.w	r1, r1, r4, lsl #20
 8000538:	4329      	orrge	r1, r5
 800053a:	bd30      	popge	{r4, r5, pc}
 800053c:	ea6f 0404 	mvn.w	r4, r4
 8000540:	3c1f      	subs	r4, #31
 8000542:	da1c      	bge.n	800057e <__adddf3+0x1d2>
 8000544:	340c      	adds	r4, #12
 8000546:	dc0e      	bgt.n	8000566 <__adddf3+0x1ba>
 8000548:	f104 0414 	add.w	r4, r4, #20
 800054c:	f1c4 0220 	rsb	r2, r4, #32
 8000550:	fa20 f004 	lsr.w	r0, r0, r4
 8000554:	fa01 f302 	lsl.w	r3, r1, r2
 8000558:	ea40 0003 	orr.w	r0, r0, r3
 800055c:	fa21 f304 	lsr.w	r3, r1, r4
 8000560:	ea45 0103 	orr.w	r1, r5, r3
 8000564:	bd30      	pop	{r4, r5, pc}
 8000566:	f1c4 040c 	rsb	r4, r4, #12
 800056a:	f1c4 0220 	rsb	r2, r4, #32
 800056e:	fa20 f002 	lsr.w	r0, r0, r2
 8000572:	fa01 f304 	lsl.w	r3, r1, r4
 8000576:	ea40 0003 	orr.w	r0, r0, r3
 800057a:	4629      	mov	r1, r5
 800057c:	bd30      	pop	{r4, r5, pc}
 800057e:	fa21 f004 	lsr.w	r0, r1, r4
 8000582:	4629      	mov	r1, r5
 8000584:	bd30      	pop	{r4, r5, pc}
 8000586:	f094 0f00 	teq	r4, #0
 800058a:	f483 1380 	eor.w	r3, r3, #1048576	; 0x100000
 800058e:	bf06      	itte	eq
 8000590:	f481 1180 	eoreq.w	r1, r1, #1048576	; 0x100000
 8000594:	3401      	addeq	r4, #1
 8000596:	3d01      	subne	r5, #1
 8000598:	e74e      	b.n	8000438 <__adddf3+0x8c>
 800059a:	ea7f 5c64 	mvns.w	ip, r4, asr #21
 800059e:	bf18      	it	ne
 80005a0:	ea7f 5c65 	mvnsne.w	ip, r5, asr #21
 80005a4:	d029      	beq.n	80005fa <__adddf3+0x24e>
 80005a6:	ea94 0f05 	teq	r4, r5
 80005aa:	bf08      	it	eq
 80005ac:	ea90 0f02 	teqeq	r0, r2
 80005b0:	d005      	beq.n	80005be <__adddf3+0x212>
 80005b2:	ea54 0c00 	orrs.w	ip, r4, r0
 80005b6:	bf04      	itt	eq
 80005b8:	4619      	moveq	r1, r3
 80005ba:	4610      	moveq	r0, r2
 80005bc:	bd30      	pop	{r4, r5, pc}
 80005be:	ea91 0f03 	teq	r1, r3
 80005c2:	bf1e      	ittt	ne
 80005c4:	2100      	movne	r1, #0
 80005c6:	2000      	movne	r0, #0
 80005c8:	bd30      	popne	{r4, r5, pc}
 80005ca:	ea5f 5c54 	movs.w	ip, r4, lsr #21
 80005ce:	d105      	bne.n	80005dc <__adddf3+0x230>
 80005d0:	0040      	lsls	r0, r0, #1
 80005d2:	4149      	adcs	r1, r1
 80005d4:	bf28      	it	cs
 80005d6:	f041 4100 	orrcs.w	r1, r1, #2147483648	; 0x80000000
 80005da:	bd30      	pop	{r4, r5, pc}
 80005dc:	f514 0480 	adds.w	r4, r4, #4194304	; 0x400000
 80005e0:	bf3c      	itt	cc
 80005e2:	f501 1180 	addcc.w	r1, r1, #1048576	; 0x100000
 80005e6:	bd30      	popcc	{r4, r5, pc}
 80005e8:	f001 4500 	and.w	r5, r1, #2147483648	; 0x80000000
 80005ec:	f045 41fe 	orr.w	r1, r5, #2130706432	; 0x7f000000
 80005f0:	f441 0170 	orr.w	r1, r1, #15728640	; 0xf00000
 80005f4:	f04f 0000 	mov.w	r0, #0
 80005f8:	bd30      	pop	{r4, r5, pc}
 80005fa:	ea7f 5c64 	mvns.w	ip, r4, asr #21
 80005fe:	bf1a      	itte	ne
 8000600:	4619      	movne	r1, r3
 8000602:	4610      	movne	r0, r2
 8000604:	ea7f 5c65 	mvnseq.w	ip, r5, asr #21
 8000608:	bf1c      	itt	ne
 800060a:	460b      	movne	r3, r1
 800060c:	4602      	movne	r2, r0
 800060e:	ea50 3401 	orrs.w	r4, r0, r1, lsl #12
 8000612:	bf06      	itte	eq
 8000614:	ea52 3503 	orrseq.w	r5, r2, r3, lsl #12
 8000618:	ea91 0f03 	teqeq	r1, r3
 800061c:	f441 2100 	orrne.w	r1, r1, #524288	; 0x80000
 8000620:	bd30      	pop	{r4, r5, pc}
 8000622:	bf00      	nop

08000624 <__aeabi_ui2d>:
 8000624:	f090 0f00 	teq	r0, #0
 8000628:	bf04      	itt	eq
 800062a:	2100      	moveq	r1, #0
 800062c:	4770      	bxeq	lr
 800062e:	b530      	push	{r4, r5, lr}
 8000630:	f44f 6480 	mov.w	r4, #1024	; 0x400
 8000634:	f104 0432 	add.w	r4, r4, #50	; 0x32
 8000638:	f04f 0500 	mov.w	r5, #0
 800063c:	f04f 0100 	mov.w	r1, #0
 8000640:	e750      	b.n	80004e4 <__adddf3+0x138>
 8000642:	bf00      	nop

08000644 <__aeabi_i2d>:
 8000644:	f090 0f00 	teq	r0, #0
 8000648:	bf04      	itt	eq
 800064a:	2100      	moveq	r1, #0
 800064c:	4770      	bxeq	lr
 800064e:	b530      	push	{r4, r5, lr}
 8000650:	f44f 6480 	mov.w	r4, #1024	; 0x400
 8000654:	f104 0432 	add.w	r4, r4, #50	; 0x32
 8000658:	f010 4500 	ands.w	r5, r0, #2147483648	; 0x80000000
 800065c:	bf48      	it	mi
 800065e:	4240      	negmi	r0, r0
 8000660:	f04f 0100 	mov.w	r1, #0
 8000664:	e73e      	b.n	80004e4 <__adddf3+0x138>
 8000666:	bf00      	nop

08000668 <__aeabi_f2d>:
 8000668:	0042      	lsls	r2, r0, #1
 800066a:	ea4f 01e2 	mov.w	r1, r2, asr #3
 800066e:	ea4f 0131 	mov.w	r1, r1, rrx
 8000672:	ea4f 7002 	mov.w	r0, r2, lsl #28
 8000676:	bf1f      	itttt	ne
 8000678:	f012 437f 	andsne.w	r3, r2, #4278190080	; 0xff000000
 800067c:	f093 4f7f 	teqne	r3, #4278190080	; 0xff000000
 8000680:	f081 5160 	eorne.w	r1, r1, #939524096	; 0x38000000
 8000684:	4770      	bxne	lr
 8000686:	f032 427f 	bics.w	r2, r2, #4278190080	; 0xff000000
 800068a:	bf08      	it	eq
 800068c:	4770      	bxeq	lr
 800068e:	f093 4f7f 	teq	r3, #4278190080	; 0xff000000
 8000692:	bf04      	itt	eq
 8000694:	f441 2100 	orreq.w	r1, r1, #524288	; 0x80000
 8000698:	4770      	bxeq	lr
 800069a:	b530      	push	{r4, r5, lr}
 800069c:	f44f 7460 	mov.w	r4, #896	; 0x380
 80006a0:	f001 4500 	and.w	r5, r1, #2147483648	; 0x80000000
 80006a4:	f021 4100 	bic.w	r1, r1, #2147483648	; 0x80000000
 80006a8:	e71c      	b.n	80004e4 <__adddf3+0x138>
 80006aa:	bf00      	nop

080006ac <__aeabi_ul2d>:
 80006ac:	ea50 0201 	orrs.w	r2, r0, r1
 80006b0:	bf08      	it	eq
 80006b2:	4770      	bxeq	lr
 80006b4:	b530      	push	{r4, r5, lr}
 80006b6:	f04f 0500 	mov.w	r5, #0
 80006ba:	e00a      	b.n	80006d2 <__aeabi_l2d+0x16>

080006bc <__aeabi_l2d>:
 80006bc:	ea50 0201 	orrs.w	r2, r0, r1
 80006c0:	bf08      	it	eq
 80006c2:	4770      	bxeq	lr
 80006c4:	b530      	push	{r4, r5, lr}
 80006c6:	f011 4500 	ands.w	r5, r1, #2147483648	; 0x80000000
 80006ca:	d502      	bpl.n	80006d2 <__aeabi_l2d+0x16>
 80006cc:	4240      	negs	r0, r0
 80006ce:	eb61 0141 	sbc.w	r1, r1, r1, lsl #1
 80006d2:	f44f 6480 	mov.w	r4, #1024	; 0x400
 80006d6:	f104 0432 	add.w	r4, r4, #50	; 0x32
 80006da:	ea5f 5c91 	movs.w	ip, r1, lsr #22
 80006de:	f43f aed8 	beq.w	8000492 <__adddf3+0xe6>
 80006e2:	f04f 0203 	mov.w	r2, #3
 80006e6:	ea5f 0cdc 	movs.w	ip, ip, lsr #3
 80006ea:	bf18      	it	ne
 80006ec:	3203      	addne	r2, #3
 80006ee:	ea5f 0cdc 	movs.w	ip, ip, lsr #3
 80006f2:	bf18      	it	ne
 80006f4:	3203      	addne	r2, #3
 80006f6:	eb02 02dc 	add.w	r2, r2, ip, lsr #3
 80006fa:	f1c2 0320 	rsb	r3, r2, #32
 80006fe:	fa00 fc03 	lsl.w	ip, r0, r3
 8000702:	fa20 f002 	lsr.w	r0, r0, r2
 8000706:	fa01 fe03 	lsl.w	lr, r1, r3
 800070a:	ea40 000e 	orr.w	r0, r0, lr
 800070e:	fa21 f102 	lsr.w	r1, r1, r2
 8000712:	4414      	add	r4, r2
 8000714:	e6bd      	b.n	8000492 <__adddf3+0xe6>
 8000716:	bf00      	nop

08000718 <__aeabi_d2iz>:
 8000718:	ea4f 0241 	mov.w	r2, r1, lsl #1
 800071c:	f512 1200 	adds.w	r2, r2, #2097152	; 0x200000
 8000720:	d215      	bcs.n	800074e <__aeabi_d2iz+0x36>
 8000722:	d511      	bpl.n	8000748 <__aeabi_d2iz+0x30>
 8000724:	f46f 7378 	mvn.w	r3, #992	; 0x3e0
 8000728:	ebb3 5262 	subs.w	r2, r3, r2, asr #21
 800072c:	d912      	bls.n	8000754 <__aeabi_d2iz+0x3c>
 800072e:	ea4f 23c1 	mov.w	r3, r1, lsl #11
 8000732:	f043 4300 	orr.w	r3, r3, #2147483648	; 0x80000000
 8000736:	ea43 5350 	orr.w	r3, r3, r0, lsr #21
 800073a:	f011 4f00 	tst.w	r1, #2147483648	; 0x80000000
 800073e:	fa23 f002 	lsr.w	r0, r3, r2
 8000742:	bf18      	it	ne
 8000744:	4240      	negne	r0, r0
 8000746:	4770      	bx	lr
 8000748:	f04f 0000 	mov.w	r0, #0
 800074c:	4770      	bx	lr
 800074e:	ea50 3001 	orrs.w	r0, r0, r1, lsl #12
 8000752:	d105      	bne.n	8000760 <__aeabi_d2iz+0x48>
 8000754:	f011 4000 	ands.w	r0, r1, #2147483648	; 0x80000000
 8000758:	bf08      	it	eq
 800075a:	f06f 4000 	mvneq.w	r0, #2147483648	; 0x80000000
 800075e:	4770      	bx	lr
 8000760:	f04f 0000 	mov.w	r0, #0
 8000764:	4770      	bx	lr
 8000766:	bf00      	nop

08000768 <CheckDateAndTime>:

/*
 * Check if given parameters are valid
 * return true or false
 */
bool CheckDateAndTime(char CheckTimeandDate[]){
 8000768:	b5b0      	push	{r4, r5, r7, lr}
 800076a:	b0b8      	sub	sp, #224	; 0xe0
 800076c:	af02      	add	r7, sp, #8
 800076e:	6078      	str	r0, [r7, #4]
	bool CheckIfValid = true; // check if time and date are valid
 8000770:	2301      	movs	r3, #1
 8000772:	f887 30d7 	strb.w	r3, [r7, #215]	; 0xd7

	/*-----------------------------------------Check if time is valid--------------------------*/
	Set.hours = strtok(CheckTimeandDate, ":"); // get first argument from buffer CheckTimeandDate and store it as hour, (hh):mm:ss:day:month:year
 8000776:	49a7      	ldr	r1, [pc, #668]	; (8000a14 <CheckDateAndTime+0x2ac>)
 8000778:	6878      	ldr	r0, [r7, #4]
 800077a:	f003 fb7f 	bl	8003e7c <strtok>
 800077e:	4603      	mov	r3, r0
 8000780:	461a      	mov	r2, r3
 8000782:	4ba5      	ldr	r3, [pc, #660]	; (8000a18 <CheckDateAndTime+0x2b0>)
 8000784:	601a      	str	r2, [r3, #0]
	uur_int = atoi(Set.hours); // because set.hours is uint8_t type, we convert this in integer to get decimal value
 8000786:	4ba4      	ldr	r3, [pc, #656]	; (8000a18 <CheckDateAndTime+0x2b0>)
 8000788:	681b      	ldr	r3, [r3, #0]
 800078a:	4618      	mov	r0, r3
 800078c:	f003 fb12 	bl	8003db4 <atoi>
 8000790:	4603      	mov	r3, r0
 8000792:	4aa2      	ldr	r2, [pc, #648]	; (8000a1c <CheckDateAndTime+0x2b4>)
 8000794:	6013      	str	r3, [r2, #0]
	if(uur_int < 0 || uur_int > 23){ // check if the given hour is between 0 and 23 hour
 8000796:	4ba1      	ldr	r3, [pc, #644]	; (8000a1c <CheckDateAndTime+0x2b4>)
 8000798:	681b      	ldr	r3, [r3, #0]
 800079a:	2b00      	cmp	r3, #0
 800079c:	db03      	blt.n	80007a6 <CheckDateAndTime+0x3e>
 800079e:	4b9f      	ldr	r3, [pc, #636]	; (8000a1c <CheckDateAndTime+0x2b4>)
 80007a0:	681b      	ldr	r3, [r3, #0]
 80007a2:	2b17      	cmp	r3, #23
 80007a4:	dd16      	ble.n	80007d4 <CheckDateAndTime+0x6c>
	  uint8_t HourError[] = "Error: give me hours between 0 and 23\r\n";
 80007a6:	4b9e      	ldr	r3, [pc, #632]	; (8000a20 <CheckDateAndTime+0x2b8>)
 80007a8:	f107 040c 	add.w	r4, r7, #12
 80007ac:	461d      	mov	r5, r3
 80007ae:	cd0f      	ldmia	r5!, {r0, r1, r2, r3}
 80007b0:	c40f      	stmia	r4!, {r0, r1, r2, r3}
 80007b2:	cd0f      	ldmia	r5!, {r0, r1, r2, r3}
 80007b4:	c40f      	stmia	r4!, {r0, r1, r2, r3}
 80007b6:	e895 0003 	ldmia.w	r5, {r0, r1}
 80007ba:	e884 0003 	stmia.w	r4, {r0, r1}
	  HAL_UART_Transmit(&huart2, HourError, sizeof(HourError), Timeout);
 80007be:	4b99      	ldr	r3, [pc, #612]	; (8000a24 <CheckDateAndTime+0x2bc>)
 80007c0:	681b      	ldr	r3, [r3, #0]
 80007c2:	f107 010c 	add.w	r1, r7, #12
 80007c6:	2228      	movs	r2, #40	; 0x28
 80007c8:	4897      	ldr	r0, [pc, #604]	; (8000a28 <CheckDateAndTime+0x2c0>)
 80007ca:	f002 fdfe 	bl	80033ca <HAL_UART_Transmit>
	  CheckIfValid = false;
 80007ce:	2300      	movs	r3, #0
 80007d0:	f887 30d7 	strb.w	r3, [r7, #215]	; 0xd7
	}

	Set.minutes = strtok(NULL, ":"); // get second argument from buffer CheckTimeandDate and store it as minutes, hh:(mm):ss:day:month:year
 80007d4:	498f      	ldr	r1, [pc, #572]	; (8000a14 <CheckDateAndTime+0x2ac>)
 80007d6:	2000      	movs	r0, #0
 80007d8:	f003 fb50 	bl	8003e7c <strtok>
 80007dc:	4603      	mov	r3, r0
 80007de:	461a      	mov	r2, r3
 80007e0:	4b8d      	ldr	r3, [pc, #564]	; (8000a18 <CheckDateAndTime+0x2b0>)
 80007e2:	605a      	str	r2, [r3, #4]
	minuten_int = atoi(Set.minutes); // converter type uint8_t set.minutes in to int type
 80007e4:	4b8c      	ldr	r3, [pc, #560]	; (8000a18 <CheckDateAndTime+0x2b0>)
 80007e6:	685b      	ldr	r3, [r3, #4]
 80007e8:	4618      	mov	r0, r3
 80007ea:	f003 fae3 	bl	8003db4 <atoi>
 80007ee:	4603      	mov	r3, r0
 80007f0:	4a8e      	ldr	r2, [pc, #568]	; (8000a2c <CheckDateAndTime+0x2c4>)
 80007f2:	6013      	str	r3, [r2, #0]
	if(minuten_int < 0 || minuten_int > 59){ // check if the given minutes is between 0 and 59 minutes
 80007f4:	4b8d      	ldr	r3, [pc, #564]	; (8000a2c <CheckDateAndTime+0x2c4>)
 80007f6:	681b      	ldr	r3, [r3, #0]
 80007f8:	2b00      	cmp	r3, #0
 80007fa:	db03      	blt.n	8000804 <CheckDateAndTime+0x9c>
 80007fc:	4b8b      	ldr	r3, [pc, #556]	; (8000a2c <CheckDateAndTime+0x2c4>)
 80007fe:	681b      	ldr	r3, [r3, #0]
 8000800:	2b3b      	cmp	r3, #59	; 0x3b
 8000802:	dd19      	ble.n	8000838 <CheckDateAndTime+0xd0>
	  uint8_t MinutesError[] = "Error: give me minutes between 0 and 59 \r\n";
 8000804:	4b8a      	ldr	r3, [pc, #552]	; (8000a30 <CheckDateAndTime+0x2c8>)
 8000806:	f107 040c 	add.w	r4, r7, #12
 800080a:	461d      	mov	r5, r3
 800080c:	cd0f      	ldmia	r5!, {r0, r1, r2, r3}
 800080e:	c40f      	stmia	r4!, {r0, r1, r2, r3}
 8000810:	cd0f      	ldmia	r5!, {r0, r1, r2, r3}
 8000812:	c40f      	stmia	r4!, {r0, r1, r2, r3}
 8000814:	e895 0007 	ldmia.w	r5, {r0, r1, r2}
 8000818:	c403      	stmia	r4!, {r0, r1}
 800081a:	8022      	strh	r2, [r4, #0]
 800081c:	3402      	adds	r4, #2
 800081e:	0c13      	lsrs	r3, r2, #16
 8000820:	7023      	strb	r3, [r4, #0]
	  HAL_UART_Transmit(&huart2, MinutesError, sizeof(MinutesError), Timeout);
 8000822:	4b80      	ldr	r3, [pc, #512]	; (8000a24 <CheckDateAndTime+0x2bc>)
 8000824:	681b      	ldr	r3, [r3, #0]
 8000826:	f107 010c 	add.w	r1, r7, #12
 800082a:	222b      	movs	r2, #43	; 0x2b
 800082c:	487e      	ldr	r0, [pc, #504]	; (8000a28 <CheckDateAndTime+0x2c0>)
 800082e:	f002 fdcc 	bl	80033ca <HAL_UART_Transmit>
	  CheckIfValid = false;
 8000832:	2300      	movs	r3, #0
 8000834:	f887 30d7 	strb.w	r3, [r7, #215]	; 0xd7
	}

	Set.seconds = strtok(NULL, ":"); // get third argument from buffer CheckTimeandDate and store it as seconds, hh:mm:(ss):day:month:year
 8000838:	4976      	ldr	r1, [pc, #472]	; (8000a14 <CheckDateAndTime+0x2ac>)
 800083a:	2000      	movs	r0, #0
 800083c:	f003 fb1e 	bl	8003e7c <strtok>
 8000840:	4603      	mov	r3, r0
 8000842:	461a      	mov	r2, r3
 8000844:	4b74      	ldr	r3, [pc, #464]	; (8000a18 <CheckDateAndTime+0x2b0>)
 8000846:	609a      	str	r2, [r3, #8]
	seconden_int = atoi(Set.seconds); // convert uint8_t into integer
 8000848:	4b73      	ldr	r3, [pc, #460]	; (8000a18 <CheckDateAndTime+0x2b0>)
 800084a:	689b      	ldr	r3, [r3, #8]
 800084c:	4618      	mov	r0, r3
 800084e:	f003 fab1 	bl	8003db4 <atoi>
 8000852:	4603      	mov	r3, r0
 8000854:	4a77      	ldr	r2, [pc, #476]	; (8000a34 <CheckDateAndTime+0x2cc>)
 8000856:	6013      	str	r3, [r2, #0]
	if(seconden_int < 0 || seconden_int > 59){ // check if the given seconds is between 0 and 59 seconds
 8000858:	4b76      	ldr	r3, [pc, #472]	; (8000a34 <CheckDateAndTime+0x2cc>)
 800085a:	681b      	ldr	r3, [r3, #0]
 800085c:	2b00      	cmp	r3, #0
 800085e:	db03      	blt.n	8000868 <CheckDateAndTime+0x100>
 8000860:	4b74      	ldr	r3, [pc, #464]	; (8000a34 <CheckDateAndTime+0x2cc>)
 8000862:	681b      	ldr	r3, [r3, #0]
 8000864:	2b3b      	cmp	r3, #59	; 0x3b
 8000866:	dd16      	ble.n	8000896 <CheckDateAndTime+0x12e>
	  uint8_t SecondsError[] = "Error: give me seconds between 0 and 59\r\n";
 8000868:	4b73      	ldr	r3, [pc, #460]	; (8000a38 <CheckDateAndTime+0x2d0>)
 800086a:	f107 040c 	add.w	r4, r7, #12
 800086e:	461d      	mov	r5, r3
 8000870:	cd0f      	ldmia	r5!, {r0, r1, r2, r3}
 8000872:	c40f      	stmia	r4!, {r0, r1, r2, r3}
 8000874:	cd0f      	ldmia	r5!, {r0, r1, r2, r3}
 8000876:	c40f      	stmia	r4!, {r0, r1, r2, r3}
 8000878:	e895 0007 	ldmia.w	r5, {r0, r1, r2}
 800087c:	c403      	stmia	r4!, {r0, r1}
 800087e:	8022      	strh	r2, [r4, #0]
	  HAL_UART_Transmit(&huart2, SecondsError, sizeof(SecondsError), Timeout);
 8000880:	4b68      	ldr	r3, [pc, #416]	; (8000a24 <CheckDateAndTime+0x2bc>)
 8000882:	681b      	ldr	r3, [r3, #0]
 8000884:	f107 010c 	add.w	r1, r7, #12
 8000888:	222a      	movs	r2, #42	; 0x2a
 800088a:	4867      	ldr	r0, [pc, #412]	; (8000a28 <CheckDateAndTime+0x2c0>)
 800088c:	f002 fd9d 	bl	80033ca <HAL_UART_Transmit>
	  CheckIfValid = false;
 8000890:	2300      	movs	r3, #0
 8000892:	f887 30d7 	strb.w	r3, [r7, #215]	; 0xd7
	}

	/*-----------------------------------------Check if date is valid--------------------------*/
	Set.day = strtok(NULL, ":");  //get forth argument from buffer CheckTimeandDate and store it as day, hh:mm:ss:(day):month:year
 8000896:	495f      	ldr	r1, [pc, #380]	; (8000a14 <CheckDateAndTime+0x2ac>)
 8000898:	2000      	movs	r0, #0
 800089a:	f003 faef 	bl	8003e7c <strtok>
 800089e:	4603      	mov	r3, r0
 80008a0:	461a      	mov	r2, r3
 80008a2:	4b5d      	ldr	r3, [pc, #372]	; (8000a18 <CheckDateAndTime+0x2b0>)
 80008a4:	60da      	str	r2, [r3, #12]
	day_int = atoi(Set.day); // convert uint8_t to integer
 80008a6:	4b5c      	ldr	r3, [pc, #368]	; (8000a18 <CheckDateAndTime+0x2b0>)
 80008a8:	68db      	ldr	r3, [r3, #12]
 80008aa:	4618      	mov	r0, r3
 80008ac:	f003 fa82 	bl	8003db4 <atoi>
 80008b0:	4603      	mov	r3, r0
 80008b2:	4a62      	ldr	r2, [pc, #392]	; (8000a3c <CheckDateAndTime+0x2d4>)
 80008b4:	6013      	str	r3, [r2, #0]
	if(day_int < 0 || day_int > 31){ // check if the given date is between 0 and 31
 80008b6:	4b61      	ldr	r3, [pc, #388]	; (8000a3c <CheckDateAndTime+0x2d4>)
 80008b8:	681b      	ldr	r3, [r3, #0]
 80008ba:	2b00      	cmp	r3, #0
 80008bc:	db03      	blt.n	80008c6 <CheckDateAndTime+0x15e>
 80008be:	4b5f      	ldr	r3, [pc, #380]	; (8000a3c <CheckDateAndTime+0x2d4>)
 80008c0:	681b      	ldr	r3, [r3, #0]
 80008c2:	2b1f      	cmp	r3, #31
 80008c4:	dd17      	ble.n	80008f6 <CheckDateAndTime+0x18e>
	  uint8_t DayError[] = "Error: give me day between 0 and 31\r\n";
 80008c6:	4b5e      	ldr	r3, [pc, #376]	; (8000a40 <CheckDateAndTime+0x2d8>)
 80008c8:	f107 040c 	add.w	r4, r7, #12
 80008cc:	461d      	mov	r5, r3
 80008ce:	cd0f      	ldmia	r5!, {r0, r1, r2, r3}
 80008d0:	c40f      	stmia	r4!, {r0, r1, r2, r3}
 80008d2:	cd0f      	ldmia	r5!, {r0, r1, r2, r3}
 80008d4:	c40f      	stmia	r4!, {r0, r1, r2, r3}
 80008d6:	e895 0003 	ldmia.w	r5, {r0, r1}
 80008da:	6020      	str	r0, [r4, #0]
 80008dc:	3404      	adds	r4, #4
 80008de:	8021      	strh	r1, [r4, #0]
	  HAL_UART_Transmit(&huart2, DayError, sizeof(DayError), Timeout);
 80008e0:	4b50      	ldr	r3, [pc, #320]	; (8000a24 <CheckDateAndTime+0x2bc>)
 80008e2:	681b      	ldr	r3, [r3, #0]
 80008e4:	f107 010c 	add.w	r1, r7, #12
 80008e8:	2226      	movs	r2, #38	; 0x26
 80008ea:	484f      	ldr	r0, [pc, #316]	; (8000a28 <CheckDateAndTime+0x2c0>)
 80008ec:	f002 fd6d 	bl	80033ca <HAL_UART_Transmit>
	  CheckIfValid = false;
 80008f0:	2300      	movs	r3, #0
 80008f2:	f887 30d7 	strb.w	r3, [r7, #215]	; 0xd7
	}

	Set.month = strtok(NULL, ":");  //get fifth argument from buffer CheckTimeandDate and store it as month, hh:mm:ss:day:(month):year
 80008f6:	4947      	ldr	r1, [pc, #284]	; (8000a14 <CheckDateAndTime+0x2ac>)
 80008f8:	2000      	movs	r0, #0
 80008fa:	f003 fabf 	bl	8003e7c <strtok>
 80008fe:	4603      	mov	r3, r0
 8000900:	461a      	mov	r2, r3
 8000902:	4b45      	ldr	r3, [pc, #276]	; (8000a18 <CheckDateAndTime+0x2b0>)
 8000904:	611a      	str	r2, [r3, #16]
	month_int = atoi(Set.month);
 8000906:	4b44      	ldr	r3, [pc, #272]	; (8000a18 <CheckDateAndTime+0x2b0>)
 8000908:	691b      	ldr	r3, [r3, #16]
 800090a:	4618      	mov	r0, r3
 800090c:	f003 fa52 	bl	8003db4 <atoi>
 8000910:	4603      	mov	r3, r0
 8000912:	4a4c      	ldr	r2, [pc, #304]	; (8000a44 <CheckDateAndTime+0x2dc>)
 8000914:	6013      	str	r3, [r2, #0]
	if(month_int < 0 || month_int > 12){
 8000916:	4b4b      	ldr	r3, [pc, #300]	; (8000a44 <CheckDateAndTime+0x2dc>)
 8000918:	681b      	ldr	r3, [r3, #0]
 800091a:	2b00      	cmp	r3, #0
 800091c:	db03      	blt.n	8000926 <CheckDateAndTime+0x1be>
 800091e:	4b49      	ldr	r3, [pc, #292]	; (8000a44 <CheckDateAndTime+0x2dc>)
 8000920:	681b      	ldr	r3, [r3, #0]
 8000922:	2b0c      	cmp	r3, #12
 8000924:	dd16      	ble.n	8000954 <CheckDateAndTime+0x1ec>
	  uint8_t MonthError[] = "Error: give me month between 0 and 12\r\n";
 8000926:	4b48      	ldr	r3, [pc, #288]	; (8000a48 <CheckDateAndTime+0x2e0>)
 8000928:	f107 040c 	add.w	r4, r7, #12
 800092c:	461d      	mov	r5, r3
 800092e:	cd0f      	ldmia	r5!, {r0, r1, r2, r3}
 8000930:	c40f      	stmia	r4!, {r0, r1, r2, r3}
 8000932:	cd0f      	ldmia	r5!, {r0, r1, r2, r3}
 8000934:	c40f      	stmia	r4!, {r0, r1, r2, r3}
 8000936:	e895 0003 	ldmia.w	r5, {r0, r1}
 800093a:	e884 0003 	stmia.w	r4, {r0, r1}
	  HAL_UART_Transmit(&huart2, MonthError, sizeof(MonthError), Timeout);
 800093e:	4b39      	ldr	r3, [pc, #228]	; (8000a24 <CheckDateAndTime+0x2bc>)
 8000940:	681b      	ldr	r3, [r3, #0]
 8000942:	f107 010c 	add.w	r1, r7, #12
 8000946:	2228      	movs	r2, #40	; 0x28
 8000948:	4837      	ldr	r0, [pc, #220]	; (8000a28 <CheckDateAndTime+0x2c0>)
 800094a:	f002 fd3e 	bl	80033ca <HAL_UART_Transmit>
	  CheckIfValid = false;
 800094e:	2300      	movs	r3, #0
 8000950:	f887 30d7 	strb.w	r3, [r7, #215]	; 0xd7
	}

	Set.year = strtok(NULL, ":"); // get sixth argument from buffer CheckTimeandDate and store it as seconds, hh:mm:ss:day:month:(year)
 8000954:	492f      	ldr	r1, [pc, #188]	; (8000a14 <CheckDateAndTime+0x2ac>)
 8000956:	2000      	movs	r0, #0
 8000958:	f003 fa90 	bl	8003e7c <strtok>
 800095c:	4603      	mov	r3, r0
 800095e:	461a      	mov	r2, r3
 8000960:	4b2d      	ldr	r3, [pc, #180]	; (8000a18 <CheckDateAndTime+0x2b0>)
 8000962:	615a      	str	r2, [r3, #20]
	year_int = atoi(Set.year);
 8000964:	4b2c      	ldr	r3, [pc, #176]	; (8000a18 <CheckDateAndTime+0x2b0>)
 8000966:	695b      	ldr	r3, [r3, #20]
 8000968:	4618      	mov	r0, r3
 800096a:	f003 fa23 	bl	8003db4 <atoi>
 800096e:	4603      	mov	r3, r0
 8000970:	4a36      	ldr	r2, [pc, #216]	; (8000a4c <CheckDateAndTime+0x2e4>)
 8000972:	6013      	str	r3, [r2, #0]
	if(year_int < 21 || year_int > 30){
 8000974:	4b35      	ldr	r3, [pc, #212]	; (8000a4c <CheckDateAndTime+0x2e4>)
 8000976:	681b      	ldr	r3, [r3, #0]
 8000978:	2b14      	cmp	r3, #20
 800097a:	dd03      	ble.n	8000984 <CheckDateAndTime+0x21c>
 800097c:	4b33      	ldr	r3, [pc, #204]	; (8000a4c <CheckDateAndTime+0x2e4>)
 800097e:	681b      	ldr	r3, [r3, #0]
 8000980:	2b1e      	cmp	r3, #30
 8000982:	dd16      	ble.n	80009b2 <CheckDateAndTime+0x24a>
	  uint8_t YearError[] = "Error: give me year between 21 and 30\r\n";
 8000984:	4b32      	ldr	r3, [pc, #200]	; (8000a50 <CheckDateAndTime+0x2e8>)
 8000986:	f107 040c 	add.w	r4, r7, #12
 800098a:	461d      	mov	r5, r3
 800098c:	cd0f      	ldmia	r5!, {r0, r1, r2, r3}
 800098e:	c40f      	stmia	r4!, {r0, r1, r2, r3}
 8000990:	cd0f      	ldmia	r5!, {r0, r1, r2, r3}
 8000992:	c40f      	stmia	r4!, {r0, r1, r2, r3}
 8000994:	e895 0003 	ldmia.w	r5, {r0, r1}
 8000998:	e884 0003 	stmia.w	r4, {r0, r1}
	  HAL_UART_Transmit(&huart2, YearError, sizeof(YearError), Timeout);
 800099c:	4b21      	ldr	r3, [pc, #132]	; (8000a24 <CheckDateAndTime+0x2bc>)
 800099e:	681b      	ldr	r3, [r3, #0]
 80009a0:	f107 010c 	add.w	r1, r7, #12
 80009a4:	2228      	movs	r2, #40	; 0x28
 80009a6:	4820      	ldr	r0, [pc, #128]	; (8000a28 <CheckDateAndTime+0x2c0>)
 80009a8:	f002 fd0f 	bl	80033ca <HAL_UART_Transmit>
	  CheckIfValid = false;
 80009ac:	2300      	movs	r3, #0
 80009ae:	f887 30d7 	strb.w	r3, [r7, #215]	; 0xd7
	}

	day_of_week(day_int, month_int, year_int); // get date with the given parameters
 80009b2:	4b22      	ldr	r3, [pc, #136]	; (8000a3c <CheckDateAndTime+0x2d4>)
 80009b4:	681b      	ldr	r3, [r3, #0]
 80009b6:	4a23      	ldr	r2, [pc, #140]	; (8000a44 <CheckDateAndTime+0x2dc>)
 80009b8:	6811      	ldr	r1, [r2, #0]
 80009ba:	4a24      	ldr	r2, [pc, #144]	; (8000a4c <CheckDateAndTime+0x2e4>)
 80009bc:	6812      	ldr	r2, [r2, #0]
 80009be:	4618      	mov	r0, r3
 80009c0:	f000 f8de 	bl	8000b80 <day_of_week>

	if(CheckIfValid == false){ // if false the user need to give new date, return false
 80009c4:	f897 30d7 	ldrb.w	r3, [r7, #215]	; 0xd7
 80009c8:	f083 0301 	eor.w	r3, r3, #1
 80009cc:	b2db      	uxtb	r3, r3
 80009ce:	2b00      	cmp	r3, #0
 80009d0:	d042      	beq.n	8000a58 <CheckDateAndTime+0x2f0>
		uint8_t GivenTime[200] = {0};
 80009d2:	2300      	movs	r3, #0
 80009d4:	60fb      	str	r3, [r7, #12]
 80009d6:	f107 0310 	add.w	r3, r7, #16
 80009da:	22c4      	movs	r2, #196	; 0xc4
 80009dc:	2100      	movs	r1, #0
 80009de:	4618      	mov	r0, r3
 80009e0:	f003 fa24 	bl	8003e2c <memset>
		sprintf(GivenTime, "\r\nGiven hour: %d | Given minutes: %d | Given seconds: %d\r\n", uur_int, minuten_int, seconden_int);
 80009e4:	4b0d      	ldr	r3, [pc, #52]	; (8000a1c <CheckDateAndTime+0x2b4>)
 80009e6:	681a      	ldr	r2, [r3, #0]
 80009e8:	4b10      	ldr	r3, [pc, #64]	; (8000a2c <CheckDateAndTime+0x2c4>)
 80009ea:	6819      	ldr	r1, [r3, #0]
 80009ec:	4b11      	ldr	r3, [pc, #68]	; (8000a34 <CheckDateAndTime+0x2cc>)
 80009ee:	681b      	ldr	r3, [r3, #0]
 80009f0:	f107 000c 	add.w	r0, r7, #12
 80009f4:	9300      	str	r3, [sp, #0]
 80009f6:	460b      	mov	r3, r1
 80009f8:	4916      	ldr	r1, [pc, #88]	; (8000a54 <CheckDateAndTime+0x2ec>)
 80009fa:	f003 fa1f 	bl	8003e3c <siprintf>
		HAL_UART_Transmit(&huart2, GivenTime, sizeof(GivenTime), Timeout);
 80009fe:	4b09      	ldr	r3, [pc, #36]	; (8000a24 <CheckDateAndTime+0x2bc>)
 8000a00:	681b      	ldr	r3, [r3, #0]
 8000a02:	f107 010c 	add.w	r1, r7, #12
 8000a06:	22c8      	movs	r2, #200	; 0xc8
 8000a08:	4807      	ldr	r0, [pc, #28]	; (8000a28 <CheckDateAndTime+0x2c0>)
 8000a0a:	f002 fcde 	bl	80033ca <HAL_UART_Transmit>
		return false;
 8000a0e:	2300      	movs	r3, #0
 8000a10:	e041      	b.n	8000a96 <CheckDateAndTime+0x32e>
 8000a12:	bf00      	nop
 8000a14:	0800534c 	.word	0x0800534c
 8000a18:	20000128 	.word	0x20000128
 8000a1c:	200000bc 	.word	0x200000bc
 8000a20:	0800538c 	.word	0x0800538c
 8000a24:	20000000 	.word	0x20000000
 8000a28:	20000140 	.word	0x20000140
 8000a2c:	2000018c 	.word	0x2000018c
 8000a30:	080053b4 	.word	0x080053b4
 8000a34:	20000120 	.word	0x20000120
 8000a38:	080053e0 	.word	0x080053e0
 8000a3c:	200000c0 	.word	0x200000c0
 8000a40:	0800540c 	.word	0x0800540c
 8000a44:	200000b8 	.word	0x200000b8
 8000a48:	08005434 	.word	0x08005434
 8000a4c:	2000011c 	.word	0x2000011c
 8000a50:	0800545c 	.word	0x0800545c
 8000a54:	08005350 	.word	0x08005350
	}
	else{
		uint8_t GivenTime[200] = {0}; // the given data are valid, return true;
 8000a58:	2300      	movs	r3, #0
 8000a5a:	60fb      	str	r3, [r7, #12]
 8000a5c:	f107 0310 	add.w	r3, r7, #16
 8000a60:	22c4      	movs	r2, #196	; 0xc4
 8000a62:	2100      	movs	r1, #0
 8000a64:	4618      	mov	r0, r3
 8000a66:	f003 f9e1 	bl	8003e2c <memset>
		sprintf(GivenTime, "\r\nGiven hour: %d | Given minutes: %d | Given seconds: %d\r\n", uur_int, minuten_int, seconden_int);
 8000a6a:	4b0d      	ldr	r3, [pc, #52]	; (8000aa0 <CheckDateAndTime+0x338>)
 8000a6c:	681a      	ldr	r2, [r3, #0]
 8000a6e:	4b0d      	ldr	r3, [pc, #52]	; (8000aa4 <CheckDateAndTime+0x33c>)
 8000a70:	6819      	ldr	r1, [r3, #0]
 8000a72:	4b0d      	ldr	r3, [pc, #52]	; (8000aa8 <CheckDateAndTime+0x340>)
 8000a74:	681b      	ldr	r3, [r3, #0]
 8000a76:	f107 000c 	add.w	r0, r7, #12
 8000a7a:	9300      	str	r3, [sp, #0]
 8000a7c:	460b      	mov	r3, r1
 8000a7e:	490b      	ldr	r1, [pc, #44]	; (8000aac <CheckDateAndTime+0x344>)
 8000a80:	f003 f9dc 	bl	8003e3c <siprintf>
		HAL_UART_Transmit(&huart2, GivenTime, sizeof(GivenTime), Timeout);
 8000a84:	4b0a      	ldr	r3, [pc, #40]	; (8000ab0 <CheckDateAndTime+0x348>)
 8000a86:	681b      	ldr	r3, [r3, #0]
 8000a88:	f107 010c 	add.w	r1, r7, #12
 8000a8c:	22c8      	movs	r2, #200	; 0xc8
 8000a8e:	4809      	ldr	r0, [pc, #36]	; (8000ab4 <CheckDateAndTime+0x34c>)
 8000a90:	f002 fc9b 	bl	80033ca <HAL_UART_Transmit>
		return true;
 8000a94:	2301      	movs	r3, #1
	}
}
 8000a96:	4618      	mov	r0, r3
 8000a98:	37d8      	adds	r7, #216	; 0xd8
 8000a9a:	46bd      	mov	sp, r7
 8000a9c:	bdb0      	pop	{r4, r5, r7, pc}
 8000a9e:	bf00      	nop
 8000aa0:	200000bc 	.word	0x200000bc
 8000aa4:	2000018c 	.word	0x2000018c
 8000aa8:	20000120 	.word	0x20000120
 8000aac:	08005350 	.word	0x08005350
 8000ab0:	20000000 	.word	0x20000000
 8000ab4:	20000140 	.word	0x20000140

08000ab8 <function_fm>:

/*
 * Calculate the month with the given date
 * return the month
 */
int function_fm(int date, int month, int year) {
 8000ab8:	b480      	push	{r7}
 8000aba:	b087      	sub	sp, #28
 8000abc:	af00      	add	r7, sp, #0
 8000abe:	60f8      	str	r0, [r7, #12]
 8000ac0:	60b9      	str	r1, [r7, #8]
 8000ac2:	607a      	str	r2, [r7, #4]
   int fmonth, leap;

   //leap function 1 for leap & 0 for non-leap
   if ((year % 100 == 0) && (year % 400 != 0))
 8000ac4:	687a      	ldr	r2, [r7, #4]
 8000ac6:	4b2b      	ldr	r3, [pc, #172]	; (8000b74 <function_fm+0xbc>)
 8000ac8:	fb83 1302 	smull	r1, r3, r3, r2
 8000acc:	1159      	asrs	r1, r3, #5
 8000ace:	17d3      	asrs	r3, r2, #31
 8000ad0:	1acb      	subs	r3, r1, r3
 8000ad2:	2164      	movs	r1, #100	; 0x64
 8000ad4:	fb01 f303 	mul.w	r3, r1, r3
 8000ad8:	1ad3      	subs	r3, r2, r3
 8000ada:	2b00      	cmp	r3, #0
 8000adc:	d110      	bne.n	8000b00 <function_fm+0x48>
 8000ade:	687a      	ldr	r2, [r7, #4]
 8000ae0:	4b24      	ldr	r3, [pc, #144]	; (8000b74 <function_fm+0xbc>)
 8000ae2:	fb83 1302 	smull	r1, r3, r3, r2
 8000ae6:	11d9      	asrs	r1, r3, #7
 8000ae8:	17d3      	asrs	r3, r2, #31
 8000aea:	1acb      	subs	r3, r1, r3
 8000aec:	f44f 71c8 	mov.w	r1, #400	; 0x190
 8000af0:	fb01 f303 	mul.w	r3, r1, r3
 8000af4:	1ad3      	subs	r3, r2, r3
 8000af6:	2b00      	cmp	r3, #0
 8000af8:	d002      	beq.n	8000b00 <function_fm+0x48>
      leap = 0;
 8000afa:	2300      	movs	r3, #0
 8000afc:	617b      	str	r3, [r7, #20]
 8000afe:	e009      	b.n	8000b14 <function_fm+0x5c>
   else if (year % 4 == 0)
 8000b00:	687b      	ldr	r3, [r7, #4]
 8000b02:	f003 0303 	and.w	r3, r3, #3
 8000b06:	2b00      	cmp	r3, #0
 8000b08:	d102      	bne.n	8000b10 <function_fm+0x58>
      leap = 1;
 8000b0a:	2301      	movs	r3, #1
 8000b0c:	617b      	str	r3, [r7, #20]
 8000b0e:	e001      	b.n	8000b14 <function_fm+0x5c>
   else
      leap = 0;
 8000b10:	2300      	movs	r3, #0
 8000b12:	617b      	str	r3, [r7, #20]

   fmonth = 3 + (2 - leap) * ((month + 2) / (2 * month))
 8000b14:	697b      	ldr	r3, [r7, #20]
 8000b16:	f1c3 0302 	rsb	r3, r3, #2
 8000b1a:	68ba      	ldr	r2, [r7, #8]
 8000b1c:	1c91      	adds	r1, r2, #2
 8000b1e:	68ba      	ldr	r2, [r7, #8]
 8000b20:	0052      	lsls	r2, r2, #1
 8000b22:	fb91 f2f2 	sdiv	r2, r1, r2
 8000b26:	fb02 f303 	mul.w	r3, r2, r3
 8000b2a:	1cd9      	adds	r1, r3, #3
         + (5 * month + month / 9) / 2;
 8000b2c:	68ba      	ldr	r2, [r7, #8]
 8000b2e:	4613      	mov	r3, r2
 8000b30:	009b      	lsls	r3, r3, #2
 8000b32:	441a      	add	r2, r3
 8000b34:	68bb      	ldr	r3, [r7, #8]
 8000b36:	4810      	ldr	r0, [pc, #64]	; (8000b78 <function_fm+0xc0>)
 8000b38:	fb80 c003 	smull	ip, r0, r0, r3
 8000b3c:	1040      	asrs	r0, r0, #1
 8000b3e:	17db      	asrs	r3, r3, #31
 8000b40:	1ac3      	subs	r3, r0, r3
 8000b42:	4413      	add	r3, r2
 8000b44:	0fda      	lsrs	r2, r3, #31
 8000b46:	4413      	add	r3, r2
 8000b48:	105b      	asrs	r3, r3, #1
   fmonth = 3 + (2 - leap) * ((month + 2) / (2 * month))
 8000b4a:	440b      	add	r3, r1
 8000b4c:	613b      	str	r3, [r7, #16]

   //bring it in range of 0 to 6
   fmonth = fmonth % 7;
 8000b4e:	693a      	ldr	r2, [r7, #16]
 8000b50:	4b0a      	ldr	r3, [pc, #40]	; (8000b7c <function_fm+0xc4>)
 8000b52:	fb83 1302 	smull	r1, r3, r3, r2
 8000b56:	4413      	add	r3, r2
 8000b58:	1099      	asrs	r1, r3, #2
 8000b5a:	17d3      	asrs	r3, r2, #31
 8000b5c:	1ac9      	subs	r1, r1, r3
 8000b5e:	460b      	mov	r3, r1
 8000b60:	00db      	lsls	r3, r3, #3
 8000b62:	1a5b      	subs	r3, r3, r1
 8000b64:	1ad3      	subs	r3, r2, r3
 8000b66:	613b      	str	r3, [r7, #16]

   return fmonth;
 8000b68:	693b      	ldr	r3, [r7, #16]
}
 8000b6a:	4618      	mov	r0, r3
 8000b6c:	371c      	adds	r7, #28
 8000b6e:	46bd      	mov	sp, r7
 8000b70:	bc80      	pop	{r7}
 8000b72:	4770      	bx	lr
 8000b74:	51eb851f 	.word	0x51eb851f
 8000b78:	38e38e39 	.word	0x38e38e39
 8000b7c:	92492493 	.word	0x92492493

08000b80 <day_of_week>:
/*
 * Calculate the date with the given data
 * Display the date via UART to the user
 * return 0
 */
int day_of_week(int date, int month, int year) {
 8000b80:	b5b0      	push	{r4, r5, r7, lr}
 8000b82:	b08e      	sub	sp, #56	; 0x38
 8000b84:	af02      	add	r7, sp, #8
 8000b86:	60f8      	str	r0, [r7, #12]
 8000b88:	60b9      	str	r1, [r7, #8]
 8000b8a:	607a      	str	r2, [r7, #4]

   int dayOfWeek;
   int YY = year % 100;
 8000b8c:	687b      	ldr	r3, [r7, #4]
 8000b8e:	4a42      	ldr	r2, [pc, #264]	; (8000c98 <day_of_week+0x118>)
 8000b90:	fb82 1203 	smull	r1, r2, r2, r3
 8000b94:	1151      	asrs	r1, r2, #5
 8000b96:	17da      	asrs	r2, r3, #31
 8000b98:	1a8a      	subs	r2, r1, r2
 8000b9a:	2164      	movs	r1, #100	; 0x64
 8000b9c:	fb01 f202 	mul.w	r2, r1, r2
 8000ba0:	1a9b      	subs	r3, r3, r2
 8000ba2:	62fb      	str	r3, [r7, #44]	; 0x2c
   int century = year / 100;
 8000ba4:	687b      	ldr	r3, [r7, #4]
 8000ba6:	4a3c      	ldr	r2, [pc, #240]	; (8000c98 <day_of_week+0x118>)
 8000ba8:	fb82 1203 	smull	r1, r2, r2, r3
 8000bac:	1152      	asrs	r2, r2, #5
 8000bae:	17db      	asrs	r3, r3, #31
 8000bb0:	1ad3      	subs	r3, r2, r3
 8000bb2:	62bb      	str	r3, [r7, #40]	; 0x28

   uint8_t GivenDate[20] = {0};
 8000bb4:	2300      	movs	r3, #0
 8000bb6:	613b      	str	r3, [r7, #16]
 8000bb8:	f107 0314 	add.w	r3, r7, #20
 8000bbc:	2200      	movs	r2, #0
 8000bbe:	601a      	str	r2, [r3, #0]
 8000bc0:	605a      	str	r2, [r3, #4]
 8000bc2:	609a      	str	r2, [r3, #8]
 8000bc4:	60da      	str	r2, [r3, #12]
   sprintf(GivenDate, "Given date: %d/%d/%d \r\n", date, month, year);
 8000bc6:	f107 0010 	add.w	r0, r7, #16
 8000bca:	687b      	ldr	r3, [r7, #4]
 8000bcc:	9300      	str	r3, [sp, #0]
 8000bce:	68bb      	ldr	r3, [r7, #8]
 8000bd0:	68fa      	ldr	r2, [r7, #12]
 8000bd2:	4932      	ldr	r1, [pc, #200]	; (8000c9c <day_of_week+0x11c>)
 8000bd4:	f003 f932 	bl	8003e3c <siprintf>
   HAL_UART_Transmit(&huart2, GivenDate, sizeof(GivenDate), Timeout);
 8000bd8:	4b31      	ldr	r3, [pc, #196]	; (8000ca0 <day_of_week+0x120>)
 8000bda:	681b      	ldr	r3, [r3, #0]
 8000bdc:	f107 0110 	add.w	r1, r7, #16
 8000be0:	2214      	movs	r2, #20
 8000be2:	4830      	ldr	r0, [pc, #192]	; (8000ca4 <day_of_week+0x124>)
 8000be4:	f002 fbf1 	bl	80033ca <HAL_UART_Transmit>

   dayOfWeek = 1.25 * YY + function_fm(date, month, year) + date - 2 * (century % 4);
 8000be8:	6af8      	ldr	r0, [r7, #44]	; 0x2c
 8000bea:	f7ff fd2b 	bl	8000644 <__aeabi_i2d>
 8000bee:	f04f 0200 	mov.w	r2, #0
 8000bf2:	4b2d      	ldr	r3, [pc, #180]	; (8000ca8 <day_of_week+0x128>)
 8000bf4:	f7ff faaa 	bl	800014c <__aeabi_dmul>
 8000bf8:	4602      	mov	r2, r0
 8000bfa:	460b      	mov	r3, r1
 8000bfc:	4614      	mov	r4, r2
 8000bfe:	461d      	mov	r5, r3
 8000c00:	687a      	ldr	r2, [r7, #4]
 8000c02:	68b9      	ldr	r1, [r7, #8]
 8000c04:	68f8      	ldr	r0, [r7, #12]
 8000c06:	f7ff ff57 	bl	8000ab8 <function_fm>
 8000c0a:	4603      	mov	r3, r0
 8000c0c:	4618      	mov	r0, r3
 8000c0e:	f7ff fd19 	bl	8000644 <__aeabi_i2d>
 8000c12:	4602      	mov	r2, r0
 8000c14:	460b      	mov	r3, r1
 8000c16:	4620      	mov	r0, r4
 8000c18:	4629      	mov	r1, r5
 8000c1a:	f7ff fbc7 	bl	80003ac <__adddf3>
 8000c1e:	4602      	mov	r2, r0
 8000c20:	460b      	mov	r3, r1
 8000c22:	4614      	mov	r4, r2
 8000c24:	461d      	mov	r5, r3
 8000c26:	68f8      	ldr	r0, [r7, #12]
 8000c28:	f7ff fd0c 	bl	8000644 <__aeabi_i2d>
 8000c2c:	4602      	mov	r2, r0
 8000c2e:	460b      	mov	r3, r1
 8000c30:	4620      	mov	r0, r4
 8000c32:	4629      	mov	r1, r5
 8000c34:	f7ff fbba 	bl	80003ac <__adddf3>
 8000c38:	4602      	mov	r2, r0
 8000c3a:	460b      	mov	r3, r1
 8000c3c:	4614      	mov	r4, r2
 8000c3e:	461d      	mov	r5, r3
 8000c40:	6abb      	ldr	r3, [r7, #40]	; 0x28
 8000c42:	425a      	negs	r2, r3
 8000c44:	f003 0303 	and.w	r3, r3, #3
 8000c48:	f002 0203 	and.w	r2, r2, #3
 8000c4c:	bf58      	it	pl
 8000c4e:	4253      	negpl	r3, r2
 8000c50:	005b      	lsls	r3, r3, #1
 8000c52:	4618      	mov	r0, r3
 8000c54:	f7ff fcf6 	bl	8000644 <__aeabi_i2d>
 8000c58:	4602      	mov	r2, r0
 8000c5a:	460b      	mov	r3, r1
 8000c5c:	4620      	mov	r0, r4
 8000c5e:	4629      	mov	r1, r5
 8000c60:	f7ff fba2 	bl	80003a8 <__aeabi_dsub>
 8000c64:	4602      	mov	r2, r0
 8000c66:	460b      	mov	r3, r1
 8000c68:	4610      	mov	r0, r2
 8000c6a:	4619      	mov	r1, r3
 8000c6c:	f7ff fd54 	bl	8000718 <__aeabi_d2iz>
 8000c70:	4603      	mov	r3, r0
 8000c72:	627b      	str	r3, [r7, #36]	; 0x24

   //remainder on division by 7
   dayOfWeek = dayOfWeek % 7;
 8000c74:	6a7a      	ldr	r2, [r7, #36]	; 0x24
 8000c76:	4b0d      	ldr	r3, [pc, #52]	; (8000cac <day_of_week+0x12c>)
 8000c78:	fb83 1302 	smull	r1, r3, r3, r2
 8000c7c:	4413      	add	r3, r2
 8000c7e:	1099      	asrs	r1, r3, #2
 8000c80:	17d3      	asrs	r3, r2, #31
 8000c82:	1ac9      	subs	r1, r1, r3
 8000c84:	460b      	mov	r3, r1
 8000c86:	00db      	lsls	r3, r3, #3
 8000c88:	1a5b      	subs	r3, r3, r1
 8000c8a:	1ad3      	subs	r3, r2, r3
 8000c8c:	627b      	str	r3, [r7, #36]	; 0x24
//         printf("weekday = Friday");
//         break;
//      default:
//         printf("Incorrect data");
//   }
   return 0;
 8000c8e:	2300      	movs	r3, #0
}
 8000c90:	4618      	mov	r0, r3
 8000c92:	3730      	adds	r7, #48	; 0x30
 8000c94:	46bd      	mov	sp, r7
 8000c96:	bdb0      	pop	{r4, r5, r7, pc}
 8000c98:	51eb851f 	.word	0x51eb851f
 8000c9c:	08005484 	.word	0x08005484
 8000ca0:	20000000 	.word	0x20000000
 8000ca4:	20000140 	.word	0x20000140
 8000ca8:	3ff40000 	.word	0x3ff40000
 8000cac:	92492493 	.word	0x92492493

08000cb0 <GetTimeFromUart>:

/*
 * Function to get time
 * return true or false
 */
bool GetTimeFromUart(){
 8000cb0:	b5b0      	push	{r4, r5, r7, lr}
 8000cb2:	b094      	sub	sp, #80	; 0x50
 8000cb4:	af00      	add	r7, sp, #0
	bool TimeandDate; // check is time and date are valid
	HAL_UART_Receive_IT(&huart2, &RX1_Char, 1); // check constant if interrupt occured
 8000cb6:	2201      	movs	r2, #1
 8000cb8:	4950      	ldr	r1, [pc, #320]	; (8000dfc <GetTimeFromUart+0x14c>)
 8000cba:	4851      	ldr	r0, [pc, #324]	; (8000e00 <GetTimeFromUart+0x150>)
 8000cbc:	f002 fc17 	bl	80034ee <HAL_UART_Receive_IT>
	if(RX1_Char != 0x00){ // if rx1_char buffer is not empty, a character is received from uart
 8000cc0:	4b4e      	ldr	r3, [pc, #312]	; (8000dfc <GetTimeFromUart+0x14c>)
 8000cc2:	781b      	ldrb	r3, [r3, #0]
 8000cc4:	2b00      	cmp	r3, #0
 8000cc6:	f000 8094 	beq.w	8000df2 <GetTimeFromUart+0x142>
		while(RX1_Char != 0){
 8000cca:	e08a      	b.n	8000de2 <GetTimeFromUart+0x132>
			GetTimeAndDateBuf[a++] = RX1_Char; // put this character in buffer
 8000ccc:	4b4d      	ldr	r3, [pc, #308]	; (8000e04 <GetTimeFromUart+0x154>)
 8000cce:	681b      	ldr	r3, [r3, #0]
 8000cd0:	1c5a      	adds	r2, r3, #1
 8000cd2:	494c      	ldr	r1, [pc, #304]	; (8000e04 <GetTimeFromUart+0x154>)
 8000cd4:	600a      	str	r2, [r1, #0]
 8000cd6:	4a49      	ldr	r2, [pc, #292]	; (8000dfc <GetTimeFromUart+0x14c>)
 8000cd8:	7811      	ldrb	r1, [r2, #0]
 8000cda:	4a4b      	ldr	r2, [pc, #300]	; (8000e08 <GetTimeFromUart+0x158>)
 8000cdc:	54d1      	strb	r1, [r2, r3]
			HAL_UART_Transmit(&huart2, &RX1_Char, sizeof(RX1_Char), Timeout); // echo the given character to the user
 8000cde:	4b4b      	ldr	r3, [pc, #300]	; (8000e0c <GetTimeFromUart+0x15c>)
 8000ce0:	681b      	ldr	r3, [r3, #0]
 8000ce2:	2201      	movs	r2, #1
 8000ce4:	4945      	ldr	r1, [pc, #276]	; (8000dfc <GetTimeFromUart+0x14c>)
 8000ce6:	4846      	ldr	r0, [pc, #280]	; (8000e00 <GetTimeFromUart+0x150>)
 8000ce8:	f002 fb6f 	bl	80033ca <HAL_UART_Transmit>
			if(RX1_Char == 13){ // if enter is pressed in uart
 8000cec:	4b43      	ldr	r3, [pc, #268]	; (8000dfc <GetTimeFromUart+0x14c>)
 8000cee:	781b      	ldrb	r3, [r3, #0]
 8000cf0:	2b0d      	cmp	r3, #13
 8000cf2:	d173      	bne.n	8000ddc <GetTimeFromUart+0x12c>
			  TimeandDate = CheckDateAndTime(GetTimeAndDateBuf); // check the given data
 8000cf4:	4844      	ldr	r0, [pc, #272]	; (8000e08 <GetTimeFromUart+0x158>)
 8000cf6:	f7ff fd37 	bl	8000768 <CheckDateAndTime>
 8000cfa:	4603      	mov	r3, r0
 8000cfc:	f887 304f 	strb.w	r3, [r7, #79]	; 0x4f
			  uint8_t enter[] = "\r\n"; // put enter in uart
 8000d00:	4a43      	ldr	r2, [pc, #268]	; (8000e10 <GetTimeFromUart+0x160>)
 8000d02:	f107 034c 	add.w	r3, r7, #76	; 0x4c
 8000d06:	6812      	ldr	r2, [r2, #0]
 8000d08:	4611      	mov	r1, r2
 8000d0a:	8019      	strh	r1, [r3, #0]
 8000d0c:	3302      	adds	r3, #2
 8000d0e:	0c12      	lsrs	r2, r2, #16
 8000d10:	701a      	strb	r2, [r3, #0]
			  HAL_UART_Transmit(&huart2, enter, sizeof(enter), Timeout);
 8000d12:	4b3e      	ldr	r3, [pc, #248]	; (8000e0c <GetTimeFromUart+0x15c>)
 8000d14:	681b      	ldr	r3, [r3, #0]
 8000d16:	f107 014c 	add.w	r1, r7, #76	; 0x4c
 8000d1a:	2203      	movs	r2, #3
 8000d1c:	4838      	ldr	r0, [pc, #224]	; (8000e00 <GetTimeFromUart+0x150>)
 8000d1e:	f002 fb54 	bl	80033ca <HAL_UART_Transmit>
			  a=0; // reset the position in GetTimeAndDateBuf
 8000d22:	4b38      	ldr	r3, [pc, #224]	; (8000e04 <GetTimeFromUart+0x154>)
 8000d24:	2200      	movs	r2, #0
 8000d26:	601a      	str	r2, [r3, #0]
			  if(TimeandDate == true){ // if the given data is valid
 8000d28:	f897 304f 	ldrb.w	r3, [r7, #79]	; 0x4f
 8000d2c:	2b00      	cmp	r3, #0
 8000d2e:	d03e      	beq.n	8000dae <GetTimeFromUart+0xfe>
				  uint8_t valid[] = "Much obliged your time!\r\n";
 8000d30:	4b38      	ldr	r3, [pc, #224]	; (8000e14 <GetTimeFromUart+0x164>)
 8000d32:	f107 0430 	add.w	r4, r7, #48	; 0x30
 8000d36:	461d      	mov	r5, r3
 8000d38:	cd0f      	ldmia	r5!, {r0, r1, r2, r3}
 8000d3a:	c40f      	stmia	r4!, {r0, r1, r2, r3}
 8000d3c:	e895 0007 	ldmia.w	r5, {r0, r1, r2}
 8000d40:	c403      	stmia	r4!, {r0, r1}
 8000d42:	8022      	strh	r2, [r4, #0]
				  HAL_UART_Transmit(&huart2, valid, sizeof(valid), Timeout);
 8000d44:	4b31      	ldr	r3, [pc, #196]	; (8000e0c <GetTimeFromUart+0x15c>)
 8000d46:	681b      	ldr	r3, [r3, #0]
 8000d48:	f107 0130 	add.w	r1, r7, #48	; 0x30
 8000d4c:	221a      	movs	r2, #26
 8000d4e:	482c      	ldr	r0, [pc, #176]	; (8000e00 <GetTimeFromUart+0x150>)
 8000d50:	f002 fb3b 	bl	80033ca <HAL_UART_Transmit>
				  RX1_Char = 0x00;
 8000d54:	4b29      	ldr	r3, [pc, #164]	; (8000dfc <GetTimeFromUart+0x14c>)
 8000d56:	2200      	movs	r2, #0
 8000d58:	701a      	strb	r2, [r3, #0]

				  RtcTime.Hours = uur_int; // set hour
 8000d5a:	4b2f      	ldr	r3, [pc, #188]	; (8000e18 <GetTimeFromUart+0x168>)
 8000d5c:	681b      	ldr	r3, [r3, #0]
 8000d5e:	b2da      	uxtb	r2, r3
 8000d60:	4b2e      	ldr	r3, [pc, #184]	; (8000e1c <GetTimeFromUart+0x16c>)
 8000d62:	701a      	strb	r2, [r3, #0]
				  RtcTime.Minutes = minuten_int; // set minutes
 8000d64:	4b2e      	ldr	r3, [pc, #184]	; (8000e20 <GetTimeFromUart+0x170>)
 8000d66:	681b      	ldr	r3, [r3, #0]
 8000d68:	b2da      	uxtb	r2, r3
 8000d6a:	4b2c      	ldr	r3, [pc, #176]	; (8000e1c <GetTimeFromUart+0x16c>)
 8000d6c:	705a      	strb	r2, [r3, #1]
				  RtcTime.Seconds = seconden_int; // set seconds
 8000d6e:	4b2d      	ldr	r3, [pc, #180]	; (8000e24 <GetTimeFromUart+0x174>)
 8000d70:	681b      	ldr	r3, [r3, #0]
 8000d72:	b2da      	uxtb	r2, r3
 8000d74:	4b29      	ldr	r3, [pc, #164]	; (8000e1c <GetTimeFromUart+0x16c>)
 8000d76:	709a      	strb	r2, [r3, #2]

				  RtcDate.Date = day_int; // set day
 8000d78:	4b2b      	ldr	r3, [pc, #172]	; (8000e28 <GetTimeFromUart+0x178>)
 8000d7a:	681b      	ldr	r3, [r3, #0]
 8000d7c:	b2da      	uxtb	r2, r3
 8000d7e:	4b2b      	ldr	r3, [pc, #172]	; (8000e2c <GetTimeFromUart+0x17c>)
 8000d80:	709a      	strb	r2, [r3, #2]
				  RtcDate.Month = ((uint8_t)month_int); // set month
 8000d82:	4b2b      	ldr	r3, [pc, #172]	; (8000e30 <GetTimeFromUart+0x180>)
 8000d84:	681b      	ldr	r3, [r3, #0]
 8000d86:	b2da      	uxtb	r2, r3
 8000d88:	4b28      	ldr	r3, [pc, #160]	; (8000e2c <GetTimeFromUart+0x17c>)
 8000d8a:	705a      	strb	r2, [r3, #1]
				  RtcDate.Year = year_int; // set year
 8000d8c:	4b29      	ldr	r3, [pc, #164]	; (8000e34 <GetTimeFromUart+0x184>)
 8000d8e:	681b      	ldr	r3, [r3, #0]
 8000d90:	b2da      	uxtb	r2, r3
 8000d92:	4b26      	ldr	r3, [pc, #152]	; (8000e2c <GetTimeFromUart+0x17c>)
 8000d94:	70da      	strb	r2, [r3, #3]

				  HAL_RTC_SetTime(&hrtc, &RtcTime, RTC_FORMAT_BIN); // set the time with the given hours, minutes and seconds
 8000d96:	2200      	movs	r2, #0
 8000d98:	4920      	ldr	r1, [pc, #128]	; (8000e1c <GetTimeFromUart+0x16c>)
 8000d9a:	4827      	ldr	r0, [pc, #156]	; (8000e38 <GetTimeFromUart+0x188>)
 8000d9c:	f001 fd92 	bl	80028c4 <HAL_RTC_SetTime>
				  HAL_RTC_SetDate(&hrtc, &RtcDate, RTC_FORMAT_BIN); // set the date with the given day, month and year
 8000da0:	2200      	movs	r2, #0
 8000da2:	4922      	ldr	r1, [pc, #136]	; (8000e2c <GetTimeFromUart+0x17c>)
 8000da4:	4824      	ldr	r0, [pc, #144]	; (8000e38 <GetTimeFromUart+0x188>)
 8000da6:	f001 fefd 	bl	8002ba4 <HAL_RTC_SetDate>

				  return true;
 8000daa:	2301      	movs	r3, #1
 8000dac:	e022      	b.n	8000df4 <GetTimeFromUart+0x144>
			  }
			  else{
				  // TimeandDate == false
				  uint8_t validError[] = "Did not got the time or/and date right!\r\n";
 8000dae:	4b23      	ldr	r3, [pc, #140]	; (8000e3c <GetTimeFromUart+0x18c>)
 8000db0:	1d3c      	adds	r4, r7, #4
 8000db2:	461d      	mov	r5, r3
 8000db4:	cd0f      	ldmia	r5!, {r0, r1, r2, r3}
 8000db6:	c40f      	stmia	r4!, {r0, r1, r2, r3}
 8000db8:	cd0f      	ldmia	r5!, {r0, r1, r2, r3}
 8000dba:	c40f      	stmia	r4!, {r0, r1, r2, r3}
 8000dbc:	e895 0007 	ldmia.w	r5, {r0, r1, r2}
 8000dc0:	c403      	stmia	r4!, {r0, r1}
 8000dc2:	8022      	strh	r2, [r4, #0]
				  HAL_UART_Transmit(&huart2, validError, sizeof(validError), Timeout);
 8000dc4:	4b11      	ldr	r3, [pc, #68]	; (8000e0c <GetTimeFromUart+0x15c>)
 8000dc6:	681b      	ldr	r3, [r3, #0]
 8000dc8:	1d39      	adds	r1, r7, #4
 8000dca:	222a      	movs	r2, #42	; 0x2a
 8000dcc:	480c      	ldr	r0, [pc, #48]	; (8000e00 <GetTimeFromUart+0x150>)
 8000dce:	f002 fafc 	bl	80033ca <HAL_UART_Transmit>
				  RX1_Char = 0x00;
 8000dd2:	4b0a      	ldr	r3, [pc, #40]	; (8000dfc <GetTimeFromUart+0x14c>)
 8000dd4:	2200      	movs	r2, #0
 8000dd6:	701a      	strb	r2, [r3, #0]
				  return false;
 8000dd8:	2300      	movs	r3, #0
 8000dda:	e00b      	b.n	8000df4 <GetTimeFromUart+0x144>
			  }
			}

			RX1_Char = 0x00;
 8000ddc:	4b07      	ldr	r3, [pc, #28]	; (8000dfc <GetTimeFromUart+0x14c>)
 8000dde:	2200      	movs	r2, #0
 8000de0:	701a      	strb	r2, [r3, #0]
		while(RX1_Char != 0){
 8000de2:	4b06      	ldr	r3, [pc, #24]	; (8000dfc <GetTimeFromUart+0x14c>)
 8000de4:	781b      	ldrb	r3, [r3, #0]
 8000de6:	2b00      	cmp	r3, #0
 8000de8:	f47f af70 	bne.w	8000ccc <GetTimeFromUart+0x1c>
		}
	  RX1_Char = 0x00; // reset the received character
 8000dec:	4b03      	ldr	r3, [pc, #12]	; (8000dfc <GetTimeFromUart+0x14c>)
 8000dee:	2200      	movs	r2, #0
 8000df0:	701a      	strb	r2, [r3, #0]
	}
	return false;
 8000df2:	2300      	movs	r3, #0
}
 8000df4:	4618      	mov	r0, r3
 8000df6:	3750      	adds	r7, #80	; 0x50
 8000df8:	46bd      	mov	sp, r7
 8000dfa:	bdb0      	pop	{r4, r5, r7, pc}
 8000dfc:	20000090 	.word	0x20000090
 8000e00:	20000140 	.word	0x20000140
 8000e04:	200000a8 	.word	0x200000a8
 8000e08:	20000094 	.word	0x20000094
 8000e0c:	20000000 	.word	0x20000000
 8000e10:	0800549c 	.word	0x0800549c
 8000e14:	080054a0 	.word	0x080054a0
 8000e18:	200000bc 	.word	0x200000bc
 8000e1c:	200000c4 	.word	0x200000c4
 8000e20:	2000018c 	.word	0x2000018c
 8000e24:	20000120 	.word	0x20000120
 8000e28:	200000c0 	.word	0x200000c0
 8000e2c:	20000184 	.word	0x20000184
 8000e30:	200000b8 	.word	0x200000b8
 8000e34:	2000011c 	.word	0x2000011c
 8000e38:	20000108 	.word	0x20000108
 8000e3c:	080054bc 	.word	0x080054bc

08000e40 <CalibrateTimeAndDate>:

/*
 * Function to calibrate time and date
 * return none
 */
void CalibrateTimeAndDate(){
 8000e40:	b5b0      	push	{r4, r5, r7, lr}
 8000e42:	b084      	sub	sp, #16
 8000e44:	af04      	add	r7, sp, #16

	HAL_RTC_GetTime(&hrtc, &RtcTime, RTC_FORMAT_BIN);
 8000e46:	2200      	movs	r2, #0
 8000e48:	4921      	ldr	r1, [pc, #132]	; (8000ed0 <CalibrateTimeAndDate+0x90>)
 8000e4a:	4822      	ldr	r0, [pc, #136]	; (8000ed4 <CalibrateTimeAndDate+0x94>)
 8000e4c:	f001 fdd2 	bl	80029f4 <HAL_RTC_GetTime>
	HAL_RTC_GetDate(&hrtc, &RtcDate, RTC_FORMAT_BIN);
 8000e50:	2200      	movs	r2, #0
 8000e52:	4921      	ldr	r1, [pc, #132]	; (8000ed8 <CalibrateTimeAndDate+0x98>)
 8000e54:	481f      	ldr	r0, [pc, #124]	; (8000ed4 <CalibrateTimeAndDate+0x94>)
 8000e56:	f001 ff5b 	bl	8002d10 <HAL_RTC_GetDate>

	if(RtcTime.Seconds != CompareSeconds)
 8000e5a:	4b1d      	ldr	r3, [pc, #116]	; (8000ed0 <CalibrateTimeAndDate+0x90>)
 8000e5c:	789a      	ldrb	r2, [r3, #2]
 8000e5e:	4b1f      	ldr	r3, [pc, #124]	; (8000edc <CalibrateTimeAndDate+0x9c>)
 8000e60:	781b      	ldrb	r3, [r3, #0]
 8000e62:	429a      	cmp	r2, r3
 8000e64:	d024      	beq.n	8000eb0 <CalibrateTimeAndDate+0x70>
	{
	  sprintf((char*)TimeAndDate, "Date: %02d.%02d.20%02d Time: %02d:%02d:%02d\n\r", RtcDate.Date, RtcDate.Month, RtcDate.Year, RtcTime.Hours, RtcTime.Minutes, RtcTime.Seconds);
 8000e66:	4b1c      	ldr	r3, [pc, #112]	; (8000ed8 <CalibrateTimeAndDate+0x98>)
 8000e68:	789b      	ldrb	r3, [r3, #2]
 8000e6a:	461c      	mov	r4, r3
 8000e6c:	4b1a      	ldr	r3, [pc, #104]	; (8000ed8 <CalibrateTimeAndDate+0x98>)
 8000e6e:	785b      	ldrb	r3, [r3, #1]
 8000e70:	461d      	mov	r5, r3
 8000e72:	4b19      	ldr	r3, [pc, #100]	; (8000ed8 <CalibrateTimeAndDate+0x98>)
 8000e74:	78db      	ldrb	r3, [r3, #3]
 8000e76:	461a      	mov	r2, r3
 8000e78:	4b15      	ldr	r3, [pc, #84]	; (8000ed0 <CalibrateTimeAndDate+0x90>)
 8000e7a:	781b      	ldrb	r3, [r3, #0]
 8000e7c:	4619      	mov	r1, r3
 8000e7e:	4b14      	ldr	r3, [pc, #80]	; (8000ed0 <CalibrateTimeAndDate+0x90>)
 8000e80:	785b      	ldrb	r3, [r3, #1]
 8000e82:	4618      	mov	r0, r3
 8000e84:	4b12      	ldr	r3, [pc, #72]	; (8000ed0 <CalibrateTimeAndDate+0x90>)
 8000e86:	789b      	ldrb	r3, [r3, #2]
 8000e88:	9303      	str	r3, [sp, #12]
 8000e8a:	9002      	str	r0, [sp, #8]
 8000e8c:	9101      	str	r1, [sp, #4]
 8000e8e:	9200      	str	r2, [sp, #0]
 8000e90:	462b      	mov	r3, r5
 8000e92:	4622      	mov	r2, r4
 8000e94:	4912      	ldr	r1, [pc, #72]	; (8000ee0 <CalibrateTimeAndDate+0xa0>)
 8000e96:	4813      	ldr	r0, [pc, #76]	; (8000ee4 <CalibrateTimeAndDate+0xa4>)
 8000e98:	f002 ffd0 	bl	8003e3c <siprintf>
	  HAL_UART_Transmit(&huart2, TimeAndDate, sizeof(TimeAndDate), 100);
 8000e9c:	2364      	movs	r3, #100	; 0x64
 8000e9e:	2240      	movs	r2, #64	; 0x40
 8000ea0:	4910      	ldr	r1, [pc, #64]	; (8000ee4 <CalibrateTimeAndDate+0xa4>)
 8000ea2:	4811      	ldr	r0, [pc, #68]	; (8000ee8 <CalibrateTimeAndDate+0xa8>)
 8000ea4:	f002 fa91 	bl	80033ca <HAL_UART_Transmit>
	  CompareSeconds = RtcTime.Seconds;
 8000ea8:	4b09      	ldr	r3, [pc, #36]	; (8000ed0 <CalibrateTimeAndDate+0x90>)
 8000eaa:	789a      	ldrb	r2, [r3, #2]
 8000eac:	4b0b      	ldr	r3, [pc, #44]	; (8000edc <CalibrateTimeAndDate+0x9c>)
 8000eae:	701a      	strb	r2, [r3, #0]
	}
	if(RtcDate.Date != CompareDate)
 8000eb0:	4b09      	ldr	r3, [pc, #36]	; (8000ed8 <CalibrateTimeAndDate+0x98>)
 8000eb2:	789a      	ldrb	r2, [r3, #2]
 8000eb4:	4b0d      	ldr	r3, [pc, #52]	; (8000eec <CalibrateTimeAndDate+0xac>)
 8000eb6:	781b      	ldrb	r3, [r3, #0]
 8000eb8:	429a      	cmp	r2, r3
 8000eba:	d005      	beq.n	8000ec8 <CalibrateTimeAndDate+0x88>
	{
	  BackupDateToBR();
 8000ebc:	f000 f818 	bl	8000ef0 <BackupDateToBR>
	  CompareDate = RtcDate.Date;
 8000ec0:	4b05      	ldr	r3, [pc, #20]	; (8000ed8 <CalibrateTimeAndDate+0x98>)
 8000ec2:	789a      	ldrb	r2, [r3, #2]
 8000ec4:	4b09      	ldr	r3, [pc, #36]	; (8000eec <CalibrateTimeAndDate+0xac>)
 8000ec6:	701a      	strb	r2, [r3, #0]
	}
}
 8000ec8:	bf00      	nop
 8000eca:	46bd      	mov	sp, r7
 8000ecc:	bdb0      	pop	{r4, r5, r7, pc}
 8000ece:	bf00      	nop
 8000ed0:	200000c4 	.word	0x200000c4
 8000ed4:	20000108 	.word	0x20000108
 8000ed8:	20000184 	.word	0x20000184
 8000edc:	20000188 	.word	0x20000188
 8000ee0:	080054e8 	.word	0x080054e8
 8000ee4:	200000c8 	.word	0x200000c8
 8000ee8:	20000140 	.word	0x20000140
 8000eec:	20000124 	.word	0x20000124

08000ef0 <BackupDateToBR>:

/*
 *
 */
void BackupDateToBR(void)
{
 8000ef0:	b580      	push	{r7, lr}
 8000ef2:	af00      	add	r7, sp, #0
	HAL_RTCEx_BKUPWrite(&hrtc, RTC_BKP_DR2, ((RtcDate.Date << 8) | (RtcDate.Month)));
 8000ef4:	4b0b      	ldr	r3, [pc, #44]	; (8000f24 <BackupDateToBR+0x34>)
 8000ef6:	789b      	ldrb	r3, [r3, #2]
 8000ef8:	021b      	lsls	r3, r3, #8
 8000efa:	4a0a      	ldr	r2, [pc, #40]	; (8000f24 <BackupDateToBR+0x34>)
 8000efc:	7852      	ldrb	r2, [r2, #1]
 8000efe:	4313      	orrs	r3, r2
 8000f00:	461a      	mov	r2, r3
 8000f02:	2102      	movs	r1, #2
 8000f04:	4808      	ldr	r0, [pc, #32]	; (8000f28 <BackupDateToBR+0x38>)
 8000f06:	f002 f9f9 	bl	80032fc <HAL_RTCEx_BKUPWrite>
	HAL_RTCEx_BKUPWrite(&hrtc, RTC_BKP_DR3, ((RtcDate.Year << 8) | (RtcDate.WeekDay)));
 8000f0a:	4b06      	ldr	r3, [pc, #24]	; (8000f24 <BackupDateToBR+0x34>)
 8000f0c:	78db      	ldrb	r3, [r3, #3]
 8000f0e:	021b      	lsls	r3, r3, #8
 8000f10:	4a04      	ldr	r2, [pc, #16]	; (8000f24 <BackupDateToBR+0x34>)
 8000f12:	7812      	ldrb	r2, [r2, #0]
 8000f14:	4313      	orrs	r3, r2
 8000f16:	461a      	mov	r2, r3
 8000f18:	2103      	movs	r1, #3
 8000f1a:	4803      	ldr	r0, [pc, #12]	; (8000f28 <BackupDateToBR+0x38>)
 8000f1c:	f002 f9ee 	bl	80032fc <HAL_RTCEx_BKUPWrite>
}
 8000f20:	bf00      	nop
 8000f22:	bd80      	pop	{r7, pc}
 8000f24:	20000184 	.word	0x20000184
 8000f28:	20000108 	.word	0x20000108

08000f2c <main>:
/**
  * @brief  The application entry point.
  * @retval int
  */
int main(void)
{
 8000f2c:	b580      	push	{r7, lr}
 8000f2e:	b0b4      	sub	sp, #208	; 0xd0
 8000f30:	af00      	add	r7, sp, #0
  /* USER CODE END 1 */

  /* MCU Configuration--------------------------------------------------------*/

  /* Reset of all peripherals, Initializes the Flash interface and the Systick. */
  HAL_Init();
 8000f32:	f000 faf7 	bl	8001524 <HAL_Init>
  /* USER CODE BEGIN Init */

  /* USER CODE END Init */

  /* Configure the system clock */
  SystemClock_Config();
 8000f36:	f000 f83d 	bl	8000fb4 <SystemClock_Config>
  /* USER CODE BEGIN SysInit */

  /* USER CODE END SysInit */

  /* Initialize all configured peripherals */
  MX_GPIO_Init();
 8000f3a:	f000 f903 	bl	8001144 <MX_GPIO_Init>
  MX_USART2_UART_Init();
 8000f3e:	f000 f8d7 	bl	80010f0 <MX_USART2_UART_Init>
  MX_RTC_Init();
 8000f42:	f000 f88b 	bl	800105c <MX_RTC_Init>
  /* USER CODE BEGIN 2 */
  HAL_UART_Receive_IT(&huart2, &RX1_Char, 1);
 8000f46:	2201      	movs	r2, #1
 8000f48:	4916      	ldr	r1, [pc, #88]	; (8000fa4 <main+0x78>)
 8000f4a:	4817      	ldr	r0, [pc, #92]	; (8000fa8 <main+0x7c>)
 8000f4c:	f002 facf 	bl	80034ee <HAL_UART_Receive_IT>
  // Greet the user with instructions
  uint8_t greetings[] = "\r\nGive me 24-hour military time and date in hh:mm:ss:day:month:year\r\nfor example: 11:00:00:23:12:21\r\nwhich indicates time = 11:00:00 and the date is 23 december 2021.\r\nCompleet the input with enter\r\n";
 8000f50:	4a16      	ldr	r2, [pc, #88]	; (8000fac <main+0x80>)
 8000f52:	1d3b      	adds	r3, r7, #4
 8000f54:	4611      	mov	r1, r2
 8000f56:	22c8      	movs	r2, #200	; 0xc8
 8000f58:	4618      	mov	r0, r3
 8000f5a:	f002 ff59 	bl	8003e10 <memcpy>
  HAL_UART_Transmit(&huart2, greetings, sizeof(greetings), Timeout);
 8000f5e:	4b14      	ldr	r3, [pc, #80]	; (8000fb0 <main+0x84>)
 8000f60:	681b      	ldr	r3, [r3, #0]
 8000f62:	1d39      	adds	r1, r7, #4
 8000f64:	22c8      	movs	r2, #200	; 0xc8
 8000f66:	4810      	ldr	r0, [pc, #64]	; (8000fa8 <main+0x7c>)
 8000f68:	f002 fa2f 	bl	80033ca <HAL_UART_Transmit>

  /* Infinite loop */
  /* USER CODE BEGIN WHILE */
  while (1)
  {
	  bool GotTime = false; // check if the input from uart is correct
 8000f6c:	2300      	movs	r3, #0
 8000f6e:	f887 30cf 	strb.w	r3, [r7, #207]	; 0xcf
	  GotTime = GetTimeFromUart(); // return value is between false and true
 8000f72:	f7ff fe9d 	bl	8000cb0 <GetTimeFromUart>
 8000f76:	4603      	mov	r3, r0
 8000f78:	f887 30cf 	strb.w	r3, [r7, #207]	; 0xcf
	  while(GotTime == true){ // if true, stay in the loop while interrupt
 8000f7c:	e00d      	b.n	8000f9a <main+0x6e>
		  HAL_UART_Receive_IT(&huart2, &RX1_Char, 1); // check if interrupt occurred
 8000f7e:	2201      	movs	r2, #1
 8000f80:	4908      	ldr	r1, [pc, #32]	; (8000fa4 <main+0x78>)
 8000f82:	4809      	ldr	r0, [pc, #36]	; (8000fa8 <main+0x7c>)
 8000f84:	f002 fab3 	bl	80034ee <HAL_UART_Receive_IT>
		  if(RX1_Char != 0){ // when interrupt occurred stop the RTC
 8000f88:	4b06      	ldr	r3, [pc, #24]	; (8000fa4 <main+0x78>)
 8000f8a:	781b      	ldrb	r3, [r3, #0]
 8000f8c:	2b00      	cmp	r3, #0
 8000f8e:	d002      	beq.n	8000f96 <main+0x6a>
			  GotTime = false;
 8000f90:	2300      	movs	r3, #0
 8000f92:	f887 30cf 	strb.w	r3, [r7, #207]	; 0xcf
		  }
		  CalibrateTimeAndDate(); // function to calibrate time and date
 8000f96:	f7ff ff53 	bl	8000e40 <CalibrateTimeAndDate>
	  while(GotTime == true){ // if true, stay in the loop while interrupt
 8000f9a:	f897 30cf 	ldrb.w	r3, [r7, #207]	; 0xcf
 8000f9e:	2b00      	cmp	r3, #0
 8000fa0:	d1ed      	bne.n	8000f7e <main+0x52>
  {
 8000fa2:	e7e3      	b.n	8000f6c <main+0x40>
 8000fa4:	20000090 	.word	0x20000090
 8000fa8:	20000140 	.word	0x20000140
 8000fac:	08005518 	.word	0x08005518
 8000fb0:	20000000 	.word	0x20000000

08000fb4 <SystemClock_Config>:
/**
  * @brief System Clock Configuration
  * @retval None
  */
void SystemClock_Config(void)
{
 8000fb4:	b580      	push	{r7, lr}
 8000fb6:	b094      	sub	sp, #80	; 0x50
 8000fb8:	af00      	add	r7, sp, #0
  RCC_OscInitTypeDef RCC_OscInitStruct = {0};
 8000fba:	f107 0328 	add.w	r3, r7, #40	; 0x28
 8000fbe:	2228      	movs	r2, #40	; 0x28
 8000fc0:	2100      	movs	r1, #0
 8000fc2:	4618      	mov	r0, r3
 8000fc4:	f002 ff32 	bl	8003e2c <memset>
  RCC_ClkInitTypeDef RCC_ClkInitStruct = {0};
 8000fc8:	f107 0314 	add.w	r3, r7, #20
 8000fcc:	2200      	movs	r2, #0
 8000fce:	601a      	str	r2, [r3, #0]
 8000fd0:	605a      	str	r2, [r3, #4]
 8000fd2:	609a      	str	r2, [r3, #8]
 8000fd4:	60da      	str	r2, [r3, #12]
 8000fd6:	611a      	str	r2, [r3, #16]
  RCC_PeriphCLKInitTypeDef PeriphClkInit = {0};
 8000fd8:	1d3b      	adds	r3, r7, #4
 8000fda:	2200      	movs	r2, #0
 8000fdc:	601a      	str	r2, [r3, #0]
 8000fde:	605a      	str	r2, [r3, #4]
 8000fe0:	609a      	str	r2, [r3, #8]
 8000fe2:	60da      	str	r2, [r3, #12]

  /** Initializes the CPU, AHB and APB busses clocks
  */
  RCC_OscInitStruct.OscillatorType = RCC_OSCILLATORTYPE_HSI|RCC_OSCILLATORTYPE_LSI;
 8000fe4:	230a      	movs	r3, #10
 8000fe6:	62bb      	str	r3, [r7, #40]	; 0x28
  RCC_OscInitStruct.HSIState = RCC_HSI_ON;
 8000fe8:	2301      	movs	r3, #1
 8000fea:	63bb      	str	r3, [r7, #56]	; 0x38
  RCC_OscInitStruct.HSICalibrationValue = RCC_HSICALIBRATION_DEFAULT;
 8000fec:	2310      	movs	r3, #16
 8000fee:	63fb      	str	r3, [r7, #60]	; 0x3c
  RCC_OscInitStruct.LSIState = RCC_LSI_ON;
 8000ff0:	2301      	movs	r3, #1
 8000ff2:	643b      	str	r3, [r7, #64]	; 0x40
  RCC_OscInitStruct.PLL.PLLState = RCC_PLL_NONE;
 8000ff4:	2300      	movs	r3, #0
 8000ff6:	647b      	str	r3, [r7, #68]	; 0x44
  if (HAL_RCC_OscConfig(&RCC_OscInitStruct) != HAL_OK)
 8000ff8:	f107 0328 	add.w	r3, r7, #40	; 0x28
 8000ffc:	4618      	mov	r0, r3
 8000ffe:	f000 fe37 	bl	8001c70 <HAL_RCC_OscConfig>
 8001002:	4603      	mov	r3, r0
 8001004:	2b00      	cmp	r3, #0
 8001006:	d001      	beq.n	800100c <SystemClock_Config+0x58>
  {
    Error_Handler();
 8001008:	f000 f8be 	bl	8001188 <Error_Handler>
  }
  /** Initializes the CPU, AHB and APB busses clocks
  */
  RCC_ClkInitStruct.ClockType = RCC_CLOCKTYPE_HCLK|RCC_CLOCKTYPE_SYSCLK
 800100c:	230f      	movs	r3, #15
 800100e:	617b      	str	r3, [r7, #20]
                              |RCC_CLOCKTYPE_PCLK1|RCC_CLOCKTYPE_PCLK2;
  RCC_ClkInitStruct.SYSCLKSource = RCC_SYSCLKSOURCE_HSI;
 8001010:	2300      	movs	r3, #0
 8001012:	61bb      	str	r3, [r7, #24]
  RCC_ClkInitStruct.AHBCLKDivider = RCC_SYSCLK_DIV1;
 8001014:	2300      	movs	r3, #0
 8001016:	61fb      	str	r3, [r7, #28]
  RCC_ClkInitStruct.APB1CLKDivider = RCC_HCLK_DIV1;
 8001018:	2300      	movs	r3, #0
 800101a:	623b      	str	r3, [r7, #32]
  RCC_ClkInitStruct.APB2CLKDivider = RCC_HCLK_DIV1;
 800101c:	2300      	movs	r3, #0
 800101e:	627b      	str	r3, [r7, #36]	; 0x24

  if (HAL_RCC_ClockConfig(&RCC_ClkInitStruct, FLASH_LATENCY_0) != HAL_OK)
 8001020:	f107 0314 	add.w	r3, r7, #20
 8001024:	2100      	movs	r1, #0
 8001026:	4618      	mov	r0, r3
 8001028:	f001 f8a2 	bl	8002170 <HAL_RCC_ClockConfig>
 800102c:	4603      	mov	r3, r0
 800102e:	2b00      	cmp	r3, #0
 8001030:	d001      	beq.n	8001036 <SystemClock_Config+0x82>
  {
    Error_Handler();
 8001032:	f000 f8a9 	bl	8001188 <Error_Handler>
  }
  PeriphClkInit.PeriphClockSelection = RCC_PERIPHCLK_RTC;
 8001036:	2301      	movs	r3, #1
 8001038:	607b      	str	r3, [r7, #4]
  PeriphClkInit.RTCClockSelection = RCC_RTCCLKSOURCE_LSI;
 800103a:	f44f 7300 	mov.w	r3, #512	; 0x200
 800103e:	60bb      	str	r3, [r7, #8]
  if (HAL_RCCEx_PeriphCLKConfig(&PeriphClkInit) != HAL_OK)
 8001040:	1d3b      	adds	r3, r7, #4
 8001042:	4618      	mov	r0, r3
 8001044:	f001 fa2e 	bl	80024a4 <HAL_RCCEx_PeriphCLKConfig>
 8001048:	4603      	mov	r3, r0
 800104a:	2b00      	cmp	r3, #0
 800104c:	d001      	beq.n	8001052 <SystemClock_Config+0x9e>
  {
    Error_Handler();
 800104e:	f000 f89b 	bl	8001188 <Error_Handler>
  }
}
 8001052:	bf00      	nop
 8001054:	3750      	adds	r7, #80	; 0x50
 8001056:	46bd      	mov	sp, r7
 8001058:	bd80      	pop	{r7, pc}
	...

0800105c <MX_RTC_Init>:
  * @brief RTC Initialization Function
  * @param None
  * @retval None
  */
static void MX_RTC_Init(void)
{
 800105c:	b580      	push	{r7, lr}
 800105e:	b082      	sub	sp, #8
 8001060:	af00      	add	r7, sp, #0

  /* USER CODE BEGIN RTC_Init 0 */

  /* USER CODE END RTC_Init 0 */

  RTC_TimeTypeDef sTime = {0};
 8001062:	1d3b      	adds	r3, r7, #4
 8001064:	2100      	movs	r1, #0
 8001066:	460a      	mov	r2, r1
 8001068:	801a      	strh	r2, [r3, #0]
 800106a:	460a      	mov	r2, r1
 800106c:	709a      	strb	r2, [r3, #2]
  RTC_DateTypeDef DateToUpdate = {0};
 800106e:	2300      	movs	r3, #0
 8001070:	603b      	str	r3, [r7, #0]
  /* USER CODE BEGIN RTC_Init 1 */

  /* USER CODE END RTC_Init 1 */
  /** Initialize RTC Only
  */
  hrtc.Instance = RTC;
 8001072:	4b1d      	ldr	r3, [pc, #116]	; (80010e8 <MX_RTC_Init+0x8c>)
 8001074:	4a1d      	ldr	r2, [pc, #116]	; (80010ec <MX_RTC_Init+0x90>)
 8001076:	601a      	str	r2, [r3, #0]
  hrtc.Init.AsynchPrediv = RTC_AUTO_1_SECOND;
 8001078:	4b1b      	ldr	r3, [pc, #108]	; (80010e8 <MX_RTC_Init+0x8c>)
 800107a:	f04f 32ff 	mov.w	r2, #4294967295
 800107e:	605a      	str	r2, [r3, #4]
  hrtc.Init.OutPut = RTC_OUTPUTSOURCE_ALARM;
 8001080:	4b19      	ldr	r3, [pc, #100]	; (80010e8 <MX_RTC_Init+0x8c>)
 8001082:	f44f 7280 	mov.w	r2, #256	; 0x100
 8001086:	609a      	str	r2, [r3, #8]
  if (HAL_RTC_Init(&hrtc) != HAL_OK)
 8001088:	4817      	ldr	r0, [pc, #92]	; (80010e8 <MX_RTC_Init+0x8c>)
 800108a:	f001 fb85 	bl	8002798 <HAL_RTC_Init>
 800108e:	4603      	mov	r3, r0
 8001090:	2b00      	cmp	r3, #0
 8001092:	d001      	beq.n	8001098 <MX_RTC_Init+0x3c>
  {
    Error_Handler();
 8001094:	f000 f878 	bl	8001188 <Error_Handler>

  /* USER CODE END Check_RTC_BKUP */

  /** Initialize RTC and set the Time and Date
  */
  sTime.Hours = 0x0;
 8001098:	2300      	movs	r3, #0
 800109a:	713b      	strb	r3, [r7, #4]
  sTime.Minutes = 0x0;
 800109c:	2300      	movs	r3, #0
 800109e:	717b      	strb	r3, [r7, #5]
  sTime.Seconds = 0x0;
 80010a0:	2300      	movs	r3, #0
 80010a2:	71bb      	strb	r3, [r7, #6]

  if (HAL_RTC_SetTime(&hrtc, &sTime, RTC_FORMAT_BCD) != HAL_OK)
 80010a4:	1d3b      	adds	r3, r7, #4
 80010a6:	2201      	movs	r2, #1
 80010a8:	4619      	mov	r1, r3
 80010aa:	480f      	ldr	r0, [pc, #60]	; (80010e8 <MX_RTC_Init+0x8c>)
 80010ac:	f001 fc0a 	bl	80028c4 <HAL_RTC_SetTime>
 80010b0:	4603      	mov	r3, r0
 80010b2:	2b00      	cmp	r3, #0
 80010b4:	d001      	beq.n	80010ba <MX_RTC_Init+0x5e>
  {
    Error_Handler();
 80010b6:	f000 f867 	bl	8001188 <Error_Handler>
  }
  DateToUpdate.WeekDay = RTC_WEEKDAY_MONDAY;
 80010ba:	2301      	movs	r3, #1
 80010bc:	703b      	strb	r3, [r7, #0]
  DateToUpdate.Month = RTC_MONTH_JANUARY;
 80010be:	2301      	movs	r3, #1
 80010c0:	707b      	strb	r3, [r7, #1]
  DateToUpdate.Date = 0x1;
 80010c2:	2301      	movs	r3, #1
 80010c4:	70bb      	strb	r3, [r7, #2]
  DateToUpdate.Year = 0x0;
 80010c6:	2300      	movs	r3, #0
 80010c8:	70fb      	strb	r3, [r7, #3]

  if (HAL_RTC_SetDate(&hrtc, &DateToUpdate, RTC_FORMAT_BCD) != HAL_OK)
 80010ca:	463b      	mov	r3, r7
 80010cc:	2201      	movs	r2, #1
 80010ce:	4619      	mov	r1, r3
 80010d0:	4805      	ldr	r0, [pc, #20]	; (80010e8 <MX_RTC_Init+0x8c>)
 80010d2:	f001 fd67 	bl	8002ba4 <HAL_RTC_SetDate>
 80010d6:	4603      	mov	r3, r0
 80010d8:	2b00      	cmp	r3, #0
 80010da:	d001      	beq.n	80010e0 <MX_RTC_Init+0x84>
  {
    Error_Handler();
 80010dc:	f000 f854 	bl	8001188 <Error_Handler>
//  sprintf((char*)Message, "Date: %02d.%02d.20%02d Time: %02d:%02d:%02d\n\r", DateToUpdate.Date, DateToUpdate.Month,
//		  DateToUpdate.Year, sTime.Hours, sTime.Minutes, sTime.Seconds);
//  HAL_UART_Transmit(&huart2, Message, sizeof(Message), Timeout);
  /* USER CODE END RTC_Init 2 */

}
 80010e0:	bf00      	nop
 80010e2:	3708      	adds	r7, #8
 80010e4:	46bd      	mov	sp, r7
 80010e6:	bd80      	pop	{r7, pc}
 80010e8:	20000108 	.word	0x20000108
 80010ec:	40002800 	.word	0x40002800

080010f0 <MX_USART2_UART_Init>:
  * @brief USART2 Initialization Function
  * @param None
  * @retval None
  */
static void MX_USART2_UART_Init(void)
{
 80010f0:	b580      	push	{r7, lr}
 80010f2:	af00      	add	r7, sp, #0
  /* USER CODE END USART2_Init 0 */

  /* USER CODE BEGIN USART2_Init 1 */

  /* USER CODE END USART2_Init 1 */
  huart2.Instance = USART2;
 80010f4:	4b11      	ldr	r3, [pc, #68]	; (800113c <MX_USART2_UART_Init+0x4c>)
 80010f6:	4a12      	ldr	r2, [pc, #72]	; (8001140 <MX_USART2_UART_Init+0x50>)
 80010f8:	601a      	str	r2, [r3, #0]
  huart2.Init.BaudRate = 9600;
 80010fa:	4b10      	ldr	r3, [pc, #64]	; (800113c <MX_USART2_UART_Init+0x4c>)
 80010fc:	f44f 5216 	mov.w	r2, #9600	; 0x2580
 8001100:	605a      	str	r2, [r3, #4]
  huart2.Init.WordLength = UART_WORDLENGTH_8B;
 8001102:	4b0e      	ldr	r3, [pc, #56]	; (800113c <MX_USART2_UART_Init+0x4c>)
 8001104:	2200      	movs	r2, #0
 8001106:	609a      	str	r2, [r3, #8]
  huart2.Init.StopBits = UART_STOPBITS_1;
 8001108:	4b0c      	ldr	r3, [pc, #48]	; (800113c <MX_USART2_UART_Init+0x4c>)
 800110a:	2200      	movs	r2, #0
 800110c:	60da      	str	r2, [r3, #12]
  huart2.Init.Parity = UART_PARITY_NONE;
 800110e:	4b0b      	ldr	r3, [pc, #44]	; (800113c <MX_USART2_UART_Init+0x4c>)
 8001110:	2200      	movs	r2, #0
 8001112:	611a      	str	r2, [r3, #16]
  huart2.Init.Mode = UART_MODE_TX_RX;
 8001114:	4b09      	ldr	r3, [pc, #36]	; (800113c <MX_USART2_UART_Init+0x4c>)
 8001116:	220c      	movs	r2, #12
 8001118:	615a      	str	r2, [r3, #20]
  huart2.Init.HwFlowCtl = UART_HWCONTROL_NONE;
 800111a:	4b08      	ldr	r3, [pc, #32]	; (800113c <MX_USART2_UART_Init+0x4c>)
 800111c:	2200      	movs	r2, #0
 800111e:	619a      	str	r2, [r3, #24]
  huart2.Init.OverSampling = UART_OVERSAMPLING_16;
 8001120:	4b06      	ldr	r3, [pc, #24]	; (800113c <MX_USART2_UART_Init+0x4c>)
 8001122:	2200      	movs	r2, #0
 8001124:	61da      	str	r2, [r3, #28]
  if (HAL_UART_Init(&huart2) != HAL_OK)
 8001126:	4805      	ldr	r0, [pc, #20]	; (800113c <MX_USART2_UART_Init+0x4c>)
 8001128:	f002 f902 	bl	8003330 <HAL_UART_Init>
 800112c:	4603      	mov	r3, r0
 800112e:	2b00      	cmp	r3, #0
 8001130:	d001      	beq.n	8001136 <MX_USART2_UART_Init+0x46>
  {
    Error_Handler();
 8001132:	f000 f829 	bl	8001188 <Error_Handler>
  }
  /* USER CODE BEGIN USART2_Init 2 */

  /* USER CODE END USART2_Init 2 */

}
 8001136:	bf00      	nop
 8001138:	bd80      	pop	{r7, pc}
 800113a:	bf00      	nop
 800113c:	20000140 	.word	0x20000140
 8001140:	40004400 	.word	0x40004400

08001144 <MX_GPIO_Init>:
  * @brief GPIO Initialization Function
  * @param None
  * @retval None
  */
static void MX_GPIO_Init(void)
{
 8001144:	b480      	push	{r7}
 8001146:	b083      	sub	sp, #12
 8001148:	af00      	add	r7, sp, #0

  /* GPIO Ports Clock Enable */
  __HAL_RCC_GPIOD_CLK_ENABLE();
 800114a:	4b0e      	ldr	r3, [pc, #56]	; (8001184 <MX_GPIO_Init+0x40>)
 800114c:	699b      	ldr	r3, [r3, #24]
 800114e:	4a0d      	ldr	r2, [pc, #52]	; (8001184 <MX_GPIO_Init+0x40>)
 8001150:	f043 0320 	orr.w	r3, r3, #32
 8001154:	6193      	str	r3, [r2, #24]
 8001156:	4b0b      	ldr	r3, [pc, #44]	; (8001184 <MX_GPIO_Init+0x40>)
 8001158:	699b      	ldr	r3, [r3, #24]
 800115a:	f003 0320 	and.w	r3, r3, #32
 800115e:	607b      	str	r3, [r7, #4]
 8001160:	687b      	ldr	r3, [r7, #4]
  __HAL_RCC_GPIOA_CLK_ENABLE();
 8001162:	4b08      	ldr	r3, [pc, #32]	; (8001184 <MX_GPIO_Init+0x40>)
 8001164:	699b      	ldr	r3, [r3, #24]
 8001166:	4a07      	ldr	r2, [pc, #28]	; (8001184 <MX_GPIO_Init+0x40>)
 8001168:	f043 0304 	orr.w	r3, r3, #4
 800116c:	6193      	str	r3, [r2, #24]
 800116e:	4b05      	ldr	r3, [pc, #20]	; (8001184 <MX_GPIO_Init+0x40>)
 8001170:	699b      	ldr	r3, [r3, #24]
 8001172:	f003 0304 	and.w	r3, r3, #4
 8001176:	603b      	str	r3, [r7, #0]
 8001178:	683b      	ldr	r3, [r7, #0]

}
 800117a:	bf00      	nop
 800117c:	370c      	adds	r7, #12
 800117e:	46bd      	mov	sp, r7
 8001180:	bc80      	pop	{r7}
 8001182:	4770      	bx	lr
 8001184:	40021000 	.word	0x40021000

08001188 <Error_Handler>:
/**
  * @brief  This function is executed in case of error occurrence.
  * @retval None
  */
void Error_Handler(void)
{
 8001188:	b480      	push	{r7}
 800118a:	af00      	add	r7, sp, #0
  /* USER CODE BEGIN Error_Handler_Debug */
  /* User can add his own implementation to report the HAL error return state */

  /* USER CODE END Error_Handler_Debug */
}
 800118c:	bf00      	nop
 800118e:	46bd      	mov	sp, r7
 8001190:	bc80      	pop	{r7}
 8001192:	4770      	bx	lr

08001194 <HAL_MspInit>:
/* USER CODE END 0 */
/**
  * Initializes the Global MSP.
  */
void HAL_MspInit(void)
{
 8001194:	b480      	push	{r7}
 8001196:	b085      	sub	sp, #20
 8001198:	af00      	add	r7, sp, #0
  /* USER CODE BEGIN MspInit 0 */

  /* USER CODE END MspInit 0 */

  __HAL_RCC_AFIO_CLK_ENABLE();
 800119a:	4b15      	ldr	r3, [pc, #84]	; (80011f0 <HAL_MspInit+0x5c>)
 800119c:	699b      	ldr	r3, [r3, #24]
 800119e:	4a14      	ldr	r2, [pc, #80]	; (80011f0 <HAL_MspInit+0x5c>)
 80011a0:	f043 0301 	orr.w	r3, r3, #1
 80011a4:	6193      	str	r3, [r2, #24]
 80011a6:	4b12      	ldr	r3, [pc, #72]	; (80011f0 <HAL_MspInit+0x5c>)
 80011a8:	699b      	ldr	r3, [r3, #24]
 80011aa:	f003 0301 	and.w	r3, r3, #1
 80011ae:	60bb      	str	r3, [r7, #8]
 80011b0:	68bb      	ldr	r3, [r7, #8]
  __HAL_RCC_PWR_CLK_ENABLE();
 80011b2:	4b0f      	ldr	r3, [pc, #60]	; (80011f0 <HAL_MspInit+0x5c>)
 80011b4:	69db      	ldr	r3, [r3, #28]
 80011b6:	4a0e      	ldr	r2, [pc, #56]	; (80011f0 <HAL_MspInit+0x5c>)
 80011b8:	f043 5380 	orr.w	r3, r3, #268435456	; 0x10000000
 80011bc:	61d3      	str	r3, [r2, #28]
 80011be:	4b0c      	ldr	r3, [pc, #48]	; (80011f0 <HAL_MspInit+0x5c>)
 80011c0:	69db      	ldr	r3, [r3, #28]
 80011c2:	f003 5380 	and.w	r3, r3, #268435456	; 0x10000000
 80011c6:	607b      	str	r3, [r7, #4]
 80011c8:	687b      	ldr	r3, [r7, #4]

  /* System interrupt init*/

  /** NOJTAG: JTAG-DP Disabled and SW-DP Enabled
  */
  __HAL_AFIO_REMAP_SWJ_NOJTAG();
 80011ca:	4b0a      	ldr	r3, [pc, #40]	; (80011f4 <HAL_MspInit+0x60>)
 80011cc:	685b      	ldr	r3, [r3, #4]
 80011ce:	60fb      	str	r3, [r7, #12]
 80011d0:	68fb      	ldr	r3, [r7, #12]
 80011d2:	f023 63e0 	bic.w	r3, r3, #117440512	; 0x7000000
 80011d6:	60fb      	str	r3, [r7, #12]
 80011d8:	68fb      	ldr	r3, [r7, #12]
 80011da:	f043 7300 	orr.w	r3, r3, #33554432	; 0x2000000
 80011de:	60fb      	str	r3, [r7, #12]
 80011e0:	4a04      	ldr	r2, [pc, #16]	; (80011f4 <HAL_MspInit+0x60>)
 80011e2:	68fb      	ldr	r3, [r7, #12]
 80011e4:	6053      	str	r3, [r2, #4]

  /* USER CODE BEGIN MspInit 1 */

  /* USER CODE END MspInit 1 */
}
 80011e6:	bf00      	nop
 80011e8:	3714      	adds	r7, #20
 80011ea:	46bd      	mov	sp, r7
 80011ec:	bc80      	pop	{r7}
 80011ee:	4770      	bx	lr
 80011f0:	40021000 	.word	0x40021000
 80011f4:	40010000 	.word	0x40010000

080011f8 <HAL_RTC_MspInit>:
* This function configures the hardware resources used in this example
* @param hrtc: RTC handle pointer
* @retval None
*/
void HAL_RTC_MspInit(RTC_HandleTypeDef* hrtc)
{
 80011f8:	b580      	push	{r7, lr}
 80011fa:	b084      	sub	sp, #16
 80011fc:	af00      	add	r7, sp, #0
 80011fe:	6078      	str	r0, [r7, #4]
  if(hrtc->Instance==RTC)
 8001200:	687b      	ldr	r3, [r7, #4]
 8001202:	681b      	ldr	r3, [r3, #0]
 8001204:	4a0b      	ldr	r2, [pc, #44]	; (8001234 <HAL_RTC_MspInit+0x3c>)
 8001206:	4293      	cmp	r3, r2
 8001208:	d110      	bne.n	800122c <HAL_RTC_MspInit+0x34>
  {
  /* USER CODE BEGIN RTC_MspInit 0 */

  /* USER CODE END RTC_MspInit 0 */
    HAL_PWR_EnableBkUpAccess();
 800120a:	f000 fd25 	bl	8001c58 <HAL_PWR_EnableBkUpAccess>
    /* Enable BKP CLK enable for backup registers */
    __HAL_RCC_BKP_CLK_ENABLE();
 800120e:	4b0a      	ldr	r3, [pc, #40]	; (8001238 <HAL_RTC_MspInit+0x40>)
 8001210:	69db      	ldr	r3, [r3, #28]
 8001212:	4a09      	ldr	r2, [pc, #36]	; (8001238 <HAL_RTC_MspInit+0x40>)
 8001214:	f043 6300 	orr.w	r3, r3, #134217728	; 0x8000000
 8001218:	61d3      	str	r3, [r2, #28]
 800121a:	4b07      	ldr	r3, [pc, #28]	; (8001238 <HAL_RTC_MspInit+0x40>)
 800121c:	69db      	ldr	r3, [r3, #28]
 800121e:	f003 6300 	and.w	r3, r3, #134217728	; 0x8000000
 8001222:	60fb      	str	r3, [r7, #12]
 8001224:	68fb      	ldr	r3, [r7, #12]
    /* Peripheral clock enable */
    __HAL_RCC_RTC_ENABLE();
 8001226:	4b05      	ldr	r3, [pc, #20]	; (800123c <HAL_RTC_MspInit+0x44>)
 8001228:	2201      	movs	r2, #1
 800122a:	601a      	str	r2, [r3, #0]
  /* USER CODE BEGIN RTC_MspInit 1 */

  /* USER CODE END RTC_MspInit 1 */
  }

}
 800122c:	bf00      	nop
 800122e:	3710      	adds	r7, #16
 8001230:	46bd      	mov	sp, r7
 8001232:	bd80      	pop	{r7, pc}
 8001234:	40002800 	.word	0x40002800
 8001238:	40021000 	.word	0x40021000
 800123c:	4242043c 	.word	0x4242043c

08001240 <HAL_UART_MspInit>:
* This function configures the hardware resources used in this example
* @param huart: UART handle pointer
* @retval None
*/
void HAL_UART_MspInit(UART_HandleTypeDef* huart)
{
 8001240:	b580      	push	{r7, lr}
 8001242:	b088      	sub	sp, #32
 8001244:	af00      	add	r7, sp, #0
 8001246:	6078      	str	r0, [r7, #4]
  GPIO_InitTypeDef GPIO_InitStruct = {0};
 8001248:	f107 0310 	add.w	r3, r7, #16
 800124c:	2200      	movs	r2, #0
 800124e:	601a      	str	r2, [r3, #0]
 8001250:	605a      	str	r2, [r3, #4]
 8001252:	609a      	str	r2, [r3, #8]
 8001254:	60da      	str	r2, [r3, #12]
  if(huart->Instance==USART2)
 8001256:	687b      	ldr	r3, [r7, #4]
 8001258:	681b      	ldr	r3, [r3, #0]
 800125a:	4a1f      	ldr	r2, [pc, #124]	; (80012d8 <HAL_UART_MspInit+0x98>)
 800125c:	4293      	cmp	r3, r2
 800125e:	d137      	bne.n	80012d0 <HAL_UART_MspInit+0x90>
  {
  /* USER CODE BEGIN USART2_MspInit 0 */

  /* USER CODE END USART2_MspInit 0 */
    /* Peripheral clock enable */
    __HAL_RCC_USART2_CLK_ENABLE();
 8001260:	4b1e      	ldr	r3, [pc, #120]	; (80012dc <HAL_UART_MspInit+0x9c>)
 8001262:	69db      	ldr	r3, [r3, #28]
 8001264:	4a1d      	ldr	r2, [pc, #116]	; (80012dc <HAL_UART_MspInit+0x9c>)
 8001266:	f443 3300 	orr.w	r3, r3, #131072	; 0x20000
 800126a:	61d3      	str	r3, [r2, #28]
 800126c:	4b1b      	ldr	r3, [pc, #108]	; (80012dc <HAL_UART_MspInit+0x9c>)
 800126e:	69db      	ldr	r3, [r3, #28]
 8001270:	f403 3300 	and.w	r3, r3, #131072	; 0x20000
 8001274:	60fb      	str	r3, [r7, #12]
 8001276:	68fb      	ldr	r3, [r7, #12]

    __HAL_RCC_GPIOA_CLK_ENABLE();
 8001278:	4b18      	ldr	r3, [pc, #96]	; (80012dc <HAL_UART_MspInit+0x9c>)
 800127a:	699b      	ldr	r3, [r3, #24]
 800127c:	4a17      	ldr	r2, [pc, #92]	; (80012dc <HAL_UART_MspInit+0x9c>)
 800127e:	f043 0304 	orr.w	r3, r3, #4
 8001282:	6193      	str	r3, [r2, #24]
 8001284:	4b15      	ldr	r3, [pc, #84]	; (80012dc <HAL_UART_MspInit+0x9c>)
 8001286:	699b      	ldr	r3, [r3, #24]
 8001288:	f003 0304 	and.w	r3, r3, #4
 800128c:	60bb      	str	r3, [r7, #8]
 800128e:	68bb      	ldr	r3, [r7, #8]
    /**USART2 GPIO Configuration
    PA2     ------> USART2_TX
    PA3     ------> USART2_RX
    */
    GPIO_InitStruct.Pin = GPIO_PIN_2;
 8001290:	2304      	movs	r3, #4
 8001292:	613b      	str	r3, [r7, #16]
    GPIO_InitStruct.Mode = GPIO_MODE_AF_PP;
 8001294:	2302      	movs	r3, #2
 8001296:	617b      	str	r3, [r7, #20]
    GPIO_InitStruct.Speed = GPIO_SPEED_FREQ_HIGH;
 8001298:	2303      	movs	r3, #3
 800129a:	61fb      	str	r3, [r7, #28]
    HAL_GPIO_Init(GPIOA, &GPIO_InitStruct);
 800129c:	f107 0310 	add.w	r3, r7, #16
 80012a0:	4619      	mov	r1, r3
 80012a2:	480f      	ldr	r0, [pc, #60]	; (80012e0 <HAL_UART_MspInit+0xa0>)
 80012a4:	f000 fb5e 	bl	8001964 <HAL_GPIO_Init>

    GPIO_InitStruct.Pin = GPIO_PIN_3;
 80012a8:	2308      	movs	r3, #8
 80012aa:	613b      	str	r3, [r7, #16]
    GPIO_InitStruct.Mode = GPIO_MODE_INPUT;
 80012ac:	2300      	movs	r3, #0
 80012ae:	617b      	str	r3, [r7, #20]
    GPIO_InitStruct.Pull = GPIO_NOPULL;
 80012b0:	2300      	movs	r3, #0
 80012b2:	61bb      	str	r3, [r7, #24]
    HAL_GPIO_Init(GPIOA, &GPIO_InitStruct);
 80012b4:	f107 0310 	add.w	r3, r7, #16
 80012b8:	4619      	mov	r1, r3
 80012ba:	4809      	ldr	r0, [pc, #36]	; (80012e0 <HAL_UART_MspInit+0xa0>)
 80012bc:	f000 fb52 	bl	8001964 <HAL_GPIO_Init>

    /* USART2 interrupt Init */
    HAL_NVIC_SetPriority(USART2_IRQn, 0, 0);
 80012c0:	2200      	movs	r2, #0
 80012c2:	2100      	movs	r1, #0
 80012c4:	2026      	movs	r0, #38	; 0x26
 80012c6:	f000 fa66 	bl	8001796 <HAL_NVIC_SetPriority>
    HAL_NVIC_EnableIRQ(USART2_IRQn);
 80012ca:	2026      	movs	r0, #38	; 0x26
 80012cc:	f000 fa7f 	bl	80017ce <HAL_NVIC_EnableIRQ>
  /* USER CODE BEGIN USART2_MspInit 1 */

  /* USER CODE END USART2_MspInit 1 */
  }

}
 80012d0:	bf00      	nop
 80012d2:	3720      	adds	r7, #32
 80012d4:	46bd      	mov	sp, r7
 80012d6:	bd80      	pop	{r7, pc}
 80012d8:	40004400 	.word	0x40004400
 80012dc:	40021000 	.word	0x40021000
 80012e0:	40010800 	.word	0x40010800

080012e4 <NMI_Handler>:
/******************************************************************************/
/**
  * @brief This function handles Non maskable interrupt.
  */
void NMI_Handler(void)
{
 80012e4:	b480      	push	{r7}
 80012e6:	af00      	add	r7, sp, #0

  /* USER CODE END NonMaskableInt_IRQn 0 */
  /* USER CODE BEGIN NonMaskableInt_IRQn 1 */

  /* USER CODE END NonMaskableInt_IRQn 1 */
}
 80012e8:	bf00      	nop
 80012ea:	46bd      	mov	sp, r7
 80012ec:	bc80      	pop	{r7}
 80012ee:	4770      	bx	lr

080012f0 <HardFault_Handler>:

/**
  * @brief This function handles Hard fault interrupt.
  */
void HardFault_Handler(void)
{
 80012f0:	b480      	push	{r7}
 80012f2:	af00      	add	r7, sp, #0
  /* USER CODE BEGIN HardFault_IRQn 0 */

  /* USER CODE END HardFault_IRQn 0 */
  while (1)
 80012f4:	e7fe      	b.n	80012f4 <HardFault_Handler+0x4>

080012f6 <MemManage_Handler>:

/**
  * @brief This function handles Memory management fault.
  */
void MemManage_Handler(void)
{
 80012f6:	b480      	push	{r7}
 80012f8:	af00      	add	r7, sp, #0
  /* USER CODE BEGIN MemoryManagement_IRQn 0 */

  /* USER CODE END MemoryManagement_IRQn 0 */
  while (1)
 80012fa:	e7fe      	b.n	80012fa <MemManage_Handler+0x4>

080012fc <BusFault_Handler>:

/**
  * @brief This function handles Prefetch fault, memory access fault.
  */
void BusFault_Handler(void)
{
 80012fc:	b480      	push	{r7}
 80012fe:	af00      	add	r7, sp, #0
  /* USER CODE BEGIN BusFault_IRQn 0 */

  /* USER CODE END BusFault_IRQn 0 */
  while (1)
 8001300:	e7fe      	b.n	8001300 <BusFault_Handler+0x4>

08001302 <UsageFault_Handler>:

/**
  * @brief This function handles Undefined instruction or illegal state.
  */
void UsageFault_Handler(void)
{
 8001302:	b480      	push	{r7}
 8001304:	af00      	add	r7, sp, #0
  /* USER CODE BEGIN UsageFault_IRQn 0 */

  /* USER CODE END UsageFault_IRQn 0 */
  while (1)
 8001306:	e7fe      	b.n	8001306 <UsageFault_Handler+0x4>

08001308 <SVC_Handler>:

/**
  * @brief This function handles System service call via SWI instruction.
  */
void SVC_Handler(void)
{
 8001308:	b480      	push	{r7}
 800130a:	af00      	add	r7, sp, #0

  /* USER CODE END SVCall_IRQn 0 */
  /* USER CODE BEGIN SVCall_IRQn 1 */

  /* USER CODE END SVCall_IRQn 1 */
}
 800130c:	bf00      	nop
 800130e:	46bd      	mov	sp, r7
 8001310:	bc80      	pop	{r7}
 8001312:	4770      	bx	lr

08001314 <DebugMon_Handler>:

/**
  * @brief This function handles Debug monitor.
  */
void DebugMon_Handler(void)
{
 8001314:	b480      	push	{r7}
 8001316:	af00      	add	r7, sp, #0

  /* USER CODE END DebugMonitor_IRQn 0 */
  /* USER CODE BEGIN DebugMonitor_IRQn 1 */

  /* USER CODE END DebugMonitor_IRQn 1 */
}
 8001318:	bf00      	nop
 800131a:	46bd      	mov	sp, r7
 800131c:	bc80      	pop	{r7}
 800131e:	4770      	bx	lr

08001320 <PendSV_Handler>:

/**
  * @brief This function handles Pendable request for system service.
  */
void PendSV_Handler(void)
{
 8001320:	b480      	push	{r7}
 8001322:	af00      	add	r7, sp, #0

  /* USER CODE END PendSV_IRQn 0 */
  /* USER CODE BEGIN PendSV_IRQn 1 */

  /* USER CODE END PendSV_IRQn 1 */
}
 8001324:	bf00      	nop
 8001326:	46bd      	mov	sp, r7
 8001328:	bc80      	pop	{r7}
 800132a:	4770      	bx	lr

0800132c <SysTick_Handler>:

/**
  * @brief This function handles System tick timer.
  */
void SysTick_Handler(void)
{
 800132c:	b580      	push	{r7, lr}
 800132e:	af00      	add	r7, sp, #0
  /* USER CODE BEGIN SysTick_IRQn 0 */

  /* USER CODE END SysTick_IRQn 0 */
  HAL_IncTick();
 8001330:	f000 f93e 	bl	80015b0 <HAL_IncTick>
  /* USER CODE BEGIN SysTick_IRQn 1 */

  /* USER CODE END SysTick_IRQn 1 */
}
 8001334:	bf00      	nop
 8001336:	bd80      	pop	{r7, pc}

08001338 <USART2_IRQHandler>:

/**
  * @brief This function handles USART2 global interrupt.
  */
void USART2_IRQHandler(void)
{
 8001338:	b580      	push	{r7, lr}
 800133a:	af00      	add	r7, sp, #0
  /* USER CODE BEGIN USART2_IRQn 0 */

  /* USER CODE END USART2_IRQn 0 */
  HAL_UART_IRQHandler(&huart2);
 800133c:	4802      	ldr	r0, [pc, #8]	; (8001348 <USART2_IRQHandler+0x10>)
 800133e:	f002 f907 	bl	8003550 <HAL_UART_IRQHandler>
  /* USER CODE BEGIN USART2_IRQn 1 */

  /* USER CODE END USART2_IRQn 1 */
}
 8001342:	bf00      	nop
 8001344:	bd80      	pop	{r7, pc}
 8001346:	bf00      	nop
 8001348:	20000140 	.word	0x20000140

0800134c <_getpid>:
void initialise_monitor_handles()
{
}

int _getpid(void)
{
 800134c:	b480      	push	{r7}
 800134e:	af00      	add	r7, sp, #0
	return 1;
 8001350:	2301      	movs	r3, #1
}
 8001352:	4618      	mov	r0, r3
 8001354:	46bd      	mov	sp, r7
 8001356:	bc80      	pop	{r7}
 8001358:	4770      	bx	lr

0800135a <_kill>:

int _kill(int pid, int sig)
{
 800135a:	b580      	push	{r7, lr}
 800135c:	b082      	sub	sp, #8
 800135e:	af00      	add	r7, sp, #0
 8001360:	6078      	str	r0, [r7, #4]
 8001362:	6039      	str	r1, [r7, #0]
	errno = EINVAL;
 8001364:	f002 fd2a 	bl	8003dbc <__errno>
 8001368:	4603      	mov	r3, r0
 800136a:	2216      	movs	r2, #22
 800136c:	601a      	str	r2, [r3, #0]
	return -1;
 800136e:	f04f 33ff 	mov.w	r3, #4294967295
}
 8001372:	4618      	mov	r0, r3
 8001374:	3708      	adds	r7, #8
 8001376:	46bd      	mov	sp, r7
 8001378:	bd80      	pop	{r7, pc}

0800137a <_exit>:

void _exit (int status)
{
 800137a:	b580      	push	{r7, lr}
 800137c:	b082      	sub	sp, #8
 800137e:	af00      	add	r7, sp, #0
 8001380:	6078      	str	r0, [r7, #4]
	_kill(status, -1);
 8001382:	f04f 31ff 	mov.w	r1, #4294967295
 8001386:	6878      	ldr	r0, [r7, #4]
 8001388:	f7ff ffe7 	bl	800135a <_kill>
	while (1) {}		/* Make sure we hang here */
 800138c:	e7fe      	b.n	800138c <_exit+0x12>

0800138e <_read>:
}

__attribute__((weak)) int _read(int file, char *ptr, int len)
{
 800138e:	b580      	push	{r7, lr}
 8001390:	b086      	sub	sp, #24
 8001392:	af00      	add	r7, sp, #0
 8001394:	60f8      	str	r0, [r7, #12]
 8001396:	60b9      	str	r1, [r7, #8]
 8001398:	607a      	str	r2, [r7, #4]
	int DataIdx;

	for (DataIdx = 0; DataIdx < len; DataIdx++)
 800139a:	2300      	movs	r3, #0
 800139c:	617b      	str	r3, [r7, #20]
 800139e:	e00a      	b.n	80013b6 <_read+0x28>
	{
		*ptr++ = __io_getchar();
 80013a0:	f3af 8000 	nop.w
 80013a4:	4601      	mov	r1, r0
 80013a6:	68bb      	ldr	r3, [r7, #8]
 80013a8:	1c5a      	adds	r2, r3, #1
 80013aa:	60ba      	str	r2, [r7, #8]
 80013ac:	b2ca      	uxtb	r2, r1
 80013ae:	701a      	strb	r2, [r3, #0]
	for (DataIdx = 0; DataIdx < len; DataIdx++)
 80013b0:	697b      	ldr	r3, [r7, #20]
 80013b2:	3301      	adds	r3, #1
 80013b4:	617b      	str	r3, [r7, #20]
 80013b6:	697a      	ldr	r2, [r7, #20]
 80013b8:	687b      	ldr	r3, [r7, #4]
 80013ba:	429a      	cmp	r2, r3
 80013bc:	dbf0      	blt.n	80013a0 <_read+0x12>
	}

return len;
 80013be:	687b      	ldr	r3, [r7, #4]
}
 80013c0:	4618      	mov	r0, r3
 80013c2:	3718      	adds	r7, #24
 80013c4:	46bd      	mov	sp, r7
 80013c6:	bd80      	pop	{r7, pc}

080013c8 <_write>:

__attribute__((weak)) int _write(int file, char *ptr, int len)
{
 80013c8:	b580      	push	{r7, lr}
 80013ca:	b086      	sub	sp, #24
 80013cc:	af00      	add	r7, sp, #0
 80013ce:	60f8      	str	r0, [r7, #12]
 80013d0:	60b9      	str	r1, [r7, #8]
 80013d2:	607a      	str	r2, [r7, #4]
	int DataIdx;

	for (DataIdx = 0; DataIdx < len; DataIdx++)
 80013d4:	2300      	movs	r3, #0
 80013d6:	617b      	str	r3, [r7, #20]
 80013d8:	e009      	b.n	80013ee <_write+0x26>
	{
		__io_putchar(*ptr++);
 80013da:	68bb      	ldr	r3, [r7, #8]
 80013dc:	1c5a      	adds	r2, r3, #1
 80013de:	60ba      	str	r2, [r7, #8]
 80013e0:	781b      	ldrb	r3, [r3, #0]
 80013e2:	4618      	mov	r0, r3
 80013e4:	f3af 8000 	nop.w
	for (DataIdx = 0; DataIdx < len; DataIdx++)
 80013e8:	697b      	ldr	r3, [r7, #20]
 80013ea:	3301      	adds	r3, #1
 80013ec:	617b      	str	r3, [r7, #20]
 80013ee:	697a      	ldr	r2, [r7, #20]
 80013f0:	687b      	ldr	r3, [r7, #4]
 80013f2:	429a      	cmp	r2, r3
 80013f4:	dbf1      	blt.n	80013da <_write+0x12>
	}
	return len;
 80013f6:	687b      	ldr	r3, [r7, #4]
}
 80013f8:	4618      	mov	r0, r3
 80013fa:	3718      	adds	r7, #24
 80013fc:	46bd      	mov	sp, r7
 80013fe:	bd80      	pop	{r7, pc}

08001400 <_close>:

int _close(int file)
{
 8001400:	b480      	push	{r7}
 8001402:	b083      	sub	sp, #12
 8001404:	af00      	add	r7, sp, #0
 8001406:	6078      	str	r0, [r7, #4]
	return -1;
 8001408:	f04f 33ff 	mov.w	r3, #4294967295
}
 800140c:	4618      	mov	r0, r3
 800140e:	370c      	adds	r7, #12
 8001410:	46bd      	mov	sp, r7
 8001412:	bc80      	pop	{r7}
 8001414:	4770      	bx	lr

08001416 <_fstat>:


int _fstat(int file, struct stat *st)
{
 8001416:	b480      	push	{r7}
 8001418:	b083      	sub	sp, #12
 800141a:	af00      	add	r7, sp, #0
 800141c:	6078      	str	r0, [r7, #4]
 800141e:	6039      	str	r1, [r7, #0]
	st->st_mode = S_IFCHR;
 8001420:	683b      	ldr	r3, [r7, #0]
 8001422:	f44f 5200 	mov.w	r2, #8192	; 0x2000
 8001426:	605a      	str	r2, [r3, #4]
	return 0;
 8001428:	2300      	movs	r3, #0
}
 800142a:	4618      	mov	r0, r3
 800142c:	370c      	adds	r7, #12
 800142e:	46bd      	mov	sp, r7
 8001430:	bc80      	pop	{r7}
 8001432:	4770      	bx	lr

08001434 <_isatty>:

int _isatty(int file)
{
 8001434:	b480      	push	{r7}
 8001436:	b083      	sub	sp, #12
 8001438:	af00      	add	r7, sp, #0
 800143a:	6078      	str	r0, [r7, #4]
	return 1;
 800143c:	2301      	movs	r3, #1
}
 800143e:	4618      	mov	r0, r3
 8001440:	370c      	adds	r7, #12
 8001442:	46bd      	mov	sp, r7
 8001444:	bc80      	pop	{r7}
 8001446:	4770      	bx	lr

08001448 <_lseek>:

int _lseek(int file, int ptr, int dir)
{
 8001448:	b480      	push	{r7}
 800144a:	b085      	sub	sp, #20
 800144c:	af00      	add	r7, sp, #0
 800144e:	60f8      	str	r0, [r7, #12]
 8001450:	60b9      	str	r1, [r7, #8]
 8001452:	607a      	str	r2, [r7, #4]
	return 0;
 8001454:	2300      	movs	r3, #0
}
 8001456:	4618      	mov	r0, r3
 8001458:	3714      	adds	r7, #20
 800145a:	46bd      	mov	sp, r7
 800145c:	bc80      	pop	{r7}
 800145e:	4770      	bx	lr

08001460 <_sbrk>:
 *
 * @param incr Memory size
 * @return Pointer to allocated memory
 */
void *_sbrk(ptrdiff_t incr)
{
 8001460:	b580      	push	{r7, lr}
 8001462:	b086      	sub	sp, #24
 8001464:	af00      	add	r7, sp, #0
 8001466:	6078      	str	r0, [r7, #4]
  extern uint8_t _end; /* Symbol defined in the linker script */
  extern uint8_t _estack; /* Symbol defined in the linker script */
  extern uint32_t _Min_Stack_Size; /* Symbol defined in the linker script */
  const uint32_t stack_limit = (uint32_t)&_estack - (uint32_t)&_Min_Stack_Size;
 8001468:	4a14      	ldr	r2, [pc, #80]	; (80014bc <_sbrk+0x5c>)
 800146a:	4b15      	ldr	r3, [pc, #84]	; (80014c0 <_sbrk+0x60>)
 800146c:	1ad3      	subs	r3, r2, r3
 800146e:	617b      	str	r3, [r7, #20]
  const uint8_t *max_heap = (uint8_t *)stack_limit;
 8001470:	697b      	ldr	r3, [r7, #20]
 8001472:	613b      	str	r3, [r7, #16]
  uint8_t *prev_heap_end;

  /* Initialize heap end at first call */
  if (NULL == __sbrk_heap_end)
 8001474:	4b13      	ldr	r3, [pc, #76]	; (80014c4 <_sbrk+0x64>)
 8001476:	681b      	ldr	r3, [r3, #0]
 8001478:	2b00      	cmp	r3, #0
 800147a:	d102      	bne.n	8001482 <_sbrk+0x22>
  {
    __sbrk_heap_end = &_end;
 800147c:	4b11      	ldr	r3, [pc, #68]	; (80014c4 <_sbrk+0x64>)
 800147e:	4a12      	ldr	r2, [pc, #72]	; (80014c8 <_sbrk+0x68>)
 8001480:	601a      	str	r2, [r3, #0]
  }

  /* Protect heap from growing into the reserved MSP stack */
  if (__sbrk_heap_end + incr > max_heap)
 8001482:	4b10      	ldr	r3, [pc, #64]	; (80014c4 <_sbrk+0x64>)
 8001484:	681a      	ldr	r2, [r3, #0]
 8001486:	687b      	ldr	r3, [r7, #4]
 8001488:	4413      	add	r3, r2
 800148a:	693a      	ldr	r2, [r7, #16]
 800148c:	429a      	cmp	r2, r3
 800148e:	d207      	bcs.n	80014a0 <_sbrk+0x40>
  {
    errno = ENOMEM;
 8001490:	f002 fc94 	bl	8003dbc <__errno>
 8001494:	4603      	mov	r3, r0
 8001496:	220c      	movs	r2, #12
 8001498:	601a      	str	r2, [r3, #0]
    return (void *)-1;
 800149a:	f04f 33ff 	mov.w	r3, #4294967295
 800149e:	e009      	b.n	80014b4 <_sbrk+0x54>
  }

  prev_heap_end = __sbrk_heap_end;
 80014a0:	4b08      	ldr	r3, [pc, #32]	; (80014c4 <_sbrk+0x64>)
 80014a2:	681b      	ldr	r3, [r3, #0]
 80014a4:	60fb      	str	r3, [r7, #12]
  __sbrk_heap_end += incr;
 80014a6:	4b07      	ldr	r3, [pc, #28]	; (80014c4 <_sbrk+0x64>)
 80014a8:	681a      	ldr	r2, [r3, #0]
 80014aa:	687b      	ldr	r3, [r7, #4]
 80014ac:	4413      	add	r3, r2
 80014ae:	4a05      	ldr	r2, [pc, #20]	; (80014c4 <_sbrk+0x64>)
 80014b0:	6013      	str	r3, [r2, #0]

  return (void *)prev_heap_end;
 80014b2:	68fb      	ldr	r3, [r7, #12]
}
 80014b4:	4618      	mov	r0, r3
 80014b6:	3718      	adds	r7, #24
 80014b8:	46bd      	mov	sp, r7
 80014ba:	bd80      	pop	{r7, pc}
 80014bc:	20002800 	.word	0x20002800
 80014c0:	00000400 	.word	0x00000400
 80014c4:	200000ac 	.word	0x200000ac
 80014c8:	200001a8 	.word	0x200001a8

080014cc <SystemInit>:
  * @note   This function should be used only after reset.
  * @param  None
  * @retval None
  */
void SystemInit (void)
{
 80014cc:	b480      	push	{r7}
 80014ce:	af00      	add	r7, sp, #0

  /* Configure the Vector Table location -------------------------------------*/
#if defined(USER_VECT_TAB_ADDRESS)
  SCB->VTOR = VECT_TAB_BASE_ADDRESS | VECT_TAB_OFFSET; /* Vector Table Relocation in Internal SRAM. */
#endif /* USER_VECT_TAB_ADDRESS */
}
 80014d0:	bf00      	nop
 80014d2:	46bd      	mov	sp, r7
 80014d4:	bc80      	pop	{r7}
 80014d6:	4770      	bx	lr

080014d8 <Reset_Handler>:
  .weak Reset_Handler
  .type Reset_Handler, %function
Reset_Handler:

/* Copy the data segment initializers from flash to SRAM */
  ldr r0, =_sdata
 80014d8:	480c      	ldr	r0, [pc, #48]	; (800150c <LoopFillZerobss+0x12>)
  ldr r1, =_edata
 80014da:	490d      	ldr	r1, [pc, #52]	; (8001510 <LoopFillZerobss+0x16>)
  ldr r2, =_sidata
 80014dc:	4a0d      	ldr	r2, [pc, #52]	; (8001514 <LoopFillZerobss+0x1a>)
  movs r3, #0
 80014de:	2300      	movs	r3, #0
  b LoopCopyDataInit
 80014e0:	e002      	b.n	80014e8 <LoopCopyDataInit>

080014e2 <CopyDataInit>:

CopyDataInit:
  ldr r4, [r2, r3]
 80014e2:	58d4      	ldr	r4, [r2, r3]
  str r4, [r0, r3]
 80014e4:	50c4      	str	r4, [r0, r3]
  adds r3, r3, #4
 80014e6:	3304      	adds	r3, #4

080014e8 <LoopCopyDataInit>:

LoopCopyDataInit:
  adds r4, r0, r3
 80014e8:	18c4      	adds	r4, r0, r3
  cmp r4, r1
 80014ea:	428c      	cmp	r4, r1
  bcc CopyDataInit
 80014ec:	d3f9      	bcc.n	80014e2 <CopyDataInit>
  
/* Zero fill the bss segment. */
  ldr r2, =_sbss
 80014ee:	4a0a      	ldr	r2, [pc, #40]	; (8001518 <LoopFillZerobss+0x1e>)
  ldr r4, =_ebss
 80014f0:	4c0a      	ldr	r4, [pc, #40]	; (800151c <LoopFillZerobss+0x22>)
  movs r3, #0
 80014f2:	2300      	movs	r3, #0
  b LoopFillZerobss
 80014f4:	e001      	b.n	80014fa <LoopFillZerobss>

080014f6 <FillZerobss>:

FillZerobss:
  str  r3, [r2]
 80014f6:	6013      	str	r3, [r2, #0]
  adds r2, r2, #4
 80014f8:	3204      	adds	r2, #4

080014fa <LoopFillZerobss>:

LoopFillZerobss:
  cmp r2, r4
 80014fa:	42a2      	cmp	r2, r4
  bcc FillZerobss
 80014fc:	d3fb      	bcc.n	80014f6 <FillZerobss>

/* Call the clock system intitialization function.*/
    bl  SystemInit
 80014fe:	f7ff ffe5 	bl	80014cc <SystemInit>
/* Call static constructors */
    bl __libc_init_array
 8001502:	f002 fc61 	bl	8003dc8 <__libc_init_array>
/* Call the application's entry point.*/
  bl main
 8001506:	f7ff fd11 	bl	8000f2c <main>
  bx lr
 800150a:	4770      	bx	lr
  ldr r0, =_sdata
 800150c:	20000000 	.word	0x20000000
  ldr r1, =_edata
 8001510:	20000074 	.word	0x20000074
  ldr r2, =_sidata
 8001514:	0800586c 	.word	0x0800586c
  ldr r2, =_sbss
 8001518:	20000074 	.word	0x20000074
  ldr r4, =_ebss
 800151c:	200001a4 	.word	0x200001a4

08001520 <ADC1_2_IRQHandler>:
 * @retval : None
*/
    .section .text.Default_Handler,"ax",%progbits
Default_Handler:
Infinite_Loop:
  b Infinite_Loop
 8001520:	e7fe      	b.n	8001520 <ADC1_2_IRQHandler>
	...

08001524 <HAL_Init>:
  *         need to ensure that the SysTick time base is always set to 1 millisecond
  *         to have correct HAL operation.
  * @retval HAL status
  */
HAL_StatusTypeDef HAL_Init(void)
{
 8001524:	b580      	push	{r7, lr}
 8001526:	af00      	add	r7, sp, #0
    defined(STM32F102x6) || defined(STM32F102xB) || \
    defined(STM32F103x6) || defined(STM32F103xB) || defined(STM32F103xE) || defined(STM32F103xG) || \
    defined(STM32F105xC) || defined(STM32F107xC)

  /* Prefetch buffer is not available on value line devices */
  __HAL_FLASH_PREFETCH_BUFFER_ENABLE();
 8001528:	4b08      	ldr	r3, [pc, #32]	; (800154c <HAL_Init+0x28>)
 800152a:	681b      	ldr	r3, [r3, #0]
 800152c:	4a07      	ldr	r2, [pc, #28]	; (800154c <HAL_Init+0x28>)
 800152e:	f043 0310 	orr.w	r3, r3, #16
 8001532:	6013      	str	r3, [r2, #0]
#endif
#endif /* PREFETCH_ENABLE */

  /* Set Interrupt Group Priority */
  HAL_NVIC_SetPriorityGrouping(NVIC_PRIORITYGROUP_4);
 8001534:	2003      	movs	r0, #3
 8001536:	f000 f923 	bl	8001780 <HAL_NVIC_SetPriorityGrouping>

  /* Use systick as time base source and configure 1ms tick (default clock after Reset is HSI) */
  HAL_InitTick(TICK_INT_PRIORITY);
 800153a:	2000      	movs	r0, #0
 800153c:	f000 f808 	bl	8001550 <HAL_InitTick>

  /* Init the low level hardware */
  HAL_MspInit();
 8001540:	f7ff fe28 	bl	8001194 <HAL_MspInit>

  /* Return function status */
  return HAL_OK;
 8001544:	2300      	movs	r3, #0
}
 8001546:	4618      	mov	r0, r3
 8001548:	bd80      	pop	{r7, pc}
 800154a:	bf00      	nop
 800154c:	40022000 	.word	0x40022000

08001550 <HAL_InitTick>:
  *       implementation  in user file.
  * @param TickPriority Tick interrupt priority.
  * @retval HAL status
  */
__weak HAL_StatusTypeDef HAL_InitTick(uint32_t TickPriority)
{
 8001550:	b580      	push	{r7, lr}
 8001552:	b082      	sub	sp, #8
 8001554:	af00      	add	r7, sp, #0
 8001556:	6078      	str	r0, [r7, #4]
  /* Configure the SysTick to have interrupt in 1ms time basis*/
  if (HAL_SYSTICK_Config(SystemCoreClock / (1000U / uwTickFreq)) > 0U)
 8001558:	4b12      	ldr	r3, [pc, #72]	; (80015a4 <HAL_InitTick+0x54>)
 800155a:	681a      	ldr	r2, [r3, #0]
 800155c:	4b12      	ldr	r3, [pc, #72]	; (80015a8 <HAL_InitTick+0x58>)
 800155e:	781b      	ldrb	r3, [r3, #0]
 8001560:	4619      	mov	r1, r3
 8001562:	f44f 737a 	mov.w	r3, #1000	; 0x3e8
 8001566:	fbb3 f3f1 	udiv	r3, r3, r1
 800156a:	fbb2 f3f3 	udiv	r3, r2, r3
 800156e:	4618      	mov	r0, r3
 8001570:	f000 f93b 	bl	80017ea <HAL_SYSTICK_Config>
 8001574:	4603      	mov	r3, r0
 8001576:	2b00      	cmp	r3, #0
 8001578:	d001      	beq.n	800157e <HAL_InitTick+0x2e>
  {
    return HAL_ERROR;
 800157a:	2301      	movs	r3, #1
 800157c:	e00e      	b.n	800159c <HAL_InitTick+0x4c>
  }

  /* Configure the SysTick IRQ priority */
  if (TickPriority < (1UL << __NVIC_PRIO_BITS))
 800157e:	687b      	ldr	r3, [r7, #4]
 8001580:	2b0f      	cmp	r3, #15
 8001582:	d80a      	bhi.n	800159a <HAL_InitTick+0x4a>
  {
    HAL_NVIC_SetPriority(SysTick_IRQn, TickPriority, 0U);
 8001584:	2200      	movs	r2, #0
 8001586:	6879      	ldr	r1, [r7, #4]
 8001588:	f04f 30ff 	mov.w	r0, #4294967295
 800158c:	f000 f903 	bl	8001796 <HAL_NVIC_SetPriority>
    uwTickPrio = TickPriority;
 8001590:	4a06      	ldr	r2, [pc, #24]	; (80015ac <HAL_InitTick+0x5c>)
 8001592:	687b      	ldr	r3, [r7, #4]
 8001594:	6013      	str	r3, [r2, #0]
  {
    return HAL_ERROR;
  }

  /* Return function status */
  return HAL_OK;
 8001596:	2300      	movs	r3, #0
 8001598:	e000      	b.n	800159c <HAL_InitTick+0x4c>
    return HAL_ERROR;
 800159a:	2301      	movs	r3, #1
}
 800159c:	4618      	mov	r0, r3
 800159e:	3708      	adds	r7, #8
 80015a0:	46bd      	mov	sp, r7
 80015a2:	bd80      	pop	{r7, pc}
 80015a4:	20000004 	.word	0x20000004
 80015a8:	2000000c 	.word	0x2000000c
 80015ac:	20000008 	.word	0x20000008

080015b0 <HAL_IncTick>:
  * @note This function is declared as __weak to be overwritten in case of other
  *      implementations in user file.
  * @retval None
  */
__weak void HAL_IncTick(void)
{
 80015b0:	b480      	push	{r7}
 80015b2:	af00      	add	r7, sp, #0
  uwTick += uwTickFreq;
 80015b4:	4b05      	ldr	r3, [pc, #20]	; (80015cc <HAL_IncTick+0x1c>)
 80015b6:	781b      	ldrb	r3, [r3, #0]
 80015b8:	461a      	mov	r2, r3
 80015ba:	4b05      	ldr	r3, [pc, #20]	; (80015d0 <HAL_IncTick+0x20>)
 80015bc:	681b      	ldr	r3, [r3, #0]
 80015be:	4413      	add	r3, r2
 80015c0:	4a03      	ldr	r2, [pc, #12]	; (80015d0 <HAL_IncTick+0x20>)
 80015c2:	6013      	str	r3, [r2, #0]
}
 80015c4:	bf00      	nop
 80015c6:	46bd      	mov	sp, r7
 80015c8:	bc80      	pop	{r7}
 80015ca:	4770      	bx	lr
 80015cc:	2000000c 	.word	0x2000000c
 80015d0:	20000190 	.word	0x20000190

080015d4 <HAL_GetTick>:
  * @note  This function is declared as __weak to be overwritten in case of other
  *       implementations in user file.
  * @retval tick value
  */
__weak uint32_t HAL_GetTick(void)
{
 80015d4:	b480      	push	{r7}
 80015d6:	af00      	add	r7, sp, #0
  return uwTick;
 80015d8:	4b02      	ldr	r3, [pc, #8]	; (80015e4 <HAL_GetTick+0x10>)
 80015da:	681b      	ldr	r3, [r3, #0]
}
 80015dc:	4618      	mov	r0, r3
 80015de:	46bd      	mov	sp, r7
 80015e0:	bc80      	pop	{r7}
 80015e2:	4770      	bx	lr
 80015e4:	20000190 	.word	0x20000190

080015e8 <__NVIC_SetPriorityGrouping>:
           In case of a conflict between priority grouping and available
           priority bits (__NVIC_PRIO_BITS), the smallest possible priority group is set.
  \param [in]      PriorityGroup  Priority grouping field.
 */
__STATIC_INLINE void __NVIC_SetPriorityGrouping(uint32_t PriorityGroup)
{
 80015e8:	b480      	push	{r7}
 80015ea:	b085      	sub	sp, #20
 80015ec:	af00      	add	r7, sp, #0
 80015ee:	6078      	str	r0, [r7, #4]
  uint32_t reg_value;
  uint32_t PriorityGroupTmp = (PriorityGroup & (uint32_t)0x07UL);             /* only values 0..7 are used          */
 80015f0:	687b      	ldr	r3, [r7, #4]
 80015f2:	f003 0307 	and.w	r3, r3, #7
 80015f6:	60fb      	str	r3, [r7, #12]

  reg_value  =  SCB->AIRCR;                                                   /* read old register configuration    */
 80015f8:	4b0c      	ldr	r3, [pc, #48]	; (800162c <__NVIC_SetPriorityGrouping+0x44>)
 80015fa:	68db      	ldr	r3, [r3, #12]
 80015fc:	60bb      	str	r3, [r7, #8]
  reg_value &= ~((uint32_t)(SCB_AIRCR_VECTKEY_Msk | SCB_AIRCR_PRIGROUP_Msk)); /* clear bits to change               */
 80015fe:	68ba      	ldr	r2, [r7, #8]
 8001600:	f64f 03ff 	movw	r3, #63743	; 0xf8ff
 8001604:	4013      	ands	r3, r2
 8001606:	60bb      	str	r3, [r7, #8]
  reg_value  =  (reg_value                                   |
                ((uint32_t)0x5FAUL << SCB_AIRCR_VECTKEY_Pos) |
                (PriorityGroupTmp << SCB_AIRCR_PRIGROUP_Pos) );               /* Insert write key and priority group */
 8001608:	68fb      	ldr	r3, [r7, #12]
 800160a:	021a      	lsls	r2, r3, #8
                ((uint32_t)0x5FAUL << SCB_AIRCR_VECTKEY_Pos) |
 800160c:	68bb      	ldr	r3, [r7, #8]
 800160e:	4313      	orrs	r3, r2
  reg_value  =  (reg_value                                   |
 8001610:	f043 63bf 	orr.w	r3, r3, #100139008	; 0x5f80000
 8001614:	f443 3300 	orr.w	r3, r3, #131072	; 0x20000
 8001618:	60bb      	str	r3, [r7, #8]
  SCB->AIRCR =  reg_value;
 800161a:	4a04      	ldr	r2, [pc, #16]	; (800162c <__NVIC_SetPriorityGrouping+0x44>)
 800161c:	68bb      	ldr	r3, [r7, #8]
 800161e:	60d3      	str	r3, [r2, #12]
}
 8001620:	bf00      	nop
 8001622:	3714      	adds	r7, #20
 8001624:	46bd      	mov	sp, r7
 8001626:	bc80      	pop	{r7}
 8001628:	4770      	bx	lr
 800162a:	bf00      	nop
 800162c:	e000ed00 	.word	0xe000ed00

08001630 <__NVIC_GetPriorityGrouping>:
  \brief   Get Priority Grouping
  \details Reads the priority grouping field from the NVIC Interrupt Controller.
  \return                Priority grouping field (SCB->AIRCR [10:8] PRIGROUP field).
 */
__STATIC_INLINE uint32_t __NVIC_GetPriorityGrouping(void)
{
 8001630:	b480      	push	{r7}
 8001632:	af00      	add	r7, sp, #0
  return ((uint32_t)((SCB->AIRCR & SCB_AIRCR_PRIGROUP_Msk) >> SCB_AIRCR_PRIGROUP_Pos));
 8001634:	4b04      	ldr	r3, [pc, #16]	; (8001648 <__NVIC_GetPriorityGrouping+0x18>)
 8001636:	68db      	ldr	r3, [r3, #12]
 8001638:	0a1b      	lsrs	r3, r3, #8
 800163a:	f003 0307 	and.w	r3, r3, #7
}
 800163e:	4618      	mov	r0, r3
 8001640:	46bd      	mov	sp, r7
 8001642:	bc80      	pop	{r7}
 8001644:	4770      	bx	lr
 8001646:	bf00      	nop
 8001648:	e000ed00 	.word	0xe000ed00

0800164c <__NVIC_EnableIRQ>:
  \details Enables a device specific interrupt in the NVIC interrupt controller.
  \param [in]      IRQn  Device specific interrupt number.
  \note    IRQn must not be negative.
 */
__STATIC_INLINE void __NVIC_EnableIRQ(IRQn_Type IRQn)
{
 800164c:	b480      	push	{r7}
 800164e:	b083      	sub	sp, #12
 8001650:	af00      	add	r7, sp, #0
 8001652:	4603      	mov	r3, r0
 8001654:	71fb      	strb	r3, [r7, #7]
  if ((int32_t)(IRQn) >= 0)
 8001656:	f997 3007 	ldrsb.w	r3, [r7, #7]
 800165a:	2b00      	cmp	r3, #0
 800165c:	db0b      	blt.n	8001676 <__NVIC_EnableIRQ+0x2a>
  {
    NVIC->ISER[(((uint32_t)IRQn) >> 5UL)] = (uint32_t)(1UL << (((uint32_t)IRQn) & 0x1FUL));
 800165e:	79fb      	ldrb	r3, [r7, #7]
 8001660:	f003 021f 	and.w	r2, r3, #31
 8001664:	4906      	ldr	r1, [pc, #24]	; (8001680 <__NVIC_EnableIRQ+0x34>)
 8001666:	f997 3007 	ldrsb.w	r3, [r7, #7]
 800166a:	095b      	lsrs	r3, r3, #5
 800166c:	2001      	movs	r0, #1
 800166e:	fa00 f202 	lsl.w	r2, r0, r2
 8001672:	f841 2023 	str.w	r2, [r1, r3, lsl #2]
  }
}
 8001676:	bf00      	nop
 8001678:	370c      	adds	r7, #12
 800167a:	46bd      	mov	sp, r7
 800167c:	bc80      	pop	{r7}
 800167e:	4770      	bx	lr
 8001680:	e000e100 	.word	0xe000e100

08001684 <__NVIC_SetPriority>:
  \param [in]      IRQn  Interrupt number.
  \param [in]  priority  Priority to set.
  \note    The priority cannot be set for every processor exception.
 */
__STATIC_INLINE void __NVIC_SetPriority(IRQn_Type IRQn, uint32_t priority)
{
 8001684:	b480      	push	{r7}
 8001686:	b083      	sub	sp, #12
 8001688:	af00      	add	r7, sp, #0
 800168a:	4603      	mov	r3, r0
 800168c:	6039      	str	r1, [r7, #0]
 800168e:	71fb      	strb	r3, [r7, #7]
  if ((int32_t)(IRQn) >= 0)
 8001690:	f997 3007 	ldrsb.w	r3, [r7, #7]
 8001694:	2b00      	cmp	r3, #0
 8001696:	db0a      	blt.n	80016ae <__NVIC_SetPriority+0x2a>
  {
    NVIC->IP[((uint32_t)IRQn)]               = (uint8_t)((priority << (8U - __NVIC_PRIO_BITS)) & (uint32_t)0xFFUL);
 8001698:	683b      	ldr	r3, [r7, #0]
 800169a:	b2da      	uxtb	r2, r3
 800169c:	490c      	ldr	r1, [pc, #48]	; (80016d0 <__NVIC_SetPriority+0x4c>)
 800169e:	f997 3007 	ldrsb.w	r3, [r7, #7]
 80016a2:	0112      	lsls	r2, r2, #4
 80016a4:	b2d2      	uxtb	r2, r2
 80016a6:	440b      	add	r3, r1
 80016a8:	f883 2300 	strb.w	r2, [r3, #768]	; 0x300
  }
  else
  {
    SCB->SHP[(((uint32_t)IRQn) & 0xFUL)-4UL] = (uint8_t)((priority << (8U - __NVIC_PRIO_BITS)) & (uint32_t)0xFFUL);
  }
}
 80016ac:	e00a      	b.n	80016c4 <__NVIC_SetPriority+0x40>
    SCB->SHP[(((uint32_t)IRQn) & 0xFUL)-4UL] = (uint8_t)((priority << (8U - __NVIC_PRIO_BITS)) & (uint32_t)0xFFUL);
 80016ae:	683b      	ldr	r3, [r7, #0]
 80016b0:	b2da      	uxtb	r2, r3
 80016b2:	4908      	ldr	r1, [pc, #32]	; (80016d4 <__NVIC_SetPriority+0x50>)
 80016b4:	79fb      	ldrb	r3, [r7, #7]
 80016b6:	f003 030f 	and.w	r3, r3, #15
 80016ba:	3b04      	subs	r3, #4
 80016bc:	0112      	lsls	r2, r2, #4
 80016be:	b2d2      	uxtb	r2, r2
 80016c0:	440b      	add	r3, r1
 80016c2:	761a      	strb	r2, [r3, #24]
}
 80016c4:	bf00      	nop
 80016c6:	370c      	adds	r7, #12
 80016c8:	46bd      	mov	sp, r7
 80016ca:	bc80      	pop	{r7}
 80016cc:	4770      	bx	lr
 80016ce:	bf00      	nop
 80016d0:	e000e100 	.word	0xe000e100
 80016d4:	e000ed00 	.word	0xe000ed00

080016d8 <NVIC_EncodePriority>:
  \param [in]   PreemptPriority  Preemptive priority value (starting from 0).
  \param [in]       SubPriority  Subpriority value (starting from 0).
  \return                        Encoded priority. Value can be used in the function \ref NVIC_SetPriority().
 */
__STATIC_INLINE uint32_t NVIC_EncodePriority (uint32_t PriorityGroup, uint32_t PreemptPriority, uint32_t SubPriority)
{
 80016d8:	b480      	push	{r7}
 80016da:	b089      	sub	sp, #36	; 0x24
 80016dc:	af00      	add	r7, sp, #0
 80016de:	60f8      	str	r0, [r7, #12]
 80016e0:	60b9      	str	r1, [r7, #8]
 80016e2:	607a      	str	r2, [r7, #4]
  uint32_t PriorityGroupTmp = (PriorityGroup & (uint32_t)0x07UL);   /* only values 0..7 are used          */
 80016e4:	68fb      	ldr	r3, [r7, #12]
 80016e6:	f003 0307 	and.w	r3, r3, #7
 80016ea:	61fb      	str	r3, [r7, #28]
  uint32_t PreemptPriorityBits;
  uint32_t SubPriorityBits;

  PreemptPriorityBits = ((7UL - PriorityGroupTmp) > (uint32_t)(__NVIC_PRIO_BITS)) ? (uint32_t)(__NVIC_PRIO_BITS) : (uint32_t)(7UL - PriorityGroupTmp);
 80016ec:	69fb      	ldr	r3, [r7, #28]
 80016ee:	f1c3 0307 	rsb	r3, r3, #7
 80016f2:	2b04      	cmp	r3, #4
 80016f4:	bf28      	it	cs
 80016f6:	2304      	movcs	r3, #4
 80016f8:	61bb      	str	r3, [r7, #24]
  SubPriorityBits     = ((PriorityGroupTmp + (uint32_t)(__NVIC_PRIO_BITS)) < (uint32_t)7UL) ? (uint32_t)0UL : (uint32_t)((PriorityGroupTmp - 7UL) + (uint32_t)(__NVIC_PRIO_BITS));
 80016fa:	69fb      	ldr	r3, [r7, #28]
 80016fc:	3304      	adds	r3, #4
 80016fe:	2b06      	cmp	r3, #6
 8001700:	d902      	bls.n	8001708 <NVIC_EncodePriority+0x30>
 8001702:	69fb      	ldr	r3, [r7, #28]
 8001704:	3b03      	subs	r3, #3
 8001706:	e000      	b.n	800170a <NVIC_EncodePriority+0x32>
 8001708:	2300      	movs	r3, #0
 800170a:	617b      	str	r3, [r7, #20]

  return (
           ((PreemptPriority & (uint32_t)((1UL << (PreemptPriorityBits)) - 1UL)) << SubPriorityBits) |
 800170c:	f04f 32ff 	mov.w	r2, #4294967295
 8001710:	69bb      	ldr	r3, [r7, #24]
 8001712:	fa02 f303 	lsl.w	r3, r2, r3
 8001716:	43da      	mvns	r2, r3
 8001718:	68bb      	ldr	r3, [r7, #8]
 800171a:	401a      	ands	r2, r3
 800171c:	697b      	ldr	r3, [r7, #20]
 800171e:	409a      	lsls	r2, r3
           ((SubPriority     & (uint32_t)((1UL << (SubPriorityBits    )) - 1UL)))
 8001720:	f04f 31ff 	mov.w	r1, #4294967295
 8001724:	697b      	ldr	r3, [r7, #20]
 8001726:	fa01 f303 	lsl.w	r3, r1, r3
 800172a:	43d9      	mvns	r1, r3
 800172c:	687b      	ldr	r3, [r7, #4]
 800172e:	400b      	ands	r3, r1
           ((PreemptPriority & (uint32_t)((1UL << (PreemptPriorityBits)) - 1UL)) << SubPriorityBits) |
 8001730:	4313      	orrs	r3, r2
         );
}
 8001732:	4618      	mov	r0, r3
 8001734:	3724      	adds	r7, #36	; 0x24
 8001736:	46bd      	mov	sp, r7
 8001738:	bc80      	pop	{r7}
 800173a:	4770      	bx	lr

0800173c <SysTick_Config>:
  \note    When the variable <b>__Vendor_SysTickConfig</b> is set to 1, then the
           function <b>SysTick_Config</b> is not included. In this case, the file <b><i>device</i>.h</b>
           must contain a vendor-specific implementation of this function.
 */
__STATIC_INLINE uint32_t SysTick_Config(uint32_t ticks)
{
 800173c:	b580      	push	{r7, lr}
 800173e:	b082      	sub	sp, #8
 8001740:	af00      	add	r7, sp, #0
 8001742:	6078      	str	r0, [r7, #4]
  if ((ticks - 1UL) > SysTick_LOAD_RELOAD_Msk)
 8001744:	687b      	ldr	r3, [r7, #4]
 8001746:	3b01      	subs	r3, #1
 8001748:	f1b3 7f80 	cmp.w	r3, #16777216	; 0x1000000
 800174c:	d301      	bcc.n	8001752 <SysTick_Config+0x16>
  {
    return (1UL);                                                   /* Reload value impossible */
 800174e:	2301      	movs	r3, #1
 8001750:	e00f      	b.n	8001772 <SysTick_Config+0x36>
  }

  SysTick->LOAD  = (uint32_t)(ticks - 1UL);                         /* set reload register */
 8001752:	4a0a      	ldr	r2, [pc, #40]	; (800177c <SysTick_Config+0x40>)
 8001754:	687b      	ldr	r3, [r7, #4]
 8001756:	3b01      	subs	r3, #1
 8001758:	6053      	str	r3, [r2, #4]
  NVIC_SetPriority (SysTick_IRQn, (1UL << __NVIC_PRIO_BITS) - 1UL); /* set Priority for Systick Interrupt */
 800175a:	210f      	movs	r1, #15
 800175c:	f04f 30ff 	mov.w	r0, #4294967295
 8001760:	f7ff ff90 	bl	8001684 <__NVIC_SetPriority>
  SysTick->VAL   = 0UL;                                             /* Load the SysTick Counter Value */
 8001764:	4b05      	ldr	r3, [pc, #20]	; (800177c <SysTick_Config+0x40>)
 8001766:	2200      	movs	r2, #0
 8001768:	609a      	str	r2, [r3, #8]
  SysTick->CTRL  = SysTick_CTRL_CLKSOURCE_Msk |
 800176a:	4b04      	ldr	r3, [pc, #16]	; (800177c <SysTick_Config+0x40>)
 800176c:	2207      	movs	r2, #7
 800176e:	601a      	str	r2, [r3, #0]
                   SysTick_CTRL_TICKINT_Msk   |
                   SysTick_CTRL_ENABLE_Msk;                         /* Enable SysTick IRQ and SysTick Timer */
  return (0UL);                                                     /* Function successful */
 8001770:	2300      	movs	r3, #0
}
 8001772:	4618      	mov	r0, r3
 8001774:	3708      	adds	r7, #8
 8001776:	46bd      	mov	sp, r7
 8001778:	bd80      	pop	{r7, pc}
 800177a:	bf00      	nop
 800177c:	e000e010 	.word	0xe000e010

08001780 <HAL_NVIC_SetPriorityGrouping>:
  * @note   When the NVIC_PriorityGroup_0 is selected, IRQ preemption is no more possible. 
  *         The pending IRQ priority will be managed only by the subpriority. 
  * @retval None
  */
void HAL_NVIC_SetPriorityGrouping(uint32_t PriorityGroup)
{
 8001780:	b580      	push	{r7, lr}
 8001782:	b082      	sub	sp, #8
 8001784:	af00      	add	r7, sp, #0
 8001786:	6078      	str	r0, [r7, #4]
  /* Check the parameters */
  assert_param(IS_NVIC_PRIORITY_GROUP(PriorityGroup));
  
  /* Set the PRIGROUP[10:8] bits according to the PriorityGroup parameter value */
  NVIC_SetPriorityGrouping(PriorityGroup);
 8001788:	6878      	ldr	r0, [r7, #4]
 800178a:	f7ff ff2d 	bl	80015e8 <__NVIC_SetPriorityGrouping>
}
 800178e:	bf00      	nop
 8001790:	3708      	adds	r7, #8
 8001792:	46bd      	mov	sp, r7
 8001794:	bd80      	pop	{r7, pc}

08001796 <HAL_NVIC_SetPriority>:
  *         This parameter can be a value between 0 and 15
  *         A lower priority value indicates a higher priority.          
  * @retval None
  */
void HAL_NVIC_SetPriority(IRQn_Type IRQn, uint32_t PreemptPriority, uint32_t SubPriority)
{ 
 8001796:	b580      	push	{r7, lr}
 8001798:	b086      	sub	sp, #24
 800179a:	af00      	add	r7, sp, #0
 800179c:	4603      	mov	r3, r0
 800179e:	60b9      	str	r1, [r7, #8]
 80017a0:	607a      	str	r2, [r7, #4]
 80017a2:	73fb      	strb	r3, [r7, #15]
  uint32_t prioritygroup = 0x00U;
 80017a4:	2300      	movs	r3, #0
 80017a6:	617b      	str	r3, [r7, #20]
  
  /* Check the parameters */
  assert_param(IS_NVIC_SUB_PRIORITY(SubPriority));
  assert_param(IS_NVIC_PREEMPTION_PRIORITY(PreemptPriority));
  
  prioritygroup = NVIC_GetPriorityGrouping();
 80017a8:	f7ff ff42 	bl	8001630 <__NVIC_GetPriorityGrouping>
 80017ac:	6178      	str	r0, [r7, #20]
  
  NVIC_SetPriority(IRQn, NVIC_EncodePriority(prioritygroup, PreemptPriority, SubPriority));
 80017ae:	687a      	ldr	r2, [r7, #4]
 80017b0:	68b9      	ldr	r1, [r7, #8]
 80017b2:	6978      	ldr	r0, [r7, #20]
 80017b4:	f7ff ff90 	bl	80016d8 <NVIC_EncodePriority>
 80017b8:	4602      	mov	r2, r0
 80017ba:	f997 300f 	ldrsb.w	r3, [r7, #15]
 80017be:	4611      	mov	r1, r2
 80017c0:	4618      	mov	r0, r3
 80017c2:	f7ff ff5f 	bl	8001684 <__NVIC_SetPriority>
}
 80017c6:	bf00      	nop
 80017c8:	3718      	adds	r7, #24
 80017ca:	46bd      	mov	sp, r7
 80017cc:	bd80      	pop	{r7, pc}

080017ce <HAL_NVIC_EnableIRQ>:
  *         This parameter can be an enumerator of IRQn_Type enumeration
  *         (For the complete STM32 Devices IRQ Channels list, please refer to the appropriate CMSIS device file (stm32f10xxx.h))
  * @retval None
  */
void HAL_NVIC_EnableIRQ(IRQn_Type IRQn)
{
 80017ce:	b580      	push	{r7, lr}
 80017d0:	b082      	sub	sp, #8
 80017d2:	af00      	add	r7, sp, #0
 80017d4:	4603      	mov	r3, r0
 80017d6:	71fb      	strb	r3, [r7, #7]
  /* Check the parameters */
  assert_param(IS_NVIC_DEVICE_IRQ(IRQn));

  /* Enable interrupt */
  NVIC_EnableIRQ(IRQn);
 80017d8:	f997 3007 	ldrsb.w	r3, [r7, #7]
 80017dc:	4618      	mov	r0, r3
 80017de:	f7ff ff35 	bl	800164c <__NVIC_EnableIRQ>
}
 80017e2:	bf00      	nop
 80017e4:	3708      	adds	r7, #8
 80017e6:	46bd      	mov	sp, r7
 80017e8:	bd80      	pop	{r7, pc}

080017ea <HAL_SYSTICK_Config>:
  * @param  TicksNumb: Specifies the ticks Number of ticks between two interrupts.
  * @retval status:  - 0  Function succeeded.
  *                  - 1  Function failed.
  */
uint32_t HAL_SYSTICK_Config(uint32_t TicksNumb)
{
 80017ea:	b580      	push	{r7, lr}
 80017ec:	b082      	sub	sp, #8
 80017ee:	af00      	add	r7, sp, #0
 80017f0:	6078      	str	r0, [r7, #4]
   return SysTick_Config(TicksNumb);
 80017f2:	6878      	ldr	r0, [r7, #4]
 80017f4:	f7ff ffa2 	bl	800173c <SysTick_Config>
 80017f8:	4603      	mov	r3, r0
}
 80017fa:	4618      	mov	r0, r3
 80017fc:	3708      	adds	r7, #8
 80017fe:	46bd      	mov	sp, r7
 8001800:	bd80      	pop	{r7, pc}

08001802 <HAL_DMA_Abort>:
  * @param  hdma: pointer to a DMA_HandleTypeDef structure that contains
  *               the configuration information for the specified DMA Channel.
  * @retval HAL status
  */
HAL_StatusTypeDef HAL_DMA_Abort(DMA_HandleTypeDef *hdma)
{
 8001802:	b480      	push	{r7}
 8001804:	b085      	sub	sp, #20
 8001806:	af00      	add	r7, sp, #0
 8001808:	6078      	str	r0, [r7, #4]
  HAL_StatusTypeDef status = HAL_OK;
 800180a:	2300      	movs	r3, #0
 800180c:	73fb      	strb	r3, [r7, #15]
  
  if(hdma->State != HAL_DMA_STATE_BUSY)
 800180e:	687b      	ldr	r3, [r7, #4]
 8001810:	f893 3021 	ldrb.w	r3, [r3, #33]	; 0x21
 8001814:	2b02      	cmp	r3, #2
 8001816:	d008      	beq.n	800182a <HAL_DMA_Abort+0x28>
  {
    /* no transfer ongoing */
    hdma->ErrorCode = HAL_DMA_ERROR_NO_XFER;
 8001818:	687b      	ldr	r3, [r7, #4]
 800181a:	2204      	movs	r2, #4
 800181c:	639a      	str	r2, [r3, #56]	; 0x38
    
    /* Process Unlocked */
    __HAL_UNLOCK(hdma);
 800181e:	687b      	ldr	r3, [r7, #4]
 8001820:	2200      	movs	r2, #0
 8001822:	f883 2020 	strb.w	r2, [r3, #32]
    
    return HAL_ERROR;
 8001826:	2301      	movs	r3, #1
 8001828:	e020      	b.n	800186c <HAL_DMA_Abort+0x6a>
  }
  else

  {
    /* Disable DMA IT */
    __HAL_DMA_DISABLE_IT(hdma, (DMA_IT_TC | DMA_IT_HT | DMA_IT_TE));
 800182a:	687b      	ldr	r3, [r7, #4]
 800182c:	681b      	ldr	r3, [r3, #0]
 800182e:	681a      	ldr	r2, [r3, #0]
 8001830:	687b      	ldr	r3, [r7, #4]
 8001832:	681b      	ldr	r3, [r3, #0]
 8001834:	f022 020e 	bic.w	r2, r2, #14
 8001838:	601a      	str	r2, [r3, #0]
      
    /* Disable the channel */
    __HAL_DMA_DISABLE(hdma);
 800183a:	687b      	ldr	r3, [r7, #4]
 800183c:	681b      	ldr	r3, [r3, #0]
 800183e:	681a      	ldr	r2, [r3, #0]
 8001840:	687b      	ldr	r3, [r7, #4]
 8001842:	681b      	ldr	r3, [r3, #0]
 8001844:	f022 0201 	bic.w	r2, r2, #1
 8001848:	601a      	str	r2, [r3, #0]
      
    /* Clear all flags */
    hdma->DmaBaseAddress->IFCR = (DMA_ISR_GIF1 << hdma->ChannelIndex);
 800184a:	687b      	ldr	r3, [r7, #4]
 800184c:	6c1a      	ldr	r2, [r3, #64]	; 0x40
 800184e:	687b      	ldr	r3, [r7, #4]
 8001850:	6bdb      	ldr	r3, [r3, #60]	; 0x3c
 8001852:	2101      	movs	r1, #1
 8001854:	fa01 f202 	lsl.w	r2, r1, r2
 8001858:	605a      	str	r2, [r3, #4]
  }
  /* Change the DMA state */
  hdma->State = HAL_DMA_STATE_READY;
 800185a:	687b      	ldr	r3, [r7, #4]
 800185c:	2201      	movs	r2, #1
 800185e:	f883 2021 	strb.w	r2, [r3, #33]	; 0x21

  /* Process Unlocked */
  __HAL_UNLOCK(hdma);      
 8001862:	687b      	ldr	r3, [r7, #4]
 8001864:	2200      	movs	r2, #0
 8001866:	f883 2020 	strb.w	r2, [r3, #32]
  
  return status; 
 800186a:	7bfb      	ldrb	r3, [r7, #15]
}
 800186c:	4618      	mov	r0, r3
 800186e:	3714      	adds	r7, #20
 8001870:	46bd      	mov	sp, r7
 8001872:	bc80      	pop	{r7}
 8001874:	4770      	bx	lr
	...

08001878 <HAL_DMA_Abort_IT>:
  * @param  hdma  : pointer to a DMA_HandleTypeDef structure that contains
  *                 the configuration information for the specified DMA Channel.
  * @retval HAL status
  */
HAL_StatusTypeDef HAL_DMA_Abort_IT(DMA_HandleTypeDef *hdma)
{  
 8001878:	b580      	push	{r7, lr}
 800187a:	b084      	sub	sp, #16
 800187c:	af00      	add	r7, sp, #0
 800187e:	6078      	str	r0, [r7, #4]
  HAL_StatusTypeDef status = HAL_OK;
 8001880:	2300      	movs	r3, #0
 8001882:	73fb      	strb	r3, [r7, #15]
  
  if(HAL_DMA_STATE_BUSY != hdma->State)
 8001884:	687b      	ldr	r3, [r7, #4]
 8001886:	f893 3021 	ldrb.w	r3, [r3, #33]	; 0x21
 800188a:	2b02      	cmp	r3, #2
 800188c:	d005      	beq.n	800189a <HAL_DMA_Abort_IT+0x22>
  {
    /* no transfer ongoing */
    hdma->ErrorCode = HAL_DMA_ERROR_NO_XFER;
 800188e:	687b      	ldr	r3, [r7, #4]
 8001890:	2204      	movs	r2, #4
 8001892:	639a      	str	r2, [r3, #56]	; 0x38
        
    status = HAL_ERROR;
 8001894:	2301      	movs	r3, #1
 8001896:	73fb      	strb	r3, [r7, #15]
 8001898:	e051      	b.n	800193e <HAL_DMA_Abort_IT+0xc6>
  }
  else
  { 
    /* Disable DMA IT */
    __HAL_DMA_DISABLE_IT(hdma, (DMA_IT_TC | DMA_IT_HT | DMA_IT_TE));
 800189a:	687b      	ldr	r3, [r7, #4]
 800189c:	681b      	ldr	r3, [r3, #0]
 800189e:	681a      	ldr	r2, [r3, #0]
 80018a0:	687b      	ldr	r3, [r7, #4]
 80018a2:	681b      	ldr	r3, [r3, #0]
 80018a4:	f022 020e 	bic.w	r2, r2, #14
 80018a8:	601a      	str	r2, [r3, #0]

    /* Disable the channel */
    __HAL_DMA_DISABLE(hdma);
 80018aa:	687b      	ldr	r3, [r7, #4]
 80018ac:	681b      	ldr	r3, [r3, #0]
 80018ae:	681a      	ldr	r2, [r3, #0]
 80018b0:	687b      	ldr	r3, [r7, #4]
 80018b2:	681b      	ldr	r3, [r3, #0]
 80018b4:	f022 0201 	bic.w	r2, r2, #1
 80018b8:	601a      	str	r2, [r3, #0]

    /* Clear all flags */
    __HAL_DMA_CLEAR_FLAG(hdma, __HAL_DMA_GET_GI_FLAG_INDEX(hdma));
 80018ba:	687b      	ldr	r3, [r7, #4]
 80018bc:	681b      	ldr	r3, [r3, #0]
 80018be:	4a22      	ldr	r2, [pc, #136]	; (8001948 <HAL_DMA_Abort_IT+0xd0>)
 80018c0:	4293      	cmp	r3, r2
 80018c2:	d029      	beq.n	8001918 <HAL_DMA_Abort_IT+0xa0>
 80018c4:	687b      	ldr	r3, [r7, #4]
 80018c6:	681b      	ldr	r3, [r3, #0]
 80018c8:	4a20      	ldr	r2, [pc, #128]	; (800194c <HAL_DMA_Abort_IT+0xd4>)
 80018ca:	4293      	cmp	r3, r2
 80018cc:	d022      	beq.n	8001914 <HAL_DMA_Abort_IT+0x9c>
 80018ce:	687b      	ldr	r3, [r7, #4]
 80018d0:	681b      	ldr	r3, [r3, #0]
 80018d2:	4a1f      	ldr	r2, [pc, #124]	; (8001950 <HAL_DMA_Abort_IT+0xd8>)
 80018d4:	4293      	cmp	r3, r2
 80018d6:	d01a      	beq.n	800190e <HAL_DMA_Abort_IT+0x96>
 80018d8:	687b      	ldr	r3, [r7, #4]
 80018da:	681b      	ldr	r3, [r3, #0]
 80018dc:	4a1d      	ldr	r2, [pc, #116]	; (8001954 <HAL_DMA_Abort_IT+0xdc>)
 80018de:	4293      	cmp	r3, r2
 80018e0:	d012      	beq.n	8001908 <HAL_DMA_Abort_IT+0x90>
 80018e2:	687b      	ldr	r3, [r7, #4]
 80018e4:	681b      	ldr	r3, [r3, #0]
 80018e6:	4a1c      	ldr	r2, [pc, #112]	; (8001958 <HAL_DMA_Abort_IT+0xe0>)
 80018e8:	4293      	cmp	r3, r2
 80018ea:	d00a      	beq.n	8001902 <HAL_DMA_Abort_IT+0x8a>
 80018ec:	687b      	ldr	r3, [r7, #4]
 80018ee:	681b      	ldr	r3, [r3, #0]
 80018f0:	4a1a      	ldr	r2, [pc, #104]	; (800195c <HAL_DMA_Abort_IT+0xe4>)
 80018f2:	4293      	cmp	r3, r2
 80018f4:	d102      	bne.n	80018fc <HAL_DMA_Abort_IT+0x84>
 80018f6:	f44f 1380 	mov.w	r3, #1048576	; 0x100000
 80018fa:	e00e      	b.n	800191a <HAL_DMA_Abort_IT+0xa2>
 80018fc:	f04f 7380 	mov.w	r3, #16777216	; 0x1000000
 8001900:	e00b      	b.n	800191a <HAL_DMA_Abort_IT+0xa2>
 8001902:	f44f 3380 	mov.w	r3, #65536	; 0x10000
 8001906:	e008      	b.n	800191a <HAL_DMA_Abort_IT+0xa2>
 8001908:	f44f 5380 	mov.w	r3, #4096	; 0x1000
 800190c:	e005      	b.n	800191a <HAL_DMA_Abort_IT+0xa2>
 800190e:	f44f 7380 	mov.w	r3, #256	; 0x100
 8001912:	e002      	b.n	800191a <HAL_DMA_Abort_IT+0xa2>
 8001914:	2310      	movs	r3, #16
 8001916:	e000      	b.n	800191a <HAL_DMA_Abort_IT+0xa2>
 8001918:	2301      	movs	r3, #1
 800191a:	4a11      	ldr	r2, [pc, #68]	; (8001960 <HAL_DMA_Abort_IT+0xe8>)
 800191c:	6053      	str	r3, [r2, #4]

    /* Change the DMA state */
    hdma->State = HAL_DMA_STATE_READY;
 800191e:	687b      	ldr	r3, [r7, #4]
 8001920:	2201      	movs	r2, #1
 8001922:	f883 2021 	strb.w	r2, [r3, #33]	; 0x21

    /* Process Unlocked */
    __HAL_UNLOCK(hdma);
 8001926:	687b      	ldr	r3, [r7, #4]
 8001928:	2200      	movs	r2, #0
 800192a:	f883 2020 	strb.w	r2, [r3, #32]

    /* Call User Abort callback */
    if(hdma->XferAbortCallback != NULL)
 800192e:	687b      	ldr	r3, [r7, #4]
 8001930:	6b5b      	ldr	r3, [r3, #52]	; 0x34
 8001932:	2b00      	cmp	r3, #0
 8001934:	d003      	beq.n	800193e <HAL_DMA_Abort_IT+0xc6>
    {
      hdma->XferAbortCallback(hdma);
 8001936:	687b      	ldr	r3, [r7, #4]
 8001938:	6b5b      	ldr	r3, [r3, #52]	; 0x34
 800193a:	6878      	ldr	r0, [r7, #4]
 800193c:	4798      	blx	r3
    } 
  }
  return status;
 800193e:	7bfb      	ldrb	r3, [r7, #15]
}
 8001940:	4618      	mov	r0, r3
 8001942:	3710      	adds	r7, #16
 8001944:	46bd      	mov	sp, r7
 8001946:	bd80      	pop	{r7, pc}
 8001948:	40020008 	.word	0x40020008
 800194c:	4002001c 	.word	0x4002001c
 8001950:	40020030 	.word	0x40020030
 8001954:	40020044 	.word	0x40020044
 8001958:	40020058 	.word	0x40020058
 800195c:	4002006c 	.word	0x4002006c
 8001960:	40020000 	.word	0x40020000

08001964 <HAL_GPIO_Init>:
  * @param  GPIO_Init: pointer to a GPIO_InitTypeDef structure that contains
  *         the configuration information for the specified GPIO peripheral.
  * @retval None
  */
void HAL_GPIO_Init(GPIO_TypeDef  *GPIOx, GPIO_InitTypeDef *GPIO_Init)
{
 8001964:	b480      	push	{r7}
 8001966:	b08b      	sub	sp, #44	; 0x2c
 8001968:	af00      	add	r7, sp, #0
 800196a:	6078      	str	r0, [r7, #4]
 800196c:	6039      	str	r1, [r7, #0]
  uint32_t position = 0x00u;
 800196e:	2300      	movs	r3, #0
 8001970:	627b      	str	r3, [r7, #36]	; 0x24
  uint32_t ioposition;
  uint32_t iocurrent;
  uint32_t temp;
  uint32_t config = 0x00u;
 8001972:	2300      	movs	r3, #0
 8001974:	623b      	str	r3, [r7, #32]
  assert_param(IS_GPIO_ALL_INSTANCE(GPIOx));
  assert_param(IS_GPIO_PIN(GPIO_Init->Pin));
  assert_param(IS_GPIO_MODE(GPIO_Init->Mode));

  /* Configure the port pins */
  while (((GPIO_Init->Pin) >> position) != 0x00u)
 8001976:	e148      	b.n	8001c0a <HAL_GPIO_Init+0x2a6>
  {
    /* Get the IO position */
    ioposition = (0x01uL << position);
 8001978:	2201      	movs	r2, #1
 800197a:	6a7b      	ldr	r3, [r7, #36]	; 0x24
 800197c:	fa02 f303 	lsl.w	r3, r2, r3
 8001980:	61fb      	str	r3, [r7, #28]

    /* Get the current IO position */
    iocurrent = (uint32_t)(GPIO_Init->Pin) & ioposition;
 8001982:	683b      	ldr	r3, [r7, #0]
 8001984:	681b      	ldr	r3, [r3, #0]
 8001986:	69fa      	ldr	r2, [r7, #28]
 8001988:	4013      	ands	r3, r2
 800198a:	61bb      	str	r3, [r7, #24]

    if (iocurrent == ioposition)
 800198c:	69ba      	ldr	r2, [r7, #24]
 800198e:	69fb      	ldr	r3, [r7, #28]
 8001990:	429a      	cmp	r2, r3
 8001992:	f040 8137 	bne.w	8001c04 <HAL_GPIO_Init+0x2a0>
    {
      /* Check the Alternate function parameters */
      assert_param(IS_GPIO_AF_INSTANCE(GPIOx));

      /* Based on the required mode, filling config variable with MODEy[1:0] and CNFy[3:2] corresponding bits */
      switch (GPIO_Init->Mode)
 8001996:	683b      	ldr	r3, [r7, #0]
 8001998:	685b      	ldr	r3, [r3, #4]
 800199a:	4aa3      	ldr	r2, [pc, #652]	; (8001c28 <HAL_GPIO_Init+0x2c4>)
 800199c:	4293      	cmp	r3, r2
 800199e:	d05e      	beq.n	8001a5e <HAL_GPIO_Init+0xfa>
 80019a0:	4aa1      	ldr	r2, [pc, #644]	; (8001c28 <HAL_GPIO_Init+0x2c4>)
 80019a2:	4293      	cmp	r3, r2
 80019a4:	d875      	bhi.n	8001a92 <HAL_GPIO_Init+0x12e>
 80019a6:	4aa1      	ldr	r2, [pc, #644]	; (8001c2c <HAL_GPIO_Init+0x2c8>)
 80019a8:	4293      	cmp	r3, r2
 80019aa:	d058      	beq.n	8001a5e <HAL_GPIO_Init+0xfa>
 80019ac:	4a9f      	ldr	r2, [pc, #636]	; (8001c2c <HAL_GPIO_Init+0x2c8>)
 80019ae:	4293      	cmp	r3, r2
 80019b0:	d86f      	bhi.n	8001a92 <HAL_GPIO_Init+0x12e>
 80019b2:	4a9f      	ldr	r2, [pc, #636]	; (8001c30 <HAL_GPIO_Init+0x2cc>)
 80019b4:	4293      	cmp	r3, r2
 80019b6:	d052      	beq.n	8001a5e <HAL_GPIO_Init+0xfa>
 80019b8:	4a9d      	ldr	r2, [pc, #628]	; (8001c30 <HAL_GPIO_Init+0x2cc>)
 80019ba:	4293      	cmp	r3, r2
 80019bc:	d869      	bhi.n	8001a92 <HAL_GPIO_Init+0x12e>
 80019be:	4a9d      	ldr	r2, [pc, #628]	; (8001c34 <HAL_GPIO_Init+0x2d0>)
 80019c0:	4293      	cmp	r3, r2
 80019c2:	d04c      	beq.n	8001a5e <HAL_GPIO_Init+0xfa>
 80019c4:	4a9b      	ldr	r2, [pc, #620]	; (8001c34 <HAL_GPIO_Init+0x2d0>)
 80019c6:	4293      	cmp	r3, r2
 80019c8:	d863      	bhi.n	8001a92 <HAL_GPIO_Init+0x12e>
 80019ca:	4a9b      	ldr	r2, [pc, #620]	; (8001c38 <HAL_GPIO_Init+0x2d4>)
 80019cc:	4293      	cmp	r3, r2
 80019ce:	d046      	beq.n	8001a5e <HAL_GPIO_Init+0xfa>
 80019d0:	4a99      	ldr	r2, [pc, #612]	; (8001c38 <HAL_GPIO_Init+0x2d4>)
 80019d2:	4293      	cmp	r3, r2
 80019d4:	d85d      	bhi.n	8001a92 <HAL_GPIO_Init+0x12e>
 80019d6:	2b12      	cmp	r3, #18
 80019d8:	d82a      	bhi.n	8001a30 <HAL_GPIO_Init+0xcc>
 80019da:	2b12      	cmp	r3, #18
 80019dc:	d859      	bhi.n	8001a92 <HAL_GPIO_Init+0x12e>
 80019de:	a201      	add	r2, pc, #4	; (adr r2, 80019e4 <HAL_GPIO_Init+0x80>)
 80019e0:	f852 f023 	ldr.w	pc, [r2, r3, lsl #2]
 80019e4:	08001a5f 	.word	0x08001a5f
 80019e8:	08001a39 	.word	0x08001a39
 80019ec:	08001a4b 	.word	0x08001a4b
 80019f0:	08001a8d 	.word	0x08001a8d
 80019f4:	08001a93 	.word	0x08001a93
 80019f8:	08001a93 	.word	0x08001a93
 80019fc:	08001a93 	.word	0x08001a93
 8001a00:	08001a93 	.word	0x08001a93
 8001a04:	08001a93 	.word	0x08001a93
 8001a08:	08001a93 	.word	0x08001a93
 8001a0c:	08001a93 	.word	0x08001a93
 8001a10:	08001a93 	.word	0x08001a93
 8001a14:	08001a93 	.word	0x08001a93
 8001a18:	08001a93 	.word	0x08001a93
 8001a1c:	08001a93 	.word	0x08001a93
 8001a20:	08001a93 	.word	0x08001a93
 8001a24:	08001a93 	.word	0x08001a93
 8001a28:	08001a41 	.word	0x08001a41
 8001a2c:	08001a55 	.word	0x08001a55
 8001a30:	4a82      	ldr	r2, [pc, #520]	; (8001c3c <HAL_GPIO_Init+0x2d8>)
 8001a32:	4293      	cmp	r3, r2
 8001a34:	d013      	beq.n	8001a5e <HAL_GPIO_Init+0xfa>
          config = GPIO_CR_MODE_INPUT + GPIO_CR_CNF_ANALOG;
          break;

        /* Parameters are checked with assert_param */
        default:
          break;
 8001a36:	e02c      	b.n	8001a92 <HAL_GPIO_Init+0x12e>
          config = GPIO_Init->Speed + GPIO_CR_CNF_GP_OUTPUT_PP;
 8001a38:	683b      	ldr	r3, [r7, #0]
 8001a3a:	68db      	ldr	r3, [r3, #12]
 8001a3c:	623b      	str	r3, [r7, #32]
          break;
 8001a3e:	e029      	b.n	8001a94 <HAL_GPIO_Init+0x130>
          config = GPIO_Init->Speed + GPIO_CR_CNF_GP_OUTPUT_OD;
 8001a40:	683b      	ldr	r3, [r7, #0]
 8001a42:	68db      	ldr	r3, [r3, #12]
 8001a44:	3304      	adds	r3, #4
 8001a46:	623b      	str	r3, [r7, #32]
          break;
 8001a48:	e024      	b.n	8001a94 <HAL_GPIO_Init+0x130>
          config = GPIO_Init->Speed + GPIO_CR_CNF_AF_OUTPUT_PP;
 8001a4a:	683b      	ldr	r3, [r7, #0]
 8001a4c:	68db      	ldr	r3, [r3, #12]
 8001a4e:	3308      	adds	r3, #8
 8001a50:	623b      	str	r3, [r7, #32]
          break;
 8001a52:	e01f      	b.n	8001a94 <HAL_GPIO_Init+0x130>
          config = GPIO_Init->Speed + GPIO_CR_CNF_AF_OUTPUT_OD;
 8001a54:	683b      	ldr	r3, [r7, #0]
 8001a56:	68db      	ldr	r3, [r3, #12]
 8001a58:	330c      	adds	r3, #12
 8001a5a:	623b      	str	r3, [r7, #32]
          break;
 8001a5c:	e01a      	b.n	8001a94 <HAL_GPIO_Init+0x130>
          if (GPIO_Init->Pull == GPIO_NOPULL)
 8001a5e:	683b      	ldr	r3, [r7, #0]
 8001a60:	689b      	ldr	r3, [r3, #8]
 8001a62:	2b00      	cmp	r3, #0
 8001a64:	d102      	bne.n	8001a6c <HAL_GPIO_Init+0x108>
            config = GPIO_CR_MODE_INPUT + GPIO_CR_CNF_INPUT_FLOATING;
 8001a66:	2304      	movs	r3, #4
 8001a68:	623b      	str	r3, [r7, #32]
          break;
 8001a6a:	e013      	b.n	8001a94 <HAL_GPIO_Init+0x130>
          else if (GPIO_Init->Pull == GPIO_PULLUP)
 8001a6c:	683b      	ldr	r3, [r7, #0]
 8001a6e:	689b      	ldr	r3, [r3, #8]
 8001a70:	2b01      	cmp	r3, #1
 8001a72:	d105      	bne.n	8001a80 <HAL_GPIO_Init+0x11c>
            config = GPIO_CR_MODE_INPUT + GPIO_CR_CNF_INPUT_PU_PD;
 8001a74:	2308      	movs	r3, #8
 8001a76:	623b      	str	r3, [r7, #32]
            GPIOx->BSRR = ioposition;
 8001a78:	687b      	ldr	r3, [r7, #4]
 8001a7a:	69fa      	ldr	r2, [r7, #28]
 8001a7c:	611a      	str	r2, [r3, #16]
          break;
 8001a7e:	e009      	b.n	8001a94 <HAL_GPIO_Init+0x130>
            config = GPIO_CR_MODE_INPUT + GPIO_CR_CNF_INPUT_PU_PD;
 8001a80:	2308      	movs	r3, #8
 8001a82:	623b      	str	r3, [r7, #32]
            GPIOx->BRR = ioposition;
 8001a84:	687b      	ldr	r3, [r7, #4]
 8001a86:	69fa      	ldr	r2, [r7, #28]
 8001a88:	615a      	str	r2, [r3, #20]
          break;
 8001a8a:	e003      	b.n	8001a94 <HAL_GPIO_Init+0x130>
          config = GPIO_CR_MODE_INPUT + GPIO_CR_CNF_ANALOG;
 8001a8c:	2300      	movs	r3, #0
 8001a8e:	623b      	str	r3, [r7, #32]
          break;
 8001a90:	e000      	b.n	8001a94 <HAL_GPIO_Init+0x130>
          break;
 8001a92:	bf00      	nop
      }

      /* Check if the current bit belongs to first half or last half of the pin count number
       in order to address CRH or CRL register*/
      configregister = (iocurrent < GPIO_PIN_8) ? &GPIOx->CRL     : &GPIOx->CRH;
 8001a94:	69bb      	ldr	r3, [r7, #24]
 8001a96:	2bff      	cmp	r3, #255	; 0xff
 8001a98:	d801      	bhi.n	8001a9e <HAL_GPIO_Init+0x13a>
 8001a9a:	687b      	ldr	r3, [r7, #4]
 8001a9c:	e001      	b.n	8001aa2 <HAL_GPIO_Init+0x13e>
 8001a9e:	687b      	ldr	r3, [r7, #4]
 8001aa0:	3304      	adds	r3, #4
 8001aa2:	617b      	str	r3, [r7, #20]
      registeroffset = (iocurrent < GPIO_PIN_8) ? (position << 2u) : ((position - 8u) << 2u);
 8001aa4:	69bb      	ldr	r3, [r7, #24]
 8001aa6:	2bff      	cmp	r3, #255	; 0xff
 8001aa8:	d802      	bhi.n	8001ab0 <HAL_GPIO_Init+0x14c>
 8001aaa:	6a7b      	ldr	r3, [r7, #36]	; 0x24
 8001aac:	009b      	lsls	r3, r3, #2
 8001aae:	e002      	b.n	8001ab6 <HAL_GPIO_Init+0x152>
 8001ab0:	6a7b      	ldr	r3, [r7, #36]	; 0x24
 8001ab2:	3b08      	subs	r3, #8
 8001ab4:	009b      	lsls	r3, r3, #2
 8001ab6:	613b      	str	r3, [r7, #16]

      /* Apply the new configuration of the pin to the register */
      MODIFY_REG((*configregister), ((GPIO_CRL_MODE0 | GPIO_CRL_CNF0) << registeroffset), (config << registeroffset));
 8001ab8:	697b      	ldr	r3, [r7, #20]
 8001aba:	681a      	ldr	r2, [r3, #0]
 8001abc:	210f      	movs	r1, #15
 8001abe:	693b      	ldr	r3, [r7, #16]
 8001ac0:	fa01 f303 	lsl.w	r3, r1, r3
 8001ac4:	43db      	mvns	r3, r3
 8001ac6:	401a      	ands	r2, r3
 8001ac8:	6a39      	ldr	r1, [r7, #32]
 8001aca:	693b      	ldr	r3, [r7, #16]
 8001acc:	fa01 f303 	lsl.w	r3, r1, r3
 8001ad0:	431a      	orrs	r2, r3
 8001ad2:	697b      	ldr	r3, [r7, #20]
 8001ad4:	601a      	str	r2, [r3, #0]

      /*--------------------- EXTI Mode Configuration ------------------------*/
      /* Configure the External Interrupt or event for the current IO */
      if ((GPIO_Init->Mode & EXTI_MODE) == EXTI_MODE)
 8001ad6:	683b      	ldr	r3, [r7, #0]
 8001ad8:	685b      	ldr	r3, [r3, #4]
 8001ada:	f003 5380 	and.w	r3, r3, #268435456	; 0x10000000
 8001ade:	2b00      	cmp	r3, #0
 8001ae0:	f000 8090 	beq.w	8001c04 <HAL_GPIO_Init+0x2a0>
      {
        /* Enable AFIO Clock */
        __HAL_RCC_AFIO_CLK_ENABLE();
 8001ae4:	4b56      	ldr	r3, [pc, #344]	; (8001c40 <HAL_GPIO_Init+0x2dc>)
 8001ae6:	699b      	ldr	r3, [r3, #24]
 8001ae8:	4a55      	ldr	r2, [pc, #340]	; (8001c40 <HAL_GPIO_Init+0x2dc>)
 8001aea:	f043 0301 	orr.w	r3, r3, #1
 8001aee:	6193      	str	r3, [r2, #24]
 8001af0:	4b53      	ldr	r3, [pc, #332]	; (8001c40 <HAL_GPIO_Init+0x2dc>)
 8001af2:	699b      	ldr	r3, [r3, #24]
 8001af4:	f003 0301 	and.w	r3, r3, #1
 8001af8:	60bb      	str	r3, [r7, #8]
 8001afa:	68bb      	ldr	r3, [r7, #8]
        temp = AFIO->EXTICR[position >> 2u];
 8001afc:	4a51      	ldr	r2, [pc, #324]	; (8001c44 <HAL_GPIO_Init+0x2e0>)
 8001afe:	6a7b      	ldr	r3, [r7, #36]	; 0x24
 8001b00:	089b      	lsrs	r3, r3, #2
 8001b02:	3302      	adds	r3, #2
 8001b04:	f852 3023 	ldr.w	r3, [r2, r3, lsl #2]
 8001b08:	60fb      	str	r3, [r7, #12]
        CLEAR_BIT(temp, (0x0Fu) << (4u * (position & 0x03u)));
 8001b0a:	6a7b      	ldr	r3, [r7, #36]	; 0x24
 8001b0c:	f003 0303 	and.w	r3, r3, #3
 8001b10:	009b      	lsls	r3, r3, #2
 8001b12:	220f      	movs	r2, #15
 8001b14:	fa02 f303 	lsl.w	r3, r2, r3
 8001b18:	43db      	mvns	r3, r3
 8001b1a:	68fa      	ldr	r2, [r7, #12]
 8001b1c:	4013      	ands	r3, r2
 8001b1e:	60fb      	str	r3, [r7, #12]
        SET_BIT(temp, (GPIO_GET_INDEX(GPIOx)) << (4u * (position & 0x03u)));
 8001b20:	687b      	ldr	r3, [r7, #4]
 8001b22:	4a49      	ldr	r2, [pc, #292]	; (8001c48 <HAL_GPIO_Init+0x2e4>)
 8001b24:	4293      	cmp	r3, r2
 8001b26:	d00d      	beq.n	8001b44 <HAL_GPIO_Init+0x1e0>
 8001b28:	687b      	ldr	r3, [r7, #4]
 8001b2a:	4a48      	ldr	r2, [pc, #288]	; (8001c4c <HAL_GPIO_Init+0x2e8>)
 8001b2c:	4293      	cmp	r3, r2
 8001b2e:	d007      	beq.n	8001b40 <HAL_GPIO_Init+0x1dc>
 8001b30:	687b      	ldr	r3, [r7, #4]
 8001b32:	4a47      	ldr	r2, [pc, #284]	; (8001c50 <HAL_GPIO_Init+0x2ec>)
 8001b34:	4293      	cmp	r3, r2
 8001b36:	d101      	bne.n	8001b3c <HAL_GPIO_Init+0x1d8>
 8001b38:	2302      	movs	r3, #2
 8001b3a:	e004      	b.n	8001b46 <HAL_GPIO_Init+0x1e2>
 8001b3c:	2303      	movs	r3, #3
 8001b3e:	e002      	b.n	8001b46 <HAL_GPIO_Init+0x1e2>
 8001b40:	2301      	movs	r3, #1
 8001b42:	e000      	b.n	8001b46 <HAL_GPIO_Init+0x1e2>
 8001b44:	2300      	movs	r3, #0
 8001b46:	6a7a      	ldr	r2, [r7, #36]	; 0x24
 8001b48:	f002 0203 	and.w	r2, r2, #3
 8001b4c:	0092      	lsls	r2, r2, #2
 8001b4e:	4093      	lsls	r3, r2
 8001b50:	68fa      	ldr	r2, [r7, #12]
 8001b52:	4313      	orrs	r3, r2
 8001b54:	60fb      	str	r3, [r7, #12]
        AFIO->EXTICR[position >> 2u] = temp;
 8001b56:	493b      	ldr	r1, [pc, #236]	; (8001c44 <HAL_GPIO_Init+0x2e0>)
 8001b58:	6a7b      	ldr	r3, [r7, #36]	; 0x24
 8001b5a:	089b      	lsrs	r3, r3, #2
 8001b5c:	3302      	adds	r3, #2
 8001b5e:	68fa      	ldr	r2, [r7, #12]
 8001b60:	f841 2023 	str.w	r2, [r1, r3, lsl #2]


        /* Configure the interrupt mask */
        if ((GPIO_Init->Mode & GPIO_MODE_IT) == GPIO_MODE_IT)
 8001b64:	683b      	ldr	r3, [r7, #0]
 8001b66:	685b      	ldr	r3, [r3, #4]
 8001b68:	f403 3380 	and.w	r3, r3, #65536	; 0x10000
 8001b6c:	2b00      	cmp	r3, #0
 8001b6e:	d006      	beq.n	8001b7e <HAL_GPIO_Init+0x21a>
        {
          SET_BIT(EXTI->IMR, iocurrent);
 8001b70:	4b38      	ldr	r3, [pc, #224]	; (8001c54 <HAL_GPIO_Init+0x2f0>)
 8001b72:	681a      	ldr	r2, [r3, #0]
 8001b74:	4937      	ldr	r1, [pc, #220]	; (8001c54 <HAL_GPIO_Init+0x2f0>)
 8001b76:	69bb      	ldr	r3, [r7, #24]
 8001b78:	4313      	orrs	r3, r2
 8001b7a:	600b      	str	r3, [r1, #0]
 8001b7c:	e006      	b.n	8001b8c <HAL_GPIO_Init+0x228>
        }
        else
        {
          CLEAR_BIT(EXTI->IMR, iocurrent);
 8001b7e:	4b35      	ldr	r3, [pc, #212]	; (8001c54 <HAL_GPIO_Init+0x2f0>)
 8001b80:	681a      	ldr	r2, [r3, #0]
 8001b82:	69bb      	ldr	r3, [r7, #24]
 8001b84:	43db      	mvns	r3, r3
 8001b86:	4933      	ldr	r1, [pc, #204]	; (8001c54 <HAL_GPIO_Init+0x2f0>)
 8001b88:	4013      	ands	r3, r2
 8001b8a:	600b      	str	r3, [r1, #0]
        }

        /* Configure the event mask */
        if ((GPIO_Init->Mode & GPIO_MODE_EVT) == GPIO_MODE_EVT)
 8001b8c:	683b      	ldr	r3, [r7, #0]
 8001b8e:	685b      	ldr	r3, [r3, #4]
 8001b90:	f403 3300 	and.w	r3, r3, #131072	; 0x20000
 8001b94:	2b00      	cmp	r3, #0
 8001b96:	d006      	beq.n	8001ba6 <HAL_GPIO_Init+0x242>
        {
          SET_BIT(EXTI->EMR, iocurrent);
 8001b98:	4b2e      	ldr	r3, [pc, #184]	; (8001c54 <HAL_GPIO_Init+0x2f0>)
 8001b9a:	685a      	ldr	r2, [r3, #4]
 8001b9c:	492d      	ldr	r1, [pc, #180]	; (8001c54 <HAL_GPIO_Init+0x2f0>)
 8001b9e:	69bb      	ldr	r3, [r7, #24]
 8001ba0:	4313      	orrs	r3, r2
 8001ba2:	604b      	str	r3, [r1, #4]
 8001ba4:	e006      	b.n	8001bb4 <HAL_GPIO_Init+0x250>
        }
        else
        {
          CLEAR_BIT(EXTI->EMR, iocurrent);
 8001ba6:	4b2b      	ldr	r3, [pc, #172]	; (8001c54 <HAL_GPIO_Init+0x2f0>)
 8001ba8:	685a      	ldr	r2, [r3, #4]
 8001baa:	69bb      	ldr	r3, [r7, #24]
 8001bac:	43db      	mvns	r3, r3
 8001bae:	4929      	ldr	r1, [pc, #164]	; (8001c54 <HAL_GPIO_Init+0x2f0>)
 8001bb0:	4013      	ands	r3, r2
 8001bb2:	604b      	str	r3, [r1, #4]
        }

        /* Enable or disable the rising trigger */
        if ((GPIO_Init->Mode & RISING_EDGE) == RISING_EDGE)
 8001bb4:	683b      	ldr	r3, [r7, #0]
 8001bb6:	685b      	ldr	r3, [r3, #4]
 8001bb8:	f403 1380 	and.w	r3, r3, #1048576	; 0x100000
 8001bbc:	2b00      	cmp	r3, #0
 8001bbe:	d006      	beq.n	8001bce <HAL_GPIO_Init+0x26a>
        {
          SET_BIT(EXTI->RTSR, iocurrent);
 8001bc0:	4b24      	ldr	r3, [pc, #144]	; (8001c54 <HAL_GPIO_Init+0x2f0>)
 8001bc2:	689a      	ldr	r2, [r3, #8]
 8001bc4:	4923      	ldr	r1, [pc, #140]	; (8001c54 <HAL_GPIO_Init+0x2f0>)
 8001bc6:	69bb      	ldr	r3, [r7, #24]
 8001bc8:	4313      	orrs	r3, r2
 8001bca:	608b      	str	r3, [r1, #8]
 8001bcc:	e006      	b.n	8001bdc <HAL_GPIO_Init+0x278>
        }
        else
        {
          CLEAR_BIT(EXTI->RTSR, iocurrent);
 8001bce:	4b21      	ldr	r3, [pc, #132]	; (8001c54 <HAL_GPIO_Init+0x2f0>)
 8001bd0:	689a      	ldr	r2, [r3, #8]
 8001bd2:	69bb      	ldr	r3, [r7, #24]
 8001bd4:	43db      	mvns	r3, r3
 8001bd6:	491f      	ldr	r1, [pc, #124]	; (8001c54 <HAL_GPIO_Init+0x2f0>)
 8001bd8:	4013      	ands	r3, r2
 8001bda:	608b      	str	r3, [r1, #8]
        }

        /* Enable or disable the falling trigger */
        if ((GPIO_Init->Mode & FALLING_EDGE) == FALLING_EDGE)
 8001bdc:	683b      	ldr	r3, [r7, #0]
 8001bde:	685b      	ldr	r3, [r3, #4]
 8001be0:	f403 1300 	and.w	r3, r3, #2097152	; 0x200000
 8001be4:	2b00      	cmp	r3, #0
 8001be6:	d006      	beq.n	8001bf6 <HAL_GPIO_Init+0x292>
        {
          SET_BIT(EXTI->FTSR, iocurrent);
 8001be8:	4b1a      	ldr	r3, [pc, #104]	; (8001c54 <HAL_GPIO_Init+0x2f0>)
 8001bea:	68da      	ldr	r2, [r3, #12]
 8001bec:	4919      	ldr	r1, [pc, #100]	; (8001c54 <HAL_GPIO_Init+0x2f0>)
 8001bee:	69bb      	ldr	r3, [r7, #24]
 8001bf0:	4313      	orrs	r3, r2
 8001bf2:	60cb      	str	r3, [r1, #12]
 8001bf4:	e006      	b.n	8001c04 <HAL_GPIO_Init+0x2a0>
        }
        else
        {
          CLEAR_BIT(EXTI->FTSR, iocurrent);
 8001bf6:	4b17      	ldr	r3, [pc, #92]	; (8001c54 <HAL_GPIO_Init+0x2f0>)
 8001bf8:	68da      	ldr	r2, [r3, #12]
 8001bfa:	69bb      	ldr	r3, [r7, #24]
 8001bfc:	43db      	mvns	r3, r3
 8001bfe:	4915      	ldr	r1, [pc, #84]	; (8001c54 <HAL_GPIO_Init+0x2f0>)
 8001c00:	4013      	ands	r3, r2
 8001c02:	60cb      	str	r3, [r1, #12]
        }
      }
    }

	position++;
 8001c04:	6a7b      	ldr	r3, [r7, #36]	; 0x24
 8001c06:	3301      	adds	r3, #1
 8001c08:	627b      	str	r3, [r7, #36]	; 0x24
  while (((GPIO_Init->Pin) >> position) != 0x00u)
 8001c0a:	683b      	ldr	r3, [r7, #0]
 8001c0c:	681a      	ldr	r2, [r3, #0]
 8001c0e:	6a7b      	ldr	r3, [r7, #36]	; 0x24
 8001c10:	fa22 f303 	lsr.w	r3, r2, r3
 8001c14:	2b00      	cmp	r3, #0
 8001c16:	f47f aeaf 	bne.w	8001978 <HAL_GPIO_Init+0x14>
  }
}
 8001c1a:	bf00      	nop
 8001c1c:	bf00      	nop
 8001c1e:	372c      	adds	r7, #44	; 0x2c
 8001c20:	46bd      	mov	sp, r7
 8001c22:	bc80      	pop	{r7}
 8001c24:	4770      	bx	lr
 8001c26:	bf00      	nop
 8001c28:	10320000 	.word	0x10320000
 8001c2c:	10310000 	.word	0x10310000
 8001c30:	10220000 	.word	0x10220000
 8001c34:	10210000 	.word	0x10210000
 8001c38:	10120000 	.word	0x10120000
 8001c3c:	10110000 	.word	0x10110000
 8001c40:	40021000 	.word	0x40021000
 8001c44:	40010000 	.word	0x40010000
 8001c48:	40010800 	.word	0x40010800
 8001c4c:	40010c00 	.word	0x40010c00
 8001c50:	40011000 	.word	0x40011000
 8001c54:	40010400 	.word	0x40010400

08001c58 <HAL_PWR_EnableBkUpAccess>:
  * @note   If the HSE divided by 128 is used as the RTC clock, the
  *         Backup Domain Access should be kept enabled.
  * @retval None
  */
void HAL_PWR_EnableBkUpAccess(void)
{
 8001c58:	b480      	push	{r7}
 8001c5a:	af00      	add	r7, sp, #0
  /* Enable access to RTC and backup registers */
  *(__IO uint32_t *) CR_DBP_BB = (uint32_t)ENABLE;
 8001c5c:	4b03      	ldr	r3, [pc, #12]	; (8001c6c <HAL_PWR_EnableBkUpAccess+0x14>)
 8001c5e:	2201      	movs	r2, #1
 8001c60:	601a      	str	r2, [r3, #0]
}
 8001c62:	bf00      	nop
 8001c64:	46bd      	mov	sp, r7
 8001c66:	bc80      	pop	{r7}
 8001c68:	4770      	bx	lr
 8001c6a:	bf00      	nop
 8001c6c:	420e0020 	.word	0x420e0020

08001c70 <HAL_RCC_OscConfig>:
  *         supported by this macro. User should request a transition to HSE Off
  *         first and then HSE On or HSE Bypass.
  * @retval HAL status
  */
HAL_StatusTypeDef HAL_RCC_OscConfig(RCC_OscInitTypeDef  *RCC_OscInitStruct)
{
 8001c70:	b580      	push	{r7, lr}
 8001c72:	b086      	sub	sp, #24
 8001c74:	af00      	add	r7, sp, #0
 8001c76:	6078      	str	r0, [r7, #4]
  uint32_t tickstart;
  uint32_t pll_config;

  /* Check Null pointer */
  if (RCC_OscInitStruct == NULL)
 8001c78:	687b      	ldr	r3, [r7, #4]
 8001c7a:	2b00      	cmp	r3, #0
 8001c7c:	d101      	bne.n	8001c82 <HAL_RCC_OscConfig+0x12>
  {
    return HAL_ERROR;
 8001c7e:	2301      	movs	r3, #1
 8001c80:	e26c      	b.n	800215c <HAL_RCC_OscConfig+0x4ec>

  /* Check the parameters */
  assert_param(IS_RCC_OSCILLATORTYPE(RCC_OscInitStruct->OscillatorType));

  /*------------------------------- HSE Configuration ------------------------*/
  if (((RCC_OscInitStruct->OscillatorType) & RCC_OSCILLATORTYPE_HSE) == RCC_OSCILLATORTYPE_HSE)
 8001c82:	687b      	ldr	r3, [r7, #4]
 8001c84:	681b      	ldr	r3, [r3, #0]
 8001c86:	f003 0301 	and.w	r3, r3, #1
 8001c8a:	2b00      	cmp	r3, #0
 8001c8c:	f000 8087 	beq.w	8001d9e <HAL_RCC_OscConfig+0x12e>
  {
    /* Check the parameters */
    assert_param(IS_RCC_HSE(RCC_OscInitStruct->HSEState));

    /* When the HSE is used as system clock or clock source for PLL in these cases it is not allowed to be disabled */
    if ((__HAL_RCC_GET_SYSCLK_SOURCE() == RCC_SYSCLKSOURCE_STATUS_HSE)
 8001c90:	4b92      	ldr	r3, [pc, #584]	; (8001edc <HAL_RCC_OscConfig+0x26c>)
 8001c92:	685b      	ldr	r3, [r3, #4]
 8001c94:	f003 030c 	and.w	r3, r3, #12
 8001c98:	2b04      	cmp	r3, #4
 8001c9a:	d00c      	beq.n	8001cb6 <HAL_RCC_OscConfig+0x46>
        || ((__HAL_RCC_GET_SYSCLK_SOURCE() == RCC_SYSCLKSOURCE_STATUS_PLLCLK) && (__HAL_RCC_GET_PLL_OSCSOURCE() == RCC_PLLSOURCE_HSE)))
 8001c9c:	4b8f      	ldr	r3, [pc, #572]	; (8001edc <HAL_RCC_OscConfig+0x26c>)
 8001c9e:	685b      	ldr	r3, [r3, #4]
 8001ca0:	f003 030c 	and.w	r3, r3, #12
 8001ca4:	2b08      	cmp	r3, #8
 8001ca6:	d112      	bne.n	8001cce <HAL_RCC_OscConfig+0x5e>
 8001ca8:	4b8c      	ldr	r3, [pc, #560]	; (8001edc <HAL_RCC_OscConfig+0x26c>)
 8001caa:	685b      	ldr	r3, [r3, #4]
 8001cac:	f403 3380 	and.w	r3, r3, #65536	; 0x10000
 8001cb0:	f5b3 3f80 	cmp.w	r3, #65536	; 0x10000
 8001cb4:	d10b      	bne.n	8001cce <HAL_RCC_OscConfig+0x5e>
    {
      if ((__HAL_RCC_GET_FLAG(RCC_FLAG_HSERDY) != RESET) && (RCC_OscInitStruct->HSEState == RCC_HSE_OFF))
 8001cb6:	4b89      	ldr	r3, [pc, #548]	; (8001edc <HAL_RCC_OscConfig+0x26c>)
 8001cb8:	681b      	ldr	r3, [r3, #0]
 8001cba:	f403 3300 	and.w	r3, r3, #131072	; 0x20000
 8001cbe:	2b00      	cmp	r3, #0
 8001cc0:	d06c      	beq.n	8001d9c <HAL_RCC_OscConfig+0x12c>
 8001cc2:	687b      	ldr	r3, [r7, #4]
 8001cc4:	685b      	ldr	r3, [r3, #4]
 8001cc6:	2b00      	cmp	r3, #0
 8001cc8:	d168      	bne.n	8001d9c <HAL_RCC_OscConfig+0x12c>
      {
        return HAL_ERROR;
 8001cca:	2301      	movs	r3, #1
 8001ccc:	e246      	b.n	800215c <HAL_RCC_OscConfig+0x4ec>
      }
    }
    else
    {
      /* Set the new HSE configuration ---------------------------------------*/
      __HAL_RCC_HSE_CONFIG(RCC_OscInitStruct->HSEState);
 8001cce:	687b      	ldr	r3, [r7, #4]
 8001cd0:	685b      	ldr	r3, [r3, #4]
 8001cd2:	f5b3 3f80 	cmp.w	r3, #65536	; 0x10000
 8001cd6:	d106      	bne.n	8001ce6 <HAL_RCC_OscConfig+0x76>
 8001cd8:	4b80      	ldr	r3, [pc, #512]	; (8001edc <HAL_RCC_OscConfig+0x26c>)
 8001cda:	681b      	ldr	r3, [r3, #0]
 8001cdc:	4a7f      	ldr	r2, [pc, #508]	; (8001edc <HAL_RCC_OscConfig+0x26c>)
 8001cde:	f443 3380 	orr.w	r3, r3, #65536	; 0x10000
 8001ce2:	6013      	str	r3, [r2, #0]
 8001ce4:	e02e      	b.n	8001d44 <HAL_RCC_OscConfig+0xd4>
 8001ce6:	687b      	ldr	r3, [r7, #4]
 8001ce8:	685b      	ldr	r3, [r3, #4]
 8001cea:	2b00      	cmp	r3, #0
 8001cec:	d10c      	bne.n	8001d08 <HAL_RCC_OscConfig+0x98>
 8001cee:	4b7b      	ldr	r3, [pc, #492]	; (8001edc <HAL_RCC_OscConfig+0x26c>)
 8001cf0:	681b      	ldr	r3, [r3, #0]
 8001cf2:	4a7a      	ldr	r2, [pc, #488]	; (8001edc <HAL_RCC_OscConfig+0x26c>)
 8001cf4:	f423 3380 	bic.w	r3, r3, #65536	; 0x10000
 8001cf8:	6013      	str	r3, [r2, #0]
 8001cfa:	4b78      	ldr	r3, [pc, #480]	; (8001edc <HAL_RCC_OscConfig+0x26c>)
 8001cfc:	681b      	ldr	r3, [r3, #0]
 8001cfe:	4a77      	ldr	r2, [pc, #476]	; (8001edc <HAL_RCC_OscConfig+0x26c>)
 8001d00:	f423 2380 	bic.w	r3, r3, #262144	; 0x40000
 8001d04:	6013      	str	r3, [r2, #0]
 8001d06:	e01d      	b.n	8001d44 <HAL_RCC_OscConfig+0xd4>
 8001d08:	687b      	ldr	r3, [r7, #4]
 8001d0a:	685b      	ldr	r3, [r3, #4]
 8001d0c:	f5b3 2fa0 	cmp.w	r3, #327680	; 0x50000
 8001d10:	d10c      	bne.n	8001d2c <HAL_RCC_OscConfig+0xbc>
 8001d12:	4b72      	ldr	r3, [pc, #456]	; (8001edc <HAL_RCC_OscConfig+0x26c>)
 8001d14:	681b      	ldr	r3, [r3, #0]
 8001d16:	4a71      	ldr	r2, [pc, #452]	; (8001edc <HAL_RCC_OscConfig+0x26c>)
 8001d18:	f443 2380 	orr.w	r3, r3, #262144	; 0x40000
 8001d1c:	6013      	str	r3, [r2, #0]
 8001d1e:	4b6f      	ldr	r3, [pc, #444]	; (8001edc <HAL_RCC_OscConfig+0x26c>)
 8001d20:	681b      	ldr	r3, [r3, #0]
 8001d22:	4a6e      	ldr	r2, [pc, #440]	; (8001edc <HAL_RCC_OscConfig+0x26c>)
 8001d24:	f443 3380 	orr.w	r3, r3, #65536	; 0x10000
 8001d28:	6013      	str	r3, [r2, #0]
 8001d2a:	e00b      	b.n	8001d44 <HAL_RCC_OscConfig+0xd4>
 8001d2c:	4b6b      	ldr	r3, [pc, #428]	; (8001edc <HAL_RCC_OscConfig+0x26c>)
 8001d2e:	681b      	ldr	r3, [r3, #0]
 8001d30:	4a6a      	ldr	r2, [pc, #424]	; (8001edc <HAL_RCC_OscConfig+0x26c>)
 8001d32:	f423 3380 	bic.w	r3, r3, #65536	; 0x10000
 8001d36:	6013      	str	r3, [r2, #0]
 8001d38:	4b68      	ldr	r3, [pc, #416]	; (8001edc <HAL_RCC_OscConfig+0x26c>)
 8001d3a:	681b      	ldr	r3, [r3, #0]
 8001d3c:	4a67      	ldr	r2, [pc, #412]	; (8001edc <HAL_RCC_OscConfig+0x26c>)
 8001d3e:	f423 2380 	bic.w	r3, r3, #262144	; 0x40000
 8001d42:	6013      	str	r3, [r2, #0]


      /* Check the HSE State */
      if (RCC_OscInitStruct->HSEState != RCC_HSE_OFF)
 8001d44:	687b      	ldr	r3, [r7, #4]
 8001d46:	685b      	ldr	r3, [r3, #4]
 8001d48:	2b00      	cmp	r3, #0
 8001d4a:	d013      	beq.n	8001d74 <HAL_RCC_OscConfig+0x104>
      {
        /* Get Start Tick */
        tickstart = HAL_GetTick();
 8001d4c:	f7ff fc42 	bl	80015d4 <HAL_GetTick>
 8001d50:	6138      	str	r0, [r7, #16]

        /* Wait till HSE is ready */
        while (__HAL_RCC_GET_FLAG(RCC_FLAG_HSERDY) == RESET)
 8001d52:	e008      	b.n	8001d66 <HAL_RCC_OscConfig+0xf6>
        {
          if ((HAL_GetTick() - tickstart) > HSE_TIMEOUT_VALUE)
 8001d54:	f7ff fc3e 	bl	80015d4 <HAL_GetTick>
 8001d58:	4602      	mov	r2, r0
 8001d5a:	693b      	ldr	r3, [r7, #16]
 8001d5c:	1ad3      	subs	r3, r2, r3
 8001d5e:	2b64      	cmp	r3, #100	; 0x64
 8001d60:	d901      	bls.n	8001d66 <HAL_RCC_OscConfig+0xf6>
          {
            return HAL_TIMEOUT;
 8001d62:	2303      	movs	r3, #3
 8001d64:	e1fa      	b.n	800215c <HAL_RCC_OscConfig+0x4ec>
        while (__HAL_RCC_GET_FLAG(RCC_FLAG_HSERDY) == RESET)
 8001d66:	4b5d      	ldr	r3, [pc, #372]	; (8001edc <HAL_RCC_OscConfig+0x26c>)
 8001d68:	681b      	ldr	r3, [r3, #0]
 8001d6a:	f403 3300 	and.w	r3, r3, #131072	; 0x20000
 8001d6e:	2b00      	cmp	r3, #0
 8001d70:	d0f0      	beq.n	8001d54 <HAL_RCC_OscConfig+0xe4>
 8001d72:	e014      	b.n	8001d9e <HAL_RCC_OscConfig+0x12e>
        }
      }
      else
      {
        /* Get Start Tick */
        tickstart = HAL_GetTick();
 8001d74:	f7ff fc2e 	bl	80015d4 <HAL_GetTick>
 8001d78:	6138      	str	r0, [r7, #16]

        /* Wait till HSE is disabled */
        while (__HAL_RCC_GET_FLAG(RCC_FLAG_HSERDY) != RESET)
 8001d7a:	e008      	b.n	8001d8e <HAL_RCC_OscConfig+0x11e>
        {
          if ((HAL_GetTick() - tickstart) > HSE_TIMEOUT_VALUE)
 8001d7c:	f7ff fc2a 	bl	80015d4 <HAL_GetTick>
 8001d80:	4602      	mov	r2, r0
 8001d82:	693b      	ldr	r3, [r7, #16]
 8001d84:	1ad3      	subs	r3, r2, r3
 8001d86:	2b64      	cmp	r3, #100	; 0x64
 8001d88:	d901      	bls.n	8001d8e <HAL_RCC_OscConfig+0x11e>
          {
            return HAL_TIMEOUT;
 8001d8a:	2303      	movs	r3, #3
 8001d8c:	e1e6      	b.n	800215c <HAL_RCC_OscConfig+0x4ec>
        while (__HAL_RCC_GET_FLAG(RCC_FLAG_HSERDY) != RESET)
 8001d8e:	4b53      	ldr	r3, [pc, #332]	; (8001edc <HAL_RCC_OscConfig+0x26c>)
 8001d90:	681b      	ldr	r3, [r3, #0]
 8001d92:	f403 3300 	and.w	r3, r3, #131072	; 0x20000
 8001d96:	2b00      	cmp	r3, #0
 8001d98:	d1f0      	bne.n	8001d7c <HAL_RCC_OscConfig+0x10c>
 8001d9a:	e000      	b.n	8001d9e <HAL_RCC_OscConfig+0x12e>
      if ((__HAL_RCC_GET_FLAG(RCC_FLAG_HSERDY) != RESET) && (RCC_OscInitStruct->HSEState == RCC_HSE_OFF))
 8001d9c:	bf00      	nop
        }
      }
    }
  }
  /*----------------------------- HSI Configuration --------------------------*/
  if (((RCC_OscInitStruct->OscillatorType) & RCC_OSCILLATORTYPE_HSI) == RCC_OSCILLATORTYPE_HSI)
 8001d9e:	687b      	ldr	r3, [r7, #4]
 8001da0:	681b      	ldr	r3, [r3, #0]
 8001da2:	f003 0302 	and.w	r3, r3, #2
 8001da6:	2b00      	cmp	r3, #0
 8001da8:	d063      	beq.n	8001e72 <HAL_RCC_OscConfig+0x202>
    /* Check the parameters */
    assert_param(IS_RCC_HSI(RCC_OscInitStruct->HSIState));
    assert_param(IS_RCC_CALIBRATION_VALUE(RCC_OscInitStruct->HSICalibrationValue));

    /* Check if HSI is used as system clock or as PLL source when PLL is selected as system clock */
    if ((__HAL_RCC_GET_SYSCLK_SOURCE() == RCC_SYSCLKSOURCE_STATUS_HSI)
 8001daa:	4b4c      	ldr	r3, [pc, #304]	; (8001edc <HAL_RCC_OscConfig+0x26c>)
 8001dac:	685b      	ldr	r3, [r3, #4]
 8001dae:	f003 030c 	and.w	r3, r3, #12
 8001db2:	2b00      	cmp	r3, #0
 8001db4:	d00b      	beq.n	8001dce <HAL_RCC_OscConfig+0x15e>
        || ((__HAL_RCC_GET_SYSCLK_SOURCE() == RCC_SYSCLKSOURCE_STATUS_PLLCLK) && (__HAL_RCC_GET_PLL_OSCSOURCE() == RCC_PLLSOURCE_HSI_DIV2)))
 8001db6:	4b49      	ldr	r3, [pc, #292]	; (8001edc <HAL_RCC_OscConfig+0x26c>)
 8001db8:	685b      	ldr	r3, [r3, #4]
 8001dba:	f003 030c 	and.w	r3, r3, #12
 8001dbe:	2b08      	cmp	r3, #8
 8001dc0:	d11c      	bne.n	8001dfc <HAL_RCC_OscConfig+0x18c>
 8001dc2:	4b46      	ldr	r3, [pc, #280]	; (8001edc <HAL_RCC_OscConfig+0x26c>)
 8001dc4:	685b      	ldr	r3, [r3, #4]
 8001dc6:	f403 3380 	and.w	r3, r3, #65536	; 0x10000
 8001dca:	2b00      	cmp	r3, #0
 8001dcc:	d116      	bne.n	8001dfc <HAL_RCC_OscConfig+0x18c>
    {
      /* When HSI is used as system clock it will not disabled */
      if ((__HAL_RCC_GET_FLAG(RCC_FLAG_HSIRDY) != RESET) && (RCC_OscInitStruct->HSIState != RCC_HSI_ON))
 8001dce:	4b43      	ldr	r3, [pc, #268]	; (8001edc <HAL_RCC_OscConfig+0x26c>)
 8001dd0:	681b      	ldr	r3, [r3, #0]
 8001dd2:	f003 0302 	and.w	r3, r3, #2
 8001dd6:	2b00      	cmp	r3, #0
 8001dd8:	d005      	beq.n	8001de6 <HAL_RCC_OscConfig+0x176>
 8001dda:	687b      	ldr	r3, [r7, #4]
 8001ddc:	691b      	ldr	r3, [r3, #16]
 8001dde:	2b01      	cmp	r3, #1
 8001de0:	d001      	beq.n	8001de6 <HAL_RCC_OscConfig+0x176>
      {
        return HAL_ERROR;
 8001de2:	2301      	movs	r3, #1
 8001de4:	e1ba      	b.n	800215c <HAL_RCC_OscConfig+0x4ec>
      }
      /* Otherwise, just the calibration is allowed */
      else
      {
        /* Adjusts the Internal High Speed oscillator (HSI) calibration value.*/
        __HAL_RCC_HSI_CALIBRATIONVALUE_ADJUST(RCC_OscInitStruct->HSICalibrationValue);
 8001de6:	4b3d      	ldr	r3, [pc, #244]	; (8001edc <HAL_RCC_OscConfig+0x26c>)
 8001de8:	681b      	ldr	r3, [r3, #0]
 8001dea:	f023 02f8 	bic.w	r2, r3, #248	; 0xf8
 8001dee:	687b      	ldr	r3, [r7, #4]
 8001df0:	695b      	ldr	r3, [r3, #20]
 8001df2:	00db      	lsls	r3, r3, #3
 8001df4:	4939      	ldr	r1, [pc, #228]	; (8001edc <HAL_RCC_OscConfig+0x26c>)
 8001df6:	4313      	orrs	r3, r2
 8001df8:	600b      	str	r3, [r1, #0]
      if ((__HAL_RCC_GET_FLAG(RCC_FLAG_HSIRDY) != RESET) && (RCC_OscInitStruct->HSIState != RCC_HSI_ON))
 8001dfa:	e03a      	b.n	8001e72 <HAL_RCC_OscConfig+0x202>
      }
    }
    else
    {
      /* Check the HSI State */
      if (RCC_OscInitStruct->HSIState != RCC_HSI_OFF)
 8001dfc:	687b      	ldr	r3, [r7, #4]
 8001dfe:	691b      	ldr	r3, [r3, #16]
 8001e00:	2b00      	cmp	r3, #0
 8001e02:	d020      	beq.n	8001e46 <HAL_RCC_OscConfig+0x1d6>
      {
        /* Enable the Internal High Speed oscillator (HSI). */
        __HAL_RCC_HSI_ENABLE();
 8001e04:	4b36      	ldr	r3, [pc, #216]	; (8001ee0 <HAL_RCC_OscConfig+0x270>)
 8001e06:	2201      	movs	r2, #1
 8001e08:	601a      	str	r2, [r3, #0]

        /* Get Start Tick */
        tickstart = HAL_GetTick();
 8001e0a:	f7ff fbe3 	bl	80015d4 <HAL_GetTick>
 8001e0e:	6138      	str	r0, [r7, #16]

        /* Wait till HSI is ready */
        while (__HAL_RCC_GET_FLAG(RCC_FLAG_HSIRDY) == RESET)
 8001e10:	e008      	b.n	8001e24 <HAL_RCC_OscConfig+0x1b4>
        {
          if ((HAL_GetTick() - tickstart) > HSI_TIMEOUT_VALUE)
 8001e12:	f7ff fbdf 	bl	80015d4 <HAL_GetTick>
 8001e16:	4602      	mov	r2, r0
 8001e18:	693b      	ldr	r3, [r7, #16]
 8001e1a:	1ad3      	subs	r3, r2, r3
 8001e1c:	2b02      	cmp	r3, #2
 8001e1e:	d901      	bls.n	8001e24 <HAL_RCC_OscConfig+0x1b4>
          {
            return HAL_TIMEOUT;
 8001e20:	2303      	movs	r3, #3
 8001e22:	e19b      	b.n	800215c <HAL_RCC_OscConfig+0x4ec>
        while (__HAL_RCC_GET_FLAG(RCC_FLAG_HSIRDY) == RESET)
 8001e24:	4b2d      	ldr	r3, [pc, #180]	; (8001edc <HAL_RCC_OscConfig+0x26c>)
 8001e26:	681b      	ldr	r3, [r3, #0]
 8001e28:	f003 0302 	and.w	r3, r3, #2
 8001e2c:	2b00      	cmp	r3, #0
 8001e2e:	d0f0      	beq.n	8001e12 <HAL_RCC_OscConfig+0x1a2>
          }
        }

        /* Adjusts the Internal High Speed oscillator (HSI) calibration value.*/
        __HAL_RCC_HSI_CALIBRATIONVALUE_ADJUST(RCC_OscInitStruct->HSICalibrationValue);
 8001e30:	4b2a      	ldr	r3, [pc, #168]	; (8001edc <HAL_RCC_OscConfig+0x26c>)
 8001e32:	681b      	ldr	r3, [r3, #0]
 8001e34:	f023 02f8 	bic.w	r2, r3, #248	; 0xf8
 8001e38:	687b      	ldr	r3, [r7, #4]
 8001e3a:	695b      	ldr	r3, [r3, #20]
 8001e3c:	00db      	lsls	r3, r3, #3
 8001e3e:	4927      	ldr	r1, [pc, #156]	; (8001edc <HAL_RCC_OscConfig+0x26c>)
 8001e40:	4313      	orrs	r3, r2
 8001e42:	600b      	str	r3, [r1, #0]
 8001e44:	e015      	b.n	8001e72 <HAL_RCC_OscConfig+0x202>
      }
      else
      {
        /* Disable the Internal High Speed oscillator (HSI). */
        __HAL_RCC_HSI_DISABLE();
 8001e46:	4b26      	ldr	r3, [pc, #152]	; (8001ee0 <HAL_RCC_OscConfig+0x270>)
 8001e48:	2200      	movs	r2, #0
 8001e4a:	601a      	str	r2, [r3, #0]

        /* Get Start Tick */
        tickstart = HAL_GetTick();
 8001e4c:	f7ff fbc2 	bl	80015d4 <HAL_GetTick>
 8001e50:	6138      	str	r0, [r7, #16]

        /* Wait till HSI is disabled */
        while (__HAL_RCC_GET_FLAG(RCC_FLAG_HSIRDY) != RESET)
 8001e52:	e008      	b.n	8001e66 <HAL_RCC_OscConfig+0x1f6>
        {
          if ((HAL_GetTick() - tickstart) > HSI_TIMEOUT_VALUE)
 8001e54:	f7ff fbbe 	bl	80015d4 <HAL_GetTick>
 8001e58:	4602      	mov	r2, r0
 8001e5a:	693b      	ldr	r3, [r7, #16]
 8001e5c:	1ad3      	subs	r3, r2, r3
 8001e5e:	2b02      	cmp	r3, #2
 8001e60:	d901      	bls.n	8001e66 <HAL_RCC_OscConfig+0x1f6>
          {
            return HAL_TIMEOUT;
 8001e62:	2303      	movs	r3, #3
 8001e64:	e17a      	b.n	800215c <HAL_RCC_OscConfig+0x4ec>
        while (__HAL_RCC_GET_FLAG(RCC_FLAG_HSIRDY) != RESET)
 8001e66:	4b1d      	ldr	r3, [pc, #116]	; (8001edc <HAL_RCC_OscConfig+0x26c>)
 8001e68:	681b      	ldr	r3, [r3, #0]
 8001e6a:	f003 0302 	and.w	r3, r3, #2
 8001e6e:	2b00      	cmp	r3, #0
 8001e70:	d1f0      	bne.n	8001e54 <HAL_RCC_OscConfig+0x1e4>
        }
      }
    }
  }
  /*------------------------------ LSI Configuration -------------------------*/
  if (((RCC_OscInitStruct->OscillatorType) & RCC_OSCILLATORTYPE_LSI) == RCC_OSCILLATORTYPE_LSI)
 8001e72:	687b      	ldr	r3, [r7, #4]
 8001e74:	681b      	ldr	r3, [r3, #0]
 8001e76:	f003 0308 	and.w	r3, r3, #8
 8001e7a:	2b00      	cmp	r3, #0
 8001e7c:	d03a      	beq.n	8001ef4 <HAL_RCC_OscConfig+0x284>
  {
    /* Check the parameters */
    assert_param(IS_RCC_LSI(RCC_OscInitStruct->LSIState));

    /* Check the LSI State */
    if (RCC_OscInitStruct->LSIState != RCC_LSI_OFF)
 8001e7e:	687b      	ldr	r3, [r7, #4]
 8001e80:	699b      	ldr	r3, [r3, #24]
 8001e82:	2b00      	cmp	r3, #0
 8001e84:	d019      	beq.n	8001eba <HAL_RCC_OscConfig+0x24a>
    {
      /* Enable the Internal Low Speed oscillator (LSI). */
      __HAL_RCC_LSI_ENABLE();
 8001e86:	4b17      	ldr	r3, [pc, #92]	; (8001ee4 <HAL_RCC_OscConfig+0x274>)
 8001e88:	2201      	movs	r2, #1
 8001e8a:	601a      	str	r2, [r3, #0]

      /* Get Start Tick */
      tickstart = HAL_GetTick();
 8001e8c:	f7ff fba2 	bl	80015d4 <HAL_GetTick>
 8001e90:	6138      	str	r0, [r7, #16]

      /* Wait till LSI is ready */
      while (__HAL_RCC_GET_FLAG(RCC_FLAG_LSIRDY) == RESET)
 8001e92:	e008      	b.n	8001ea6 <HAL_RCC_OscConfig+0x236>
      {
        if ((HAL_GetTick() - tickstart) > LSI_TIMEOUT_VALUE)
 8001e94:	f7ff fb9e 	bl	80015d4 <HAL_GetTick>
 8001e98:	4602      	mov	r2, r0
 8001e9a:	693b      	ldr	r3, [r7, #16]
 8001e9c:	1ad3      	subs	r3, r2, r3
 8001e9e:	2b02      	cmp	r3, #2
 8001ea0:	d901      	bls.n	8001ea6 <HAL_RCC_OscConfig+0x236>
        {
          return HAL_TIMEOUT;
 8001ea2:	2303      	movs	r3, #3
 8001ea4:	e15a      	b.n	800215c <HAL_RCC_OscConfig+0x4ec>
      while (__HAL_RCC_GET_FLAG(RCC_FLAG_LSIRDY) == RESET)
 8001ea6:	4b0d      	ldr	r3, [pc, #52]	; (8001edc <HAL_RCC_OscConfig+0x26c>)
 8001ea8:	6a5b      	ldr	r3, [r3, #36]	; 0x24
 8001eaa:	f003 0302 	and.w	r3, r3, #2
 8001eae:	2b00      	cmp	r3, #0
 8001eb0:	d0f0      	beq.n	8001e94 <HAL_RCC_OscConfig+0x224>
        }
      }
      /*  To have a fully stabilized clock in the specified range, a software delay of 1ms
          should be added.*/
      RCC_Delay(1);
 8001eb2:	2001      	movs	r0, #1
 8001eb4:	f000 fad8 	bl	8002468 <RCC_Delay>
 8001eb8:	e01c      	b.n	8001ef4 <HAL_RCC_OscConfig+0x284>
    }
    else
    {
      /* Disable the Internal Low Speed oscillator (LSI). */
      __HAL_RCC_LSI_DISABLE();
 8001eba:	4b0a      	ldr	r3, [pc, #40]	; (8001ee4 <HAL_RCC_OscConfig+0x274>)
 8001ebc:	2200      	movs	r2, #0
 8001ebe:	601a      	str	r2, [r3, #0]

      /* Get Start Tick */
      tickstart = HAL_GetTick();
 8001ec0:	f7ff fb88 	bl	80015d4 <HAL_GetTick>
 8001ec4:	6138      	str	r0, [r7, #16]

      /* Wait till LSI is disabled */
      while (__HAL_RCC_GET_FLAG(RCC_FLAG_LSIRDY) != RESET)
 8001ec6:	e00f      	b.n	8001ee8 <HAL_RCC_OscConfig+0x278>
      {
        if ((HAL_GetTick() - tickstart) > LSI_TIMEOUT_VALUE)
 8001ec8:	f7ff fb84 	bl	80015d4 <HAL_GetTick>
 8001ecc:	4602      	mov	r2, r0
 8001ece:	693b      	ldr	r3, [r7, #16]
 8001ed0:	1ad3      	subs	r3, r2, r3
 8001ed2:	2b02      	cmp	r3, #2
 8001ed4:	d908      	bls.n	8001ee8 <HAL_RCC_OscConfig+0x278>
        {
          return HAL_TIMEOUT;
 8001ed6:	2303      	movs	r3, #3
 8001ed8:	e140      	b.n	800215c <HAL_RCC_OscConfig+0x4ec>
 8001eda:	bf00      	nop
 8001edc:	40021000 	.word	0x40021000
 8001ee0:	42420000 	.word	0x42420000
 8001ee4:	42420480 	.word	0x42420480
      while (__HAL_RCC_GET_FLAG(RCC_FLAG_LSIRDY) != RESET)
 8001ee8:	4b9e      	ldr	r3, [pc, #632]	; (8002164 <HAL_RCC_OscConfig+0x4f4>)
 8001eea:	6a5b      	ldr	r3, [r3, #36]	; 0x24
 8001eec:	f003 0302 	and.w	r3, r3, #2
 8001ef0:	2b00      	cmp	r3, #0
 8001ef2:	d1e9      	bne.n	8001ec8 <HAL_RCC_OscConfig+0x258>
        }
      }
    }
  }
  /*------------------------------ LSE Configuration -------------------------*/
  if (((RCC_OscInitStruct->OscillatorType) & RCC_OSCILLATORTYPE_LSE) == RCC_OSCILLATORTYPE_LSE)
 8001ef4:	687b      	ldr	r3, [r7, #4]
 8001ef6:	681b      	ldr	r3, [r3, #0]
 8001ef8:	f003 0304 	and.w	r3, r3, #4
 8001efc:	2b00      	cmp	r3, #0
 8001efe:	f000 80a6 	beq.w	800204e <HAL_RCC_OscConfig+0x3de>
  {
    FlagStatus       pwrclkchanged = RESET;
 8001f02:	2300      	movs	r3, #0
 8001f04:	75fb      	strb	r3, [r7, #23]
    /* Check the parameters */
    assert_param(IS_RCC_LSE(RCC_OscInitStruct->LSEState));

    /* Update LSE configuration in Backup Domain control register    */
    /* Requires to enable write access to Backup Domain of necessary */
    if (__HAL_RCC_PWR_IS_CLK_DISABLED())
 8001f06:	4b97      	ldr	r3, [pc, #604]	; (8002164 <HAL_RCC_OscConfig+0x4f4>)
 8001f08:	69db      	ldr	r3, [r3, #28]
 8001f0a:	f003 5380 	and.w	r3, r3, #268435456	; 0x10000000
 8001f0e:	2b00      	cmp	r3, #0
 8001f10:	d10d      	bne.n	8001f2e <HAL_RCC_OscConfig+0x2be>
    {
      __HAL_RCC_PWR_CLK_ENABLE();
 8001f12:	4b94      	ldr	r3, [pc, #592]	; (8002164 <HAL_RCC_OscConfig+0x4f4>)
 8001f14:	69db      	ldr	r3, [r3, #28]
 8001f16:	4a93      	ldr	r2, [pc, #588]	; (8002164 <HAL_RCC_OscConfig+0x4f4>)
 8001f18:	f043 5380 	orr.w	r3, r3, #268435456	; 0x10000000
 8001f1c:	61d3      	str	r3, [r2, #28]
 8001f1e:	4b91      	ldr	r3, [pc, #580]	; (8002164 <HAL_RCC_OscConfig+0x4f4>)
 8001f20:	69db      	ldr	r3, [r3, #28]
 8001f22:	f003 5380 	and.w	r3, r3, #268435456	; 0x10000000
 8001f26:	60bb      	str	r3, [r7, #8]
 8001f28:	68bb      	ldr	r3, [r7, #8]
      pwrclkchanged = SET;
 8001f2a:	2301      	movs	r3, #1
 8001f2c:	75fb      	strb	r3, [r7, #23]
    }

    if (HAL_IS_BIT_CLR(PWR->CR, PWR_CR_DBP))
 8001f2e:	4b8e      	ldr	r3, [pc, #568]	; (8002168 <HAL_RCC_OscConfig+0x4f8>)
 8001f30:	681b      	ldr	r3, [r3, #0]
 8001f32:	f403 7380 	and.w	r3, r3, #256	; 0x100
 8001f36:	2b00      	cmp	r3, #0
 8001f38:	d118      	bne.n	8001f6c <HAL_RCC_OscConfig+0x2fc>
    {
      /* Enable write access to Backup domain */
      SET_BIT(PWR->CR, PWR_CR_DBP);
 8001f3a:	4b8b      	ldr	r3, [pc, #556]	; (8002168 <HAL_RCC_OscConfig+0x4f8>)
 8001f3c:	681b      	ldr	r3, [r3, #0]
 8001f3e:	4a8a      	ldr	r2, [pc, #552]	; (8002168 <HAL_RCC_OscConfig+0x4f8>)
 8001f40:	f443 7380 	orr.w	r3, r3, #256	; 0x100
 8001f44:	6013      	str	r3, [r2, #0]

      /* Wait for Backup domain Write protection disable */
      tickstart = HAL_GetTick();
 8001f46:	f7ff fb45 	bl	80015d4 <HAL_GetTick>
 8001f4a:	6138      	str	r0, [r7, #16]

      while (HAL_IS_BIT_CLR(PWR->CR, PWR_CR_DBP))
 8001f4c:	e008      	b.n	8001f60 <HAL_RCC_OscConfig+0x2f0>
      {
        if ((HAL_GetTick() - tickstart) > RCC_DBP_TIMEOUT_VALUE)
 8001f4e:	f7ff fb41 	bl	80015d4 <HAL_GetTick>
 8001f52:	4602      	mov	r2, r0
 8001f54:	693b      	ldr	r3, [r7, #16]
 8001f56:	1ad3      	subs	r3, r2, r3
 8001f58:	2b64      	cmp	r3, #100	; 0x64
 8001f5a:	d901      	bls.n	8001f60 <HAL_RCC_OscConfig+0x2f0>
        {
          return HAL_TIMEOUT;
 8001f5c:	2303      	movs	r3, #3
 8001f5e:	e0fd      	b.n	800215c <HAL_RCC_OscConfig+0x4ec>
      while (HAL_IS_BIT_CLR(PWR->CR, PWR_CR_DBP))
 8001f60:	4b81      	ldr	r3, [pc, #516]	; (8002168 <HAL_RCC_OscConfig+0x4f8>)
 8001f62:	681b      	ldr	r3, [r3, #0]
 8001f64:	f403 7380 	and.w	r3, r3, #256	; 0x100
 8001f68:	2b00      	cmp	r3, #0
 8001f6a:	d0f0      	beq.n	8001f4e <HAL_RCC_OscConfig+0x2de>
        }
      }
    }

    /* Set the new LSE configuration -----------------------------------------*/
    __HAL_RCC_LSE_CONFIG(RCC_OscInitStruct->LSEState);
 8001f6c:	687b      	ldr	r3, [r7, #4]
 8001f6e:	68db      	ldr	r3, [r3, #12]
 8001f70:	2b01      	cmp	r3, #1
 8001f72:	d106      	bne.n	8001f82 <HAL_RCC_OscConfig+0x312>
 8001f74:	4b7b      	ldr	r3, [pc, #492]	; (8002164 <HAL_RCC_OscConfig+0x4f4>)
 8001f76:	6a1b      	ldr	r3, [r3, #32]
 8001f78:	4a7a      	ldr	r2, [pc, #488]	; (8002164 <HAL_RCC_OscConfig+0x4f4>)
 8001f7a:	f043 0301 	orr.w	r3, r3, #1
 8001f7e:	6213      	str	r3, [r2, #32]
 8001f80:	e02d      	b.n	8001fde <HAL_RCC_OscConfig+0x36e>
 8001f82:	687b      	ldr	r3, [r7, #4]
 8001f84:	68db      	ldr	r3, [r3, #12]
 8001f86:	2b00      	cmp	r3, #0
 8001f88:	d10c      	bne.n	8001fa4 <HAL_RCC_OscConfig+0x334>
 8001f8a:	4b76      	ldr	r3, [pc, #472]	; (8002164 <HAL_RCC_OscConfig+0x4f4>)
 8001f8c:	6a1b      	ldr	r3, [r3, #32]
 8001f8e:	4a75      	ldr	r2, [pc, #468]	; (8002164 <HAL_RCC_OscConfig+0x4f4>)
 8001f90:	f023 0301 	bic.w	r3, r3, #1
 8001f94:	6213      	str	r3, [r2, #32]
 8001f96:	4b73      	ldr	r3, [pc, #460]	; (8002164 <HAL_RCC_OscConfig+0x4f4>)
 8001f98:	6a1b      	ldr	r3, [r3, #32]
 8001f9a:	4a72      	ldr	r2, [pc, #456]	; (8002164 <HAL_RCC_OscConfig+0x4f4>)
 8001f9c:	f023 0304 	bic.w	r3, r3, #4
 8001fa0:	6213      	str	r3, [r2, #32]
 8001fa2:	e01c      	b.n	8001fde <HAL_RCC_OscConfig+0x36e>
 8001fa4:	687b      	ldr	r3, [r7, #4]
 8001fa6:	68db      	ldr	r3, [r3, #12]
 8001fa8:	2b05      	cmp	r3, #5
 8001faa:	d10c      	bne.n	8001fc6 <HAL_RCC_OscConfig+0x356>
 8001fac:	4b6d      	ldr	r3, [pc, #436]	; (8002164 <HAL_RCC_OscConfig+0x4f4>)
 8001fae:	6a1b      	ldr	r3, [r3, #32]
 8001fb0:	4a6c      	ldr	r2, [pc, #432]	; (8002164 <HAL_RCC_OscConfig+0x4f4>)
 8001fb2:	f043 0304 	orr.w	r3, r3, #4
 8001fb6:	6213      	str	r3, [r2, #32]
 8001fb8:	4b6a      	ldr	r3, [pc, #424]	; (8002164 <HAL_RCC_OscConfig+0x4f4>)
 8001fba:	6a1b      	ldr	r3, [r3, #32]
 8001fbc:	4a69      	ldr	r2, [pc, #420]	; (8002164 <HAL_RCC_OscConfig+0x4f4>)
 8001fbe:	f043 0301 	orr.w	r3, r3, #1
 8001fc2:	6213      	str	r3, [r2, #32]
 8001fc4:	e00b      	b.n	8001fde <HAL_RCC_OscConfig+0x36e>
 8001fc6:	4b67      	ldr	r3, [pc, #412]	; (8002164 <HAL_RCC_OscConfig+0x4f4>)
 8001fc8:	6a1b      	ldr	r3, [r3, #32]
 8001fca:	4a66      	ldr	r2, [pc, #408]	; (8002164 <HAL_RCC_OscConfig+0x4f4>)
 8001fcc:	f023 0301 	bic.w	r3, r3, #1
 8001fd0:	6213      	str	r3, [r2, #32]
 8001fd2:	4b64      	ldr	r3, [pc, #400]	; (8002164 <HAL_RCC_OscConfig+0x4f4>)
 8001fd4:	6a1b      	ldr	r3, [r3, #32]
 8001fd6:	4a63      	ldr	r2, [pc, #396]	; (8002164 <HAL_RCC_OscConfig+0x4f4>)
 8001fd8:	f023 0304 	bic.w	r3, r3, #4
 8001fdc:	6213      	str	r3, [r2, #32]
    /* Check the LSE State */
    if (RCC_OscInitStruct->LSEState != RCC_LSE_OFF)
 8001fde:	687b      	ldr	r3, [r7, #4]
 8001fe0:	68db      	ldr	r3, [r3, #12]
 8001fe2:	2b00      	cmp	r3, #0
 8001fe4:	d015      	beq.n	8002012 <HAL_RCC_OscConfig+0x3a2>
    {
      /* Get Start Tick */
      tickstart = HAL_GetTick();
 8001fe6:	f7ff faf5 	bl	80015d4 <HAL_GetTick>
 8001fea:	6138      	str	r0, [r7, #16]

      /* Wait till LSE is ready */
      while (__HAL_RCC_GET_FLAG(RCC_FLAG_LSERDY) == RESET)
 8001fec:	e00a      	b.n	8002004 <HAL_RCC_OscConfig+0x394>
      {
        if ((HAL_GetTick() - tickstart) > RCC_LSE_TIMEOUT_VALUE)
 8001fee:	f7ff faf1 	bl	80015d4 <HAL_GetTick>
 8001ff2:	4602      	mov	r2, r0
 8001ff4:	693b      	ldr	r3, [r7, #16]
 8001ff6:	1ad3      	subs	r3, r2, r3
 8001ff8:	f241 3288 	movw	r2, #5000	; 0x1388
 8001ffc:	4293      	cmp	r3, r2
 8001ffe:	d901      	bls.n	8002004 <HAL_RCC_OscConfig+0x394>
        {
          return HAL_TIMEOUT;
 8002000:	2303      	movs	r3, #3
 8002002:	e0ab      	b.n	800215c <HAL_RCC_OscConfig+0x4ec>
      while (__HAL_RCC_GET_FLAG(RCC_FLAG_LSERDY) == RESET)
 8002004:	4b57      	ldr	r3, [pc, #348]	; (8002164 <HAL_RCC_OscConfig+0x4f4>)
 8002006:	6a1b      	ldr	r3, [r3, #32]
 8002008:	f003 0302 	and.w	r3, r3, #2
 800200c:	2b00      	cmp	r3, #0
 800200e:	d0ee      	beq.n	8001fee <HAL_RCC_OscConfig+0x37e>
 8002010:	e014      	b.n	800203c <HAL_RCC_OscConfig+0x3cc>
      }
    }
    else
    {
      /* Get Start Tick */
      tickstart = HAL_GetTick();
 8002012:	f7ff fadf 	bl	80015d4 <HAL_GetTick>
 8002016:	6138      	str	r0, [r7, #16]

      /* Wait till LSE is disabled */
      while (__HAL_RCC_GET_FLAG(RCC_FLAG_LSERDY) != RESET)
 8002018:	e00a      	b.n	8002030 <HAL_RCC_OscConfig+0x3c0>
      {
        if ((HAL_GetTick() - tickstart) > RCC_LSE_TIMEOUT_VALUE)
 800201a:	f7ff fadb 	bl	80015d4 <HAL_GetTick>
 800201e:	4602      	mov	r2, r0
 8002020:	693b      	ldr	r3, [r7, #16]
 8002022:	1ad3      	subs	r3, r2, r3
 8002024:	f241 3288 	movw	r2, #5000	; 0x1388
 8002028:	4293      	cmp	r3, r2
 800202a:	d901      	bls.n	8002030 <HAL_RCC_OscConfig+0x3c0>
        {
          return HAL_TIMEOUT;
 800202c:	2303      	movs	r3, #3
 800202e:	e095      	b.n	800215c <HAL_RCC_OscConfig+0x4ec>
      while (__HAL_RCC_GET_FLAG(RCC_FLAG_LSERDY) != RESET)
 8002030:	4b4c      	ldr	r3, [pc, #304]	; (8002164 <HAL_RCC_OscConfig+0x4f4>)
 8002032:	6a1b      	ldr	r3, [r3, #32]
 8002034:	f003 0302 	and.w	r3, r3, #2
 8002038:	2b00      	cmp	r3, #0
 800203a:	d1ee      	bne.n	800201a <HAL_RCC_OscConfig+0x3aa>
        }
      }
    }

    /* Require to disable power clock if necessary */
    if (pwrclkchanged == SET)
 800203c:	7dfb      	ldrb	r3, [r7, #23]
 800203e:	2b01      	cmp	r3, #1
 8002040:	d105      	bne.n	800204e <HAL_RCC_OscConfig+0x3de>
    {
      __HAL_RCC_PWR_CLK_DISABLE();
 8002042:	4b48      	ldr	r3, [pc, #288]	; (8002164 <HAL_RCC_OscConfig+0x4f4>)
 8002044:	69db      	ldr	r3, [r3, #28]
 8002046:	4a47      	ldr	r2, [pc, #284]	; (8002164 <HAL_RCC_OscConfig+0x4f4>)
 8002048:	f023 5380 	bic.w	r3, r3, #268435456	; 0x10000000
 800204c:	61d3      	str	r3, [r2, #28]

#endif /* RCC_CR_PLL2ON */
  /*-------------------------------- PLL Configuration -----------------------*/
  /* Check the parameters */
  assert_param(IS_RCC_PLL(RCC_OscInitStruct->PLL.PLLState));
  if ((RCC_OscInitStruct->PLL.PLLState) != RCC_PLL_NONE)
 800204e:	687b      	ldr	r3, [r7, #4]
 8002050:	69db      	ldr	r3, [r3, #28]
 8002052:	2b00      	cmp	r3, #0
 8002054:	f000 8081 	beq.w	800215a <HAL_RCC_OscConfig+0x4ea>
  {
    /* Check if the PLL is used as system clock or not */
    if (__HAL_RCC_GET_SYSCLK_SOURCE() != RCC_SYSCLKSOURCE_STATUS_PLLCLK)
 8002058:	4b42      	ldr	r3, [pc, #264]	; (8002164 <HAL_RCC_OscConfig+0x4f4>)
 800205a:	685b      	ldr	r3, [r3, #4]
 800205c:	f003 030c 	and.w	r3, r3, #12
 8002060:	2b08      	cmp	r3, #8
 8002062:	d061      	beq.n	8002128 <HAL_RCC_OscConfig+0x4b8>
    {
      if ((RCC_OscInitStruct->PLL.PLLState) == RCC_PLL_ON)
 8002064:	687b      	ldr	r3, [r7, #4]
 8002066:	69db      	ldr	r3, [r3, #28]
 8002068:	2b02      	cmp	r3, #2
 800206a:	d146      	bne.n	80020fa <HAL_RCC_OscConfig+0x48a>
        /* Check the parameters */
        assert_param(IS_RCC_PLLSOURCE(RCC_OscInitStruct->PLL.PLLSource));
        assert_param(IS_RCC_PLL_MUL(RCC_OscInitStruct->PLL.PLLMUL));

        /* Disable the main PLL. */
        __HAL_RCC_PLL_DISABLE();
 800206c:	4b3f      	ldr	r3, [pc, #252]	; (800216c <HAL_RCC_OscConfig+0x4fc>)
 800206e:	2200      	movs	r2, #0
 8002070:	601a      	str	r2, [r3, #0]

        /* Get Start Tick */
        tickstart = HAL_GetTick();
 8002072:	f7ff faaf 	bl	80015d4 <HAL_GetTick>
 8002076:	6138      	str	r0, [r7, #16]

        /* Wait till PLL is disabled */
        while (__HAL_RCC_GET_FLAG(RCC_FLAG_PLLRDY)  != RESET)
 8002078:	e008      	b.n	800208c <HAL_RCC_OscConfig+0x41c>
        {
          if ((HAL_GetTick() - tickstart) > PLL_TIMEOUT_VALUE)
 800207a:	f7ff faab 	bl	80015d4 <HAL_GetTick>
 800207e:	4602      	mov	r2, r0
 8002080:	693b      	ldr	r3, [r7, #16]
 8002082:	1ad3      	subs	r3, r2, r3
 8002084:	2b02      	cmp	r3, #2
 8002086:	d901      	bls.n	800208c <HAL_RCC_OscConfig+0x41c>
          {
            return HAL_TIMEOUT;
 8002088:	2303      	movs	r3, #3
 800208a:	e067      	b.n	800215c <HAL_RCC_OscConfig+0x4ec>
        while (__HAL_RCC_GET_FLAG(RCC_FLAG_PLLRDY)  != RESET)
 800208c:	4b35      	ldr	r3, [pc, #212]	; (8002164 <HAL_RCC_OscConfig+0x4f4>)
 800208e:	681b      	ldr	r3, [r3, #0]
 8002090:	f003 7300 	and.w	r3, r3, #33554432	; 0x2000000
 8002094:	2b00      	cmp	r3, #0
 8002096:	d1f0      	bne.n	800207a <HAL_RCC_OscConfig+0x40a>
          }
        }

        /* Configure the HSE prediv factor --------------------------------*/
        /* It can be written only when the PLL is disabled. Not used in PLL source is different than HSE */
        if (RCC_OscInitStruct->PLL.PLLSource == RCC_PLLSOURCE_HSE)
 8002098:	687b      	ldr	r3, [r7, #4]
 800209a:	6a1b      	ldr	r3, [r3, #32]
 800209c:	f5b3 3f80 	cmp.w	r3, #65536	; 0x10000
 80020a0:	d108      	bne.n	80020b4 <HAL_RCC_OscConfig+0x444>
          /* Set PREDIV1 source */
          SET_BIT(RCC->CFGR2, RCC_OscInitStruct->Prediv1Source);
#endif /* RCC_CFGR2_PREDIV1SRC */

          /* Set PREDIV1 Value */
          __HAL_RCC_HSE_PREDIV_CONFIG(RCC_OscInitStruct->HSEPredivValue);
 80020a2:	4b30      	ldr	r3, [pc, #192]	; (8002164 <HAL_RCC_OscConfig+0x4f4>)
 80020a4:	685b      	ldr	r3, [r3, #4]
 80020a6:	f423 3200 	bic.w	r2, r3, #131072	; 0x20000
 80020aa:	687b      	ldr	r3, [r7, #4]
 80020ac:	689b      	ldr	r3, [r3, #8]
 80020ae:	492d      	ldr	r1, [pc, #180]	; (8002164 <HAL_RCC_OscConfig+0x4f4>)
 80020b0:	4313      	orrs	r3, r2
 80020b2:	604b      	str	r3, [r1, #4]
        }

        /* Configure the main PLL clock source and multiplication factors. */
        __HAL_RCC_PLL_CONFIG(RCC_OscInitStruct->PLL.PLLSource,
 80020b4:	4b2b      	ldr	r3, [pc, #172]	; (8002164 <HAL_RCC_OscConfig+0x4f4>)
 80020b6:	685b      	ldr	r3, [r3, #4]
 80020b8:	f423 1274 	bic.w	r2, r3, #3997696	; 0x3d0000
 80020bc:	687b      	ldr	r3, [r7, #4]
 80020be:	6a19      	ldr	r1, [r3, #32]
 80020c0:	687b      	ldr	r3, [r7, #4]
 80020c2:	6a5b      	ldr	r3, [r3, #36]	; 0x24
 80020c4:	430b      	orrs	r3, r1
 80020c6:	4927      	ldr	r1, [pc, #156]	; (8002164 <HAL_RCC_OscConfig+0x4f4>)
 80020c8:	4313      	orrs	r3, r2
 80020ca:	604b      	str	r3, [r1, #4]
                             RCC_OscInitStruct->PLL.PLLMUL);
        /* Enable the main PLL. */
        __HAL_RCC_PLL_ENABLE();
 80020cc:	4b27      	ldr	r3, [pc, #156]	; (800216c <HAL_RCC_OscConfig+0x4fc>)
 80020ce:	2201      	movs	r2, #1
 80020d0:	601a      	str	r2, [r3, #0]

        /* Get Start Tick */
        tickstart = HAL_GetTick();
 80020d2:	f7ff fa7f 	bl	80015d4 <HAL_GetTick>
 80020d6:	6138      	str	r0, [r7, #16]

        /* Wait till PLL is ready */
        while (__HAL_RCC_GET_FLAG(RCC_FLAG_PLLRDY)  == RESET)
 80020d8:	e008      	b.n	80020ec <HAL_RCC_OscConfig+0x47c>
        {
          if ((HAL_GetTick() - tickstart) > PLL_TIMEOUT_VALUE)
 80020da:	f7ff fa7b 	bl	80015d4 <HAL_GetTick>
 80020de:	4602      	mov	r2, r0
 80020e0:	693b      	ldr	r3, [r7, #16]
 80020e2:	1ad3      	subs	r3, r2, r3
 80020e4:	2b02      	cmp	r3, #2
 80020e6:	d901      	bls.n	80020ec <HAL_RCC_OscConfig+0x47c>
          {
            return HAL_TIMEOUT;
 80020e8:	2303      	movs	r3, #3
 80020ea:	e037      	b.n	800215c <HAL_RCC_OscConfig+0x4ec>
        while (__HAL_RCC_GET_FLAG(RCC_FLAG_PLLRDY)  == RESET)
 80020ec:	4b1d      	ldr	r3, [pc, #116]	; (8002164 <HAL_RCC_OscConfig+0x4f4>)
 80020ee:	681b      	ldr	r3, [r3, #0]
 80020f0:	f003 7300 	and.w	r3, r3, #33554432	; 0x2000000
 80020f4:	2b00      	cmp	r3, #0
 80020f6:	d0f0      	beq.n	80020da <HAL_RCC_OscConfig+0x46a>
 80020f8:	e02f      	b.n	800215a <HAL_RCC_OscConfig+0x4ea>
        }
      }
      else
      {
        /* Disable the main PLL. */
        __HAL_RCC_PLL_DISABLE();
 80020fa:	4b1c      	ldr	r3, [pc, #112]	; (800216c <HAL_RCC_OscConfig+0x4fc>)
 80020fc:	2200      	movs	r2, #0
 80020fe:	601a      	str	r2, [r3, #0]

        /* Get Start Tick */
        tickstart = HAL_GetTick();
 8002100:	f7ff fa68 	bl	80015d4 <HAL_GetTick>
 8002104:	6138      	str	r0, [r7, #16]

        /* Wait till PLL is disabled */
        while (__HAL_RCC_GET_FLAG(RCC_FLAG_PLLRDY)  != RESET)
 8002106:	e008      	b.n	800211a <HAL_RCC_OscConfig+0x4aa>
        {
          if ((HAL_GetTick() - tickstart) > PLL_TIMEOUT_VALUE)
 8002108:	f7ff fa64 	bl	80015d4 <HAL_GetTick>
 800210c:	4602      	mov	r2, r0
 800210e:	693b      	ldr	r3, [r7, #16]
 8002110:	1ad3      	subs	r3, r2, r3
 8002112:	2b02      	cmp	r3, #2
 8002114:	d901      	bls.n	800211a <HAL_RCC_OscConfig+0x4aa>
          {
            return HAL_TIMEOUT;
 8002116:	2303      	movs	r3, #3
 8002118:	e020      	b.n	800215c <HAL_RCC_OscConfig+0x4ec>
        while (__HAL_RCC_GET_FLAG(RCC_FLAG_PLLRDY)  != RESET)
 800211a:	4b12      	ldr	r3, [pc, #72]	; (8002164 <HAL_RCC_OscConfig+0x4f4>)
 800211c:	681b      	ldr	r3, [r3, #0]
 800211e:	f003 7300 	and.w	r3, r3, #33554432	; 0x2000000
 8002122:	2b00      	cmp	r3, #0
 8002124:	d1f0      	bne.n	8002108 <HAL_RCC_OscConfig+0x498>
 8002126:	e018      	b.n	800215a <HAL_RCC_OscConfig+0x4ea>
      }
    }
    else
    {
      /* Check if there is a request to disable the PLL used as System clock source */
      if ((RCC_OscInitStruct->PLL.PLLState) == RCC_PLL_OFF)
 8002128:	687b      	ldr	r3, [r7, #4]
 800212a:	69db      	ldr	r3, [r3, #28]
 800212c:	2b01      	cmp	r3, #1
 800212e:	d101      	bne.n	8002134 <HAL_RCC_OscConfig+0x4c4>
      {
        return HAL_ERROR;
 8002130:	2301      	movs	r3, #1
 8002132:	e013      	b.n	800215c <HAL_RCC_OscConfig+0x4ec>
      }
      else
      {
        /* Do not return HAL_ERROR if request repeats the current configuration */
        pll_config = RCC->CFGR;
 8002134:	4b0b      	ldr	r3, [pc, #44]	; (8002164 <HAL_RCC_OscConfig+0x4f4>)
 8002136:	685b      	ldr	r3, [r3, #4]
 8002138:	60fb      	str	r3, [r7, #12]
        if ((READ_BIT(pll_config, RCC_CFGR_PLLSRC) != RCC_OscInitStruct->PLL.PLLSource) ||
 800213a:	68fb      	ldr	r3, [r7, #12]
 800213c:	f403 3280 	and.w	r2, r3, #65536	; 0x10000
 8002140:	687b      	ldr	r3, [r7, #4]
 8002142:	6a1b      	ldr	r3, [r3, #32]
 8002144:	429a      	cmp	r2, r3
 8002146:	d106      	bne.n	8002156 <HAL_RCC_OscConfig+0x4e6>
            (READ_BIT(pll_config, RCC_CFGR_PLLMULL) != RCC_OscInitStruct->PLL.PLLMUL))
 8002148:	68fb      	ldr	r3, [r7, #12]
 800214a:	f403 1270 	and.w	r2, r3, #3932160	; 0x3c0000
 800214e:	687b      	ldr	r3, [r7, #4]
 8002150:	6a5b      	ldr	r3, [r3, #36]	; 0x24
        if ((READ_BIT(pll_config, RCC_CFGR_PLLSRC) != RCC_OscInitStruct->PLL.PLLSource) ||
 8002152:	429a      	cmp	r2, r3
 8002154:	d001      	beq.n	800215a <HAL_RCC_OscConfig+0x4ea>
        {
          return HAL_ERROR;
 8002156:	2301      	movs	r3, #1
 8002158:	e000      	b.n	800215c <HAL_RCC_OscConfig+0x4ec>
        }
      }
    }
  }

  return HAL_OK;
 800215a:	2300      	movs	r3, #0
}
 800215c:	4618      	mov	r0, r3
 800215e:	3718      	adds	r7, #24
 8002160:	46bd      	mov	sp, r7
 8002162:	bd80      	pop	{r7, pc}
 8002164:	40021000 	.word	0x40021000
 8002168:	40007000 	.word	0x40007000
 800216c:	42420060 	.word	0x42420060

08002170 <HAL_RCC_ClockConfig>:
  *         You can use @ref HAL_RCC_GetClockConfig() function to know which clock is
  *         currently used as system clock source.
  * @retval HAL status
  */
HAL_StatusTypeDef HAL_RCC_ClockConfig(RCC_ClkInitTypeDef  *RCC_ClkInitStruct, uint32_t FLatency)
{
 8002170:	b580      	push	{r7, lr}
 8002172:	b084      	sub	sp, #16
 8002174:	af00      	add	r7, sp, #0
 8002176:	6078      	str	r0, [r7, #4]
 8002178:	6039      	str	r1, [r7, #0]
  uint32_t tickstart;

  /* Check Null pointer */
  if (RCC_ClkInitStruct == NULL)
 800217a:	687b      	ldr	r3, [r7, #4]
 800217c:	2b00      	cmp	r3, #0
 800217e:	d101      	bne.n	8002184 <HAL_RCC_ClockConfig+0x14>
  {
    return HAL_ERROR;
 8002180:	2301      	movs	r3, #1
 8002182:	e0d0      	b.n	8002326 <HAL_RCC_ClockConfig+0x1b6>
  must be correctly programmed according to the frequency of the CPU clock
    (HCLK) of the device. */

#if defined(FLASH_ACR_LATENCY)
  /* Increasing the number of wait states because of higher CPU frequency */
  if (FLatency > __HAL_FLASH_GET_LATENCY())
 8002184:	4b6a      	ldr	r3, [pc, #424]	; (8002330 <HAL_RCC_ClockConfig+0x1c0>)
 8002186:	681b      	ldr	r3, [r3, #0]
 8002188:	f003 0307 	and.w	r3, r3, #7
 800218c:	683a      	ldr	r2, [r7, #0]
 800218e:	429a      	cmp	r2, r3
 8002190:	d910      	bls.n	80021b4 <HAL_RCC_ClockConfig+0x44>
  {
    /* Program the new number of wait states to the LATENCY bits in the FLASH_ACR register */
    __HAL_FLASH_SET_LATENCY(FLatency);
 8002192:	4b67      	ldr	r3, [pc, #412]	; (8002330 <HAL_RCC_ClockConfig+0x1c0>)
 8002194:	681b      	ldr	r3, [r3, #0]
 8002196:	f023 0207 	bic.w	r2, r3, #7
 800219a:	4965      	ldr	r1, [pc, #404]	; (8002330 <HAL_RCC_ClockConfig+0x1c0>)
 800219c:	683b      	ldr	r3, [r7, #0]
 800219e:	4313      	orrs	r3, r2
 80021a0:	600b      	str	r3, [r1, #0]

    /* Check that the new number of wait states is taken into account to access the Flash
    memory by reading the FLASH_ACR register */
    if (__HAL_FLASH_GET_LATENCY() != FLatency)
 80021a2:	4b63      	ldr	r3, [pc, #396]	; (8002330 <HAL_RCC_ClockConfig+0x1c0>)
 80021a4:	681b      	ldr	r3, [r3, #0]
 80021a6:	f003 0307 	and.w	r3, r3, #7
 80021aa:	683a      	ldr	r2, [r7, #0]
 80021ac:	429a      	cmp	r2, r3
 80021ae:	d001      	beq.n	80021b4 <HAL_RCC_ClockConfig+0x44>
  {
    return HAL_ERROR;
 80021b0:	2301      	movs	r3, #1
 80021b2:	e0b8      	b.n	8002326 <HAL_RCC_ClockConfig+0x1b6>
  }
}

#endif /* FLASH_ACR_LATENCY */
/*-------------------------- HCLK Configuration --------------------------*/
if (((RCC_ClkInitStruct->ClockType) & RCC_CLOCKTYPE_HCLK) == RCC_CLOCKTYPE_HCLK)
 80021b4:	687b      	ldr	r3, [r7, #4]
 80021b6:	681b      	ldr	r3, [r3, #0]
 80021b8:	f003 0302 	and.w	r3, r3, #2
 80021bc:	2b00      	cmp	r3, #0
 80021be:	d020      	beq.n	8002202 <HAL_RCC_ClockConfig+0x92>
  {
    /* Set the highest APBx dividers in order to ensure that we do not go through
    a non-spec phase whatever we decrease or increase HCLK. */
    if (((RCC_ClkInitStruct->ClockType) & RCC_CLOCKTYPE_PCLK1) == RCC_CLOCKTYPE_PCLK1)
 80021c0:	687b      	ldr	r3, [r7, #4]
 80021c2:	681b      	ldr	r3, [r3, #0]
 80021c4:	f003 0304 	and.w	r3, r3, #4
 80021c8:	2b00      	cmp	r3, #0
 80021ca:	d005      	beq.n	80021d8 <HAL_RCC_ClockConfig+0x68>
    {
      MODIFY_REG(RCC->CFGR, RCC_CFGR_PPRE1, RCC_HCLK_DIV16);
 80021cc:	4b59      	ldr	r3, [pc, #356]	; (8002334 <HAL_RCC_ClockConfig+0x1c4>)
 80021ce:	685b      	ldr	r3, [r3, #4]
